{
	"contracts/FeeAggregator.sol": {
		"feeAggregator": {
			"abi": [
				{
					"inputs": [
						{
							"internalType": "uint256",
							"name": "_feeToDao",
							"type": "uint256"
						},
						{
							"internalType": "uint256",
							"name": "_feeToBribes",
							"type": "uint256"
						}
					],
					"stateMutability": "nonpayable",
					"type": "constructor"
				},
				{
					"inputs": [],
					"name": "chef",
					"outputs": [
						{
							"internalType": "address",
							"name": "",
							"type": "address"
						}
					],
					"stateMutability": "view",
					"type": "function"
				},
				{
					"inputs": [],
					"name": "factory",
					"outputs": [
						{
							"internalType": "address",
							"name": "",
							"type": "address"
						}
					],
					"stateMutability": "view",
					"type": "function"
				},
				{
					"inputs": [],
					"name": "feeToBribes",
					"outputs": [
						{
							"internalType": "uint256",
							"name": "",
							"type": "uint256"
						}
					],
					"stateMutability": "view",
					"type": "function"
				},
				{
					"inputs": [],
					"name": "feeToDAO",
					"outputs": [
						{
							"internalType": "uint256",
							"name": "",
							"type": "uint256"
						}
					],
					"stateMutability": "view",
					"type": "function"
				},
				{
					"inputs": [],
					"name": "router",
					"outputs": [
						{
							"internalType": "address",
							"name": "",
							"type": "address"
						}
					],
					"stateMutability": "view",
					"type": "function"
				},
				{
					"inputs": [],
					"name": "sendBribes",
					"outputs": [],
					"stateMutability": "nonpayable",
					"type": "function"
				},
				{
					"inputs": [],
					"name": "sendFees",
					"outputs": [],
					"stateMutability": "nonpayable",
					"type": "function"
				},
				{
					"inputs": [],
					"name": "syncFarms",
					"outputs": [],
					"stateMutability": "nonpayable",
					"type": "function"
				},
				{
					"inputs": [],
					"name": "syncPairs",
					"outputs": [],
					"stateMutability": "nonpayable",
					"type": "function"
				},
				{
					"inputs": [],
					"name": "voter",
					"outputs": [
						{
							"internalType": "address",
							"name": "",
							"type": "address"
						}
					],
					"stateMutability": "view",
					"type": "function"
				}
			],
			"devdoc": {
				"kind": "dev",
				"methods": {},
				"version": 1
			},
			"evm": {
				"assembly": "    /* \"contracts/FeeAggregator.sol\":277:812  contract feeAggregator {... */\n  mstore(0x40, 0x80)\n    /* \"contracts/FeeAggregator.sol\":538:647  constructor(uint256 _feeToDao, uint256 _feeToBribes) {... */\n  callvalue\n  dup1\n  iszero\n  tag_1\n  jumpi\n  revert(0x00, 0x00)\ntag_1:\n  pop\n  mload(0x40)\n  sub(codesize, bytecodeSize)\n  dup1\n  bytecodeSize\n  dup4\n  codecopy\n  dup2\n  add\n  0x40\n  dup2\n  swap1\n  mstore\n  tag_2\n  swap2\n  tag_3\n  jump\t// in\ntag_2:\n    /* \"contracts/FeeAggregator.sol\":594:602  feeToDAO */\n  0x00\n    /* \"contracts/FeeAggregator.sol\":594:614  feeToDAO = _feeToDao */\n  swap2\n  swap1\n  swap2\n  sstore\n    /* \"contracts/FeeAggregator.sol\":617:628  feeToBribes */\n  0x01\n    /* \"contracts/FeeAggregator.sol\":617:643  feeToBribes = _feeToBribes */\n  sstore\n    /* \"contracts/FeeAggregator.sol\":277:812  contract feeAggregator {... */\n  jump(tag_7)\n    /* \"#utility.yul\":14:357   */\ntag_3:\n    /* \"#utility.yul\":93:99   */\n  0x00\n    /* \"#utility.yul\":101:107   */\n  0x00\n    /* \"#utility.yul\":154:156   */\n  0x40\n    /* \"#utility.yul\":142:151   */\n  dup4\n    /* \"#utility.yul\":133:140   */\n  dup6\n    /* \"#utility.yul\":129:152   */\n  sub\n    /* \"#utility.yul\":125:157   */\n  slt\n    /* \"#utility.yul\":122:174   */\n  iszero\n  tag_9\n  jumpi\n    /* \"#utility.yul\":170:171   */\n  0x00\n    /* \"#utility.yul\":167:168   */\n  0x00\n    /* \"#utility.yul\":160:172   */\n  revert\n    /* \"#utility.yul\":122:174   */\ntag_9:\n  pop\n  pop\n    /* \"#utility.yul\":215:231   */\n  dup1\n  mload\n    /* \"#utility.yul\":321:323   */\n  0x20\n    /* \"#utility.yul\":306:324   */\n  swap1\n  swap2\n  add\n    /* \"#utility.yul\":300:325   */\n  mload\n    /* \"#utility.yul\":215:231   */\n  swap1\n  swap3\n    /* \"#utility.yul\":300:325   */\n  swap1\n  swap2\n  pop\n    /* \"#utility.yul\":14:357   */\n  jump\t// out\ntag_7:\n    /* \"contracts/FeeAggregator.sol\":277:812  contract feeAggregator {... */\n  dataSize(sub_0)\n  dup1\n  dataOffset(sub_0)\n  0x00\n  codecopy\n  0x00\n  return\nstop\n\nsub_0: assembly {\n        /* \"contracts/FeeAggregator.sol\":277:812  contract feeAggregator {... */\n      mstore(0x40, 0x80)\n      callvalue\n      dup1\n      iszero\n      tag_1\n      jumpi\n      revert(0x00, 0x00)\n    tag_1:\n      pop\n      jumpi(tag_2, lt(calldatasize, 0x04))\n      shr(0xe0, calldataload(0x00))\n      dup1\n      0xbe7d9a39\n      gt\n      tag_13\n      jumpi\n      dup1\n      0xbe7d9a39\n      eq\n      tag_3\n      jumpi\n      dup1\n      0xc45a0155\n      eq\n      tag_9\n      jumpi\n      dup1\n      0xdff90b5b\n      eq\n      tag_3\n      jumpi\n      dup1\n      0xf7f398bf\n      eq\n      tag_3\n      jumpi\n      dup1\n      0xf887ea40\n      eq\n      tag_12\n      jumpi\n      revert(0x00, 0x00)\n    tag_13:\n      dup1\n      0x036711d4\n      eq\n      tag_3\n      jumpi\n      dup1\n      0x1fc8bc5d\n      eq\n      tag_4\n      jumpi\n      dup1\n      0x31e42a3f\n      eq\n      tag_5\n      jumpi\n      dup1\n      0x46c96aac\n      eq\n      tag_6\n      jumpi\n      dup1\n      0x94135d3c\n      eq\n      tag_7\n      jumpi\n    tag_2:\n      revert(0x00, 0x00)\n        /* \"contracts/FeeAggregator.sol\":650:687  function syncPairs() external {... */\n    tag_3:\n      stop\n        /* \"contracts/FeeAggregator.sol\":432:451  address public chef */\n    tag_4:\n      sload(0x05)\n      tag_16\n      swap1\n      sub(shl(0xa0, 0x01), 0x01)\n      and\n      dup2\n      jump\n    tag_16:\n      mload(0x40)\n      sub(shl(0xa0, 0x01), 0x01)\n        /* \"#utility.yul\":178:210   */\n      swap1\n      swap2\n      and\n        /* \"#utility.yul\":160:211   */\n      dup2\n      mstore\n        /* \"#utility.yul\":148:150   */\n      0x20\n        /* \"#utility.yul\":133:151   */\n      add\n        /* \"contracts/FeeAggregator.sol\":432:451  address public chef */\n    tag_18:\n      mload(0x40)\n      dup1\n      swap2\n      sub\n      swap1\n      return\n        /* \"contracts/FeeAggregator.sol\":331:357  uint256 public feeToBribes */\n    tag_5:\n      tag_20\n      sload(0x01)\n      dup2\n      jump\n    tag_20:\n      mload(0x40)\n        /* \"#utility.yul\":368:393   */\n      swap1\n      dup2\n      mstore\n        /* \"#utility.yul\":356:358   */\n      0x20\n        /* \"#utility.yul\":341:359   */\n      add\n        /* \"contracts/FeeAggregator.sol\":331:357  uint256 public feeToBribes */\n      tag_18\n        /* \"#utility.yul\":222:399   */\n      jump\n        /* \"contracts/FeeAggregator.sol\":385:405  address public voter */\n    tag_6:\n      sload(0x03)\n      tag_16\n      swap1\n      sub(shl(0xa0, 0x01), 0x01)\n      and\n      dup2\n      jump\n        /* \"contracts/FeeAggregator.sol\":305:328  uint256 public feeToDAO */\n    tag_7:\n      tag_20\n      sload(0x00)\n      dup2\n      jump\n        /* \"contracts/FeeAggregator.sol\":360:382  address public factory */\n    tag_9:\n      sload(0x02)\n      tag_16\n      swap1\n      sub(shl(0xa0, 0x01), 0x01)\n      and\n      dup2\n      jump\n        /* \"contracts/FeeAggregator.sol\":408:429  address public router */\n    tag_12:\n      sload(0x04)\n      tag_16\n      swap1\n      sub(shl(0xa0, 0x01), 0x01)\n      and\n      dup2\n      jump\n\n    auxdata: 0xa2646970667358221220c0e588f06ccb198db9a6e1fe7b49819349b6b771bdf90c3c90710b8e3771e65064736f6c634300081b0033\n}\n",
				"bytecode": {
					"linkReferences": {},
					"object": "6080604052348015600e575f5ffd5b506040516101c43803806101c4833981016040819052602b916037565b5f919091556001556058565b5f5f604083850312156047575f5ffd5b505080516020909101519092909150565b61015f806100655f395ff3fe608060405234801561000f575f5ffd5b506004361061009b575f3560e01c8063be7d9a3911610063578063be7d9a391461009f578063c45a015514610103578063dff90b5b1461009f578063f7f398bf1461009f578063f887ea4014610116575f5ffd5b8063036711d41461009f5780631fc8bc5d146100a157806331e42a3f146100d157806346c96aac146100e857806394135d3c146100fb575b5f5ffd5b005b6005546100b4906001600160a01b031681565b6040516001600160a01b0390911681526020015b60405180910390f35b6100da60015481565b6040519081526020016100c8565b6003546100b4906001600160a01b031681565b6100da5f5481565b6002546100b4906001600160a01b031681565b6004546100b4906001600160a01b03168156fea2646970667358221220c0e588f06ccb198db9a6e1fe7b49819349b6b771bdf90c3c90710b8e3771e65064736f6c634300081b0033",
					"opcodes": "PUSH1 0x80 PUSH1 0x40 MSTORE CALLVALUE DUP1 ISZERO PUSH1 0xE JUMPI PUSH0 PUSH0 REVERT JUMPDEST POP PUSH1 0x40 MLOAD PUSH2 0x1C4 CODESIZE SUB DUP1 PUSH2 0x1C4 DUP4 CODECOPY DUP2 ADD PUSH1 0x40 DUP2 SWAP1 MSTORE PUSH1 0x2B SWAP2 PUSH1 0x37 JUMP JUMPDEST PUSH0 SWAP2 SWAP1 SWAP2 SSTORE PUSH1 0x1 SSTORE PUSH1 0x58 JUMP JUMPDEST PUSH0 PUSH0 PUSH1 0x40 DUP4 DUP6 SUB SLT ISZERO PUSH1 0x47 JUMPI PUSH0 PUSH0 REVERT JUMPDEST POP POP DUP1 MLOAD PUSH1 0x20 SWAP1 SWAP2 ADD MLOAD SWAP1 SWAP3 SWAP1 SWAP2 POP JUMP JUMPDEST PUSH2 0x15F DUP1 PUSH2 0x65 PUSH0 CODECOPY PUSH0 RETURN INVALID PUSH1 0x80 PUSH1 0x40 MSTORE CALLVALUE DUP1 ISZERO PUSH2 0xF JUMPI PUSH0 PUSH0 REVERT JUMPDEST POP PUSH1 0x4 CALLDATASIZE LT PUSH2 0x9B JUMPI PUSH0 CALLDATALOAD PUSH1 0xE0 SHR DUP1 PUSH4 0xBE7D9A39 GT PUSH2 0x63 JUMPI DUP1 PUSH4 0xBE7D9A39 EQ PUSH2 0x9F JUMPI DUP1 PUSH4 0xC45A0155 EQ PUSH2 0x103 JUMPI DUP1 PUSH4 0xDFF90B5B EQ PUSH2 0x9F JUMPI DUP1 PUSH4 0xF7F398BF EQ PUSH2 0x9F JUMPI DUP1 PUSH4 0xF887EA40 EQ PUSH2 0x116 JUMPI PUSH0 PUSH0 REVERT JUMPDEST DUP1 PUSH4 0x36711D4 EQ PUSH2 0x9F JUMPI DUP1 PUSH4 0x1FC8BC5D EQ PUSH2 0xA1 JUMPI DUP1 PUSH4 0x31E42A3F EQ PUSH2 0xD1 JUMPI DUP1 PUSH4 0x46C96AAC EQ PUSH2 0xE8 JUMPI DUP1 PUSH4 0x94135D3C EQ PUSH2 0xFB JUMPI JUMPDEST PUSH0 PUSH0 REVERT JUMPDEST STOP JUMPDEST PUSH1 0x5 SLOAD PUSH2 0xB4 SWAP1 PUSH1 0x1 PUSH1 0x1 PUSH1 0xA0 SHL SUB AND DUP2 JUMP JUMPDEST PUSH1 0x40 MLOAD PUSH1 0x1 PUSH1 0x1 PUSH1 0xA0 SHL SUB SWAP1 SWAP2 AND DUP2 MSTORE PUSH1 0x20 ADD JUMPDEST PUSH1 0x40 MLOAD DUP1 SWAP2 SUB SWAP1 RETURN JUMPDEST PUSH2 0xDA PUSH1 0x1 SLOAD DUP2 JUMP JUMPDEST PUSH1 0x40 MLOAD SWAP1 DUP2 MSTORE PUSH1 0x20 ADD PUSH2 0xC8 JUMP JUMPDEST PUSH1 0x3 SLOAD PUSH2 0xB4 SWAP1 PUSH1 0x1 PUSH1 0x1 PUSH1 0xA0 SHL SUB AND DUP2 JUMP JUMPDEST PUSH2 0xDA PUSH0 SLOAD DUP2 JUMP JUMPDEST PUSH1 0x2 SLOAD PUSH2 0xB4 SWAP1 PUSH1 0x1 PUSH1 0x1 PUSH1 0xA0 SHL SUB AND DUP2 JUMP JUMPDEST PUSH1 0x4 SLOAD PUSH2 0xB4 SWAP1 PUSH1 0x1 PUSH1 0x1 PUSH1 0xA0 SHL SUB AND DUP2 JUMP INVALID LOG2 PUSH5 0x6970667358 0x22 SLT KECCAK256 0xC0 0xE5 DUP9 CREATE PUSH13 0xCB198DB9A6E1FE7B49819349B6 0xB7 PUSH18 0xBDF90C3C90710B8E3771E65064736F6C6343 STOP ADDMOD SHL STOP CALLER "
				},
				"gasEstimates": {
					"creation": {
						"codeDepositCost": "70200",
						"executionCost": "infinite",
						"totalCost": "infinite"
					},
					"external": {
						"chef()": "2348",
						"factory()": "2347",
						"feeToBribes()": "2339",
						"feeToDAO()": "2382",
						"router()": "2413",
						"sendBribes()": "119",
						"sendFees()": "163",
						"syncFarms()": "185",
						"syncPairs()": "120",
						"voter()": "2392"
					}
				},
				"methodIdentifiers": {
					"chef()": "1fc8bc5d",
					"factory()": "c45a0155",
					"feeToBribes()": "31e42a3f",
					"feeToDAO()": "94135d3c",
					"router()": "f887ea40",
					"sendBribes()": "be7d9a39",
					"sendFees()": "dff90b5b",
					"syncFarms()": "f7f398bf",
					"syncPairs()": "036711d4",
					"voter()": "46c96aac"
				}
			},
			"storageLayout": {
				"storage": [
					{
						"astId": 879,
						"contract": "contracts/FeeAggregator.sol:feeAggregator",
						"label": "feeToDAO",
						"offset": 0,
						"slot": "0",
						"type": "t_uint256"
					},
					{
						"astId": 881,
						"contract": "contracts/FeeAggregator.sol:feeAggregator",
						"label": "feeToBribes",
						"offset": 0,
						"slot": "1",
						"type": "t_uint256"
					},
					{
						"astId": 883,
						"contract": "contracts/FeeAggregator.sol:feeAggregator",
						"label": "factory",
						"offset": 0,
						"slot": "2",
						"type": "t_address"
					},
					{
						"astId": 885,
						"contract": "contracts/FeeAggregator.sol:feeAggregator",
						"label": "voter",
						"offset": 0,
						"slot": "3",
						"type": "t_address"
					},
					{
						"astId": 887,
						"contract": "contracts/FeeAggregator.sol:feeAggregator",
						"label": "router",
						"offset": 0,
						"slot": "4",
						"type": "t_address"
					},
					{
						"astId": 889,
						"contract": "contracts/FeeAggregator.sol:feeAggregator",
						"label": "chef",
						"offset": 0,
						"slot": "5",
						"type": "t_address"
					},
					{
						"astId": 893,
						"contract": "contracts/FeeAggregator.sol:feeAggregator",
						"label": "isIncentivised",
						"offset": 0,
						"slot": "6",
						"type": "t_mapping(t_address,t_bool)"
					},
					{
						"astId": 897,
						"contract": "contracts/FeeAggregator.sol:feeAggregator",
						"label": "isPair",
						"offset": 0,
						"slot": "7",
						"type": "t_mapping(t_address,t_bool)"
					}
				],
				"types": {
					"t_address": {
						"encoding": "inplace",
						"label": "address",
						"numberOfBytes": "20"
					},
					"t_bool": {
						"encoding": "inplace",
						"label": "bool",
						"numberOfBytes": "1"
					},
					"t_mapping(t_address,t_bool)": {
						"encoding": "mapping",
						"key": "t_address",
						"label": "mapping(address => bool)",
						"numberOfBytes": "32",
						"value": "t_bool"
					},
					"t_uint256": {
						"encoding": "inplace",
						"label": "uint256",
						"numberOfBytes": "32"
					}
				}
			},
			"userdoc": {
				"kind": "user",
				"methods": {},
				"version": 1
			}
		}
	}
}