{
	"contracts/UniswapV2Pair_flattened.sol": {
		"UniswapV2Pair": {
			"abi": [
				{
					"inputs": [
						{
							"internalType": "uint8",
							"name": "_totalFee",
							"type": "uint8"
						},
						{
							"internalType": "uint8",
							"name": "_feeToSetter",
							"type": "uint8"
						}
					],
					"stateMutability": "nonpayable",
					"type": "constructor"
				},
				{
					"anonymous": false,
					"inputs": [
						{
							"indexed": true,
							"internalType": "address",
							"name": "owner",
							"type": "address"
						},
						{
							"indexed": true,
							"internalType": "address",
							"name": "spender",
							"type": "address"
						},
						{
							"indexed": false,
							"internalType": "uint256",
							"name": "value",
							"type": "uint256"
						}
					],
					"name": "Approval",
					"type": "event"
				},
				{
					"anonymous": false,
					"inputs": [
						{
							"indexed": true,
							"internalType": "address",
							"name": "sender",
							"type": "address"
						},
						{
							"indexed": false,
							"internalType": "uint256",
							"name": "amount0",
							"type": "uint256"
						},
						{
							"indexed": false,
							"internalType": "uint256",
							"name": "amount1",
							"type": "uint256"
						},
						{
							"indexed": true,
							"internalType": "address",
							"name": "to",
							"type": "address"
						}
					],
					"name": "Burn",
					"type": "event"
				},
				{
					"anonymous": false,
					"inputs": [
						{
							"indexed": true,
							"internalType": "address",
							"name": "sender",
							"type": "address"
						},
						{
							"indexed": false,
							"internalType": "uint256",
							"name": "amount0",
							"type": "uint256"
						},
						{
							"indexed": false,
							"internalType": "uint256",
							"name": "amount1",
							"type": "uint256"
						}
					],
					"name": "Mint",
					"type": "event"
				},
				{
					"anonymous": false,
					"inputs": [
						{
							"indexed": true,
							"internalType": "address",
							"name": "sender",
							"type": "address"
						},
						{
							"indexed": false,
							"internalType": "uint256",
							"name": "amount0In",
							"type": "uint256"
						},
						{
							"indexed": false,
							"internalType": "uint256",
							"name": "amount1In",
							"type": "uint256"
						},
						{
							"indexed": false,
							"internalType": "uint256",
							"name": "amount0Out",
							"type": "uint256"
						},
						{
							"indexed": false,
							"internalType": "uint256",
							"name": "amount1Out",
							"type": "uint256"
						},
						{
							"indexed": true,
							"internalType": "address",
							"name": "to",
							"type": "address"
						}
					],
					"name": "Swap",
					"type": "event"
				},
				{
					"anonymous": false,
					"inputs": [
						{
							"indexed": false,
							"internalType": "uint112",
							"name": "reserve0",
							"type": "uint112"
						},
						{
							"indexed": false,
							"internalType": "uint112",
							"name": "reserve1",
							"type": "uint112"
						}
					],
					"name": "Sync",
					"type": "event"
				},
				{
					"anonymous": false,
					"inputs": [
						{
							"indexed": true,
							"internalType": "address",
							"name": "from",
							"type": "address"
						},
						{
							"indexed": true,
							"internalType": "address",
							"name": "to",
							"type": "address"
						},
						{
							"indexed": false,
							"internalType": "uint256",
							"name": "value",
							"type": "uint256"
						}
					],
					"name": "Transfer",
					"type": "event"
				},
				{
					"inputs": [],
					"name": "DOMAIN_SEPARATOR",
					"outputs": [
						{
							"internalType": "bytes32",
							"name": "",
							"type": "bytes32"
						}
					],
					"stateMutability": "view",
					"type": "function"
				},
				{
					"inputs": [],
					"name": "MINIMUM_LIQUIDITY",
					"outputs": [
						{
							"internalType": "uint256",
							"name": "",
							"type": "uint256"
						}
					],
					"stateMutability": "view",
					"type": "function"
				},
				{
					"inputs": [],
					"name": "PERMIT_TYPEHASH",
					"outputs": [
						{
							"internalType": "bytes32",
							"name": "",
							"type": "bytes32"
						}
					],
					"stateMutability": "view",
					"type": "function"
				},
				{
					"inputs": [],
					"name": "TotalFee",
					"outputs": [
						{
							"internalType": "uint256",
							"name": "",
							"type": "uint256"
						}
					],
					"stateMutability": "view",
					"type": "function"
				},
				{
					"inputs": [
						{
							"internalType": "address",
							"name": "",
							"type": "address"
						},
						{
							"internalType": "address",
							"name": "",
							"type": "address"
						}
					],
					"name": "allowance",
					"outputs": [
						{
							"internalType": "uint256",
							"name": "",
							"type": "uint256"
						}
					],
					"stateMutability": "view",
					"type": "function"
				},
				{
					"inputs": [
						{
							"internalType": "address",
							"name": "spender",
							"type": "address"
						},
						{
							"internalType": "uint256",
							"name": "value",
							"type": "uint256"
						}
					],
					"name": "approve",
					"outputs": [
						{
							"internalType": "bool",
							"name": "",
							"type": "bool"
						}
					],
					"stateMutability": "nonpayable",
					"type": "function"
				},
				{
					"inputs": [
						{
							"internalType": "address",
							"name": "",
							"type": "address"
						}
					],
					"name": "balanceOf",
					"outputs": [
						{
							"internalType": "uint256",
							"name": "",
							"type": "uint256"
						}
					],
					"stateMutability": "view",
					"type": "function"
				},
				{
					"inputs": [
						{
							"internalType": "address",
							"name": "to",
							"type": "address"
						}
					],
					"name": "burn",
					"outputs": [
						{
							"internalType": "uint256",
							"name": "amount0",
							"type": "uint256"
						},
						{
							"internalType": "uint256",
							"name": "amount1",
							"type": "uint256"
						}
					],
					"stateMutability": "nonpayable",
					"type": "function"
				},
				{
					"inputs": [],
					"name": "decimals",
					"outputs": [
						{
							"internalType": "uint8",
							"name": "",
							"type": "uint8"
						}
					],
					"stateMutability": "view",
					"type": "function"
				},
				{
					"inputs": [],
					"name": "factory",
					"outputs": [
						{
							"internalType": "address",
							"name": "",
							"type": "address"
						}
					],
					"stateMutability": "view",
					"type": "function"
				},
				{
					"inputs": [],
					"name": "getReserves",
					"outputs": [
						{
							"internalType": "uint112",
							"name": "_reserve0",
							"type": "uint112"
						},
						{
							"internalType": "uint112",
							"name": "_reserve1",
							"type": "uint112"
						},
						{
							"internalType": "uint32",
							"name": "_blockTimestampLast",
							"type": "uint32"
						}
					],
					"stateMutability": "view",
					"type": "function"
				},
				{
					"inputs": [
						{
							"internalType": "address",
							"name": "_token0",
							"type": "address"
						},
						{
							"internalType": "address",
							"name": "_token1",
							"type": "address"
						}
					],
					"name": "initialize",
					"outputs": [],
					"stateMutability": "nonpayable",
					"type": "function"
				},
				{
					"inputs": [],
					"name": "kLast",
					"outputs": [
						{
							"internalType": "uint256",
							"name": "",
							"type": "uint256"
						}
					],
					"stateMutability": "view",
					"type": "function"
				},
				{
					"inputs": [
						{
							"internalType": "address",
							"name": "to",
							"type": "address"
						}
					],
					"name": "mint",
					"outputs": [
						{
							"internalType": "uint256",
							"name": "liquidity",
							"type": "uint256"
						}
					],
					"stateMutability": "nonpayable",
					"type": "function"
				},
				{
					"inputs": [],
					"name": "name",
					"outputs": [
						{
							"internalType": "string",
							"name": "",
							"type": "string"
						}
					],
					"stateMutability": "view",
					"type": "function"
				},
				{
					"inputs": [
						{
							"internalType": "address",
							"name": "",
							"type": "address"
						}
					],
					"name": "nonces",
					"outputs": [
						{
							"internalType": "uint256",
							"name": "",
							"type": "uint256"
						}
					],
					"stateMutability": "view",
					"type": "function"
				},
				{
					"inputs": [
						{
							"internalType": "address",
							"name": "owner",
							"type": "address"
						},
						{
							"internalType": "address",
							"name": "spender",
							"type": "address"
						},
						{
							"internalType": "uint256",
							"name": "value",
							"type": "uint256"
						},
						{
							"internalType": "uint256",
							"name": "deadline",
							"type": "uint256"
						},
						{
							"internalType": "uint8",
							"name": "v",
							"type": "uint8"
						},
						{
							"internalType": "bytes32",
							"name": "r",
							"type": "bytes32"
						},
						{
							"internalType": "bytes32",
							"name": "s",
							"type": "bytes32"
						}
					],
					"name": "permit",
					"outputs": [],
					"stateMutability": "nonpayable",
					"type": "function"
				},
				{
					"inputs": [],
					"name": "price0CumulativeLast",
					"outputs": [
						{
							"internalType": "uint256",
							"name": "",
							"type": "uint256"
						}
					],
					"stateMutability": "view",
					"type": "function"
				},
				{
					"inputs": [],
					"name": "price1CumulativeLast",
					"outputs": [
						{
							"internalType": "uint256",
							"name": "",
							"type": "uint256"
						}
					],
					"stateMutability": "view",
					"type": "function"
				},
				{
					"inputs": [
						{
							"internalType": "address",
							"name": "to",
							"type": "address"
						}
					],
					"name": "skim",
					"outputs": [],
					"stateMutability": "nonpayable",
					"type": "function"
				},
				{
					"inputs": [
						{
							"internalType": "uint256",
							"name": "amount0Out",
							"type": "uint256"
						},
						{
							"internalType": "uint256",
							"name": "amount1Out",
							"type": "uint256"
						},
						{
							"internalType": "address",
							"name": "to",
							"type": "address"
						},
						{
							"internalType": "bytes",
							"name": "data",
							"type": "bytes"
						}
					],
					"name": "swap",
					"outputs": [],
					"stateMutability": "nonpayable",
					"type": "function"
				},
				{
					"inputs": [],
					"name": "symbol",
					"outputs": [
						{
							"internalType": "string",
							"name": "",
							"type": "string"
						}
					],
					"stateMutability": "view",
					"type": "function"
				},
				{
					"inputs": [],
					"name": "sync",
					"outputs": [],
					"stateMutability": "nonpayable",
					"type": "function"
				},
				{
					"inputs": [],
					"name": "token0",
					"outputs": [
						{
							"internalType": "address",
							"name": "",
							"type": "address"
						}
					],
					"stateMutability": "view",
					"type": "function"
				},
				{
					"inputs": [],
					"name": "token1",
					"outputs": [
						{
							"internalType": "address",
							"name": "",
							"type": "address"
						}
					],
					"stateMutability": "view",
					"type": "function"
				},
				{
					"inputs": [],
					"name": "totalSupply",
					"outputs": [
						{
							"internalType": "uint256",
							"name": "",
							"type": "uint256"
						}
					],
					"stateMutability": "view",
					"type": "function"
				},
				{
					"inputs": [
						{
							"internalType": "address",
							"name": "to",
							"type": "address"
						},
						{
							"internalType": "uint256",
							"name": "value",
							"type": "uint256"
						}
					],
					"name": "transfer",
					"outputs": [
						{
							"internalType": "bool",
							"name": "",
							"type": "bool"
						}
					],
					"stateMutability": "nonpayable",
					"type": "function"
				},
				{
					"inputs": [
						{
							"internalType": "address",
							"name": "from",
							"type": "address"
						},
						{
							"internalType": "address",
							"name": "to",
							"type": "address"
						},
						{
							"internalType": "uint256",
							"name": "value",
							"type": "uint256"
						}
					],
					"name": "transferFrom",
					"outputs": [
						{
							"internalType": "bool",
							"name": "",
							"type": "bool"
						}
					],
					"stateMutability": "nonpayable",
					"type": "function"
				}
			],
			"devdoc": {
				"kind": "dev",
				"methods": {},
				"version": 1
			},
			"evm": {
				"assembly": "    /* \"contracts/UniswapV2Pair_flattened.sol\":9696:20229  contract UniswapV2Pair is IUniswapV2Pair, UniswapV2ERC20 {... */\n  mstore(0x40, 0x80)\n    /* \"contracts/UniswapV2Pair_flattened.sol\":10718:10719  1 */\n  0x01\n    /* \"contracts/UniswapV2Pair_flattened.sol\":10691:10719  uint256 private unlocked = 1 */\n  0x0e\n  sstore\n    /* \"contracts/UniswapV2Pair_flattened.sol\":11551:11705  constructor(uint8 _totalFee, uint8 _feeToSetter) {... */\n  callvalue\n  dup1\n  iszero\n  tag_1\n  jumpi\n  0x00\n  dup1\n  revert\ntag_1:\n  pop\n  mload(0x40)\n  sub(codesize, bytecodeSize)\n  dup1\n  bytecodeSize\n  dup4\n  codecopy\n  dup2\n  add\n  0x40\n  dup2\n  swap1\n  mstore\n  tag_2\n  swap2\n  tag_3\n  jump\t// in\ntag_2:\n    /* \"contracts/UniswapV2Pair_flattened.sol\":3929:3933  name */\n  0x40\n  dup1\n  mload\n  dup1\n  dup3\n  add\n  dup3\n  mstore\n  0x0a\n  dup2\n  mstore\n  shl(0xb1, 0x2ab734b9bbb0b8102b19)\n  0x20\n  swap2\n  dup3\n  add\n  mstore\n    /* \"contracts/UniswapV2Pair_flattened.sol\":3963:3973  bytes(\"1\") */\n  dup2\n  mload\n  dup1\n  dup4\n  add\n  dup4\n  mstore\n  0x01\n  dup2\n  mstore\n  shl(0xf8, 0x31)\n  swap1\n  dup3\n  add\n  mstore\n    /* \"contracts/UniswapV2Pair_flattened.sol\":3734:4050  abi.encode(... */\n  dup2\n  mload\n    /* \"contracts/UniswapV2Pair_flattened.sol\":3762:3895  keccak256(... */\n  0x8b73c3c69bb8fe3d512ecc4cf759cc79239f7b179b0ffacaa9a75d522b39400f\n    /* \"contracts/UniswapV2Pair_flattened.sol\":3734:4050  abi.encode(... */\n  swap2\n  dup2\n  add\n    /* \"#utility.yul\":738:763   */\n  swap2\n  swap1\n  swap2\n  mstore\n    /* \"contracts/UniswapV2Pair_flattened.sol\":3913:3935  keccak256(bytes(name)) */\n  0xbfcc8ef98ffbf7b6c3fec7bf5185b566b9863e35a9d83acd49ad6824b5969738\n    /* \"#utility.yul\":779:797   */\n  swap2\n  dup2\n  add\n    /* \"#utility.yul\":772:806   */\n  swap2\n  swap1\n  swap2\n  mstore\n    /* \"contracts/UniswapV2Pair_flattened.sol\":3953:3974  keccak256(bytes(\"1\")) */\n  0xc89efdaa54c0f20c7adf612882df0950f5a951637e0307cdcb4c672f298b8bc6\n    /* \"#utility.yul\":822:840   */\n  0x60\n  dup3\n  add\n    /* \"#utility.yul\":815:849   */\n  mstore\n    /* \"contracts/UniswapV2Pair_flattened.sol\":3992:4005  block.chainid */\n  chainid\n    /* \"#utility.yul\":865:883   */\n  0x80\n  dup3\n  add\n    /* \"#utility.yul\":858:892   */\n  mstore\n    /* \"contracts/UniswapV2Pair_flattened.sol\":4031:4035  this */\n  address\n    /* \"#utility.yul\":908:927   */\n  0xa0\n  dup3\n  add\n    /* \"#utility.yul\":901:962   */\n  mstore\n    /* \"#utility.yul\":710:729   */\n  0xc0\n  add\n    /* \"contracts/UniswapV2Pair_flattened.sol\":3734:4050  abi.encode(... */\n  0x40\n  dup1\n  mload\n  not(0x1f)\n  dup2\n  dup5\n  sub\n  add\n  dup2\n  mstore\n  swap2\n  swap1\n  mstore\n    /* \"contracts/UniswapV2Pair_flattened.sol\":3711:4060  keccak256(... */\n  dup1\n  mload\n    /* \"contracts/UniswapV2Pair_flattened.sol\":3734:4050  abi.encode(... */\n  0x20\n    /* \"contracts/UniswapV2Pair_flattened.sol\":3711:4060  keccak256(... */\n  swap1\n  swap2\n  add\n  keccak256\n    /* \"contracts/UniswapV2Pair_flattened.sol\":3692:3708  DOMAIN_SEPARATOR */\n  0x03\n    /* \"contracts/UniswapV2Pair_flattened.sol\":3692:4060  DOMAIN_SEPARATOR = keccak256(... */\n  sstore\n    /* \"contracts/UniswapV2Pair_flattened.sol\":11610:11617  factory */\n  0x05\n    /* \"contracts/UniswapV2Pair_flattened.sol\":11610:11630  factory = msg.sender */\n  dup1\n  sload\n  not(sub(shl(0xa0, 0x01), 0x01))\n  and\n    /* \"contracts/UniswapV2Pair_flattened.sol\":11620:11630  msg.sender */\n  caller\n    /* \"contracts/UniswapV2Pair_flattened.sol\":11610:11630  factory = msg.sender */\n  or\n  swap1\n  sstore\n    /* \"contracts/UniswapV2Pair_flattened.sol\":11640:11660  TotalFee = _totalFee */\n  0xff\n  swap2\n  dup3\n  and\n    /* \"contracts/UniswapV2Pair_flattened.sol\":11640:11648  TotalFee */\n  0x09\n    /* \"contracts/UniswapV2Pair_flattened.sol\":11640:11660  TotalFee = _totalFee */\n  sstore\n    /* \"contracts/UniswapV2Pair_flattened.sol\":11670:11696  feeToSetter = _feeToSetter */\n  and\n    /* \"contracts/UniswapV2Pair_flattened.sol\":11670:11681  feeToSetter */\n  0x0a\n    /* \"contracts/UniswapV2Pair_flattened.sol\":11670:11696  feeToSetter = _feeToSetter */\n  sstore\n    /* \"contracts/UniswapV2Pair_flattened.sol\":9696:20229  contract UniswapV2Pair is IUniswapV2Pair, UniswapV2ERC20 {... */\n  jump(tag_11)\n    /* \"#utility.yul\":14:174   */\ntag_12:\n    /* \"#utility.yul\":91:104   */\n  dup1\n  mload\n    /* \"#utility.yul\":144:148   */\n  0xff\n    /* \"#utility.yul\":133:149   */\n  dup2\n  and\n    /* \"#utility.yul\":123:150   */\n  dup2\n  eq\n    /* \"#utility.yul\":113:115   */\n  tag_14\n  jumpi\n    /* \"#utility.yul\":164:165   */\n  0x00\n    /* \"#utility.yul\":161:162   */\n  dup1\n    /* \"#utility.yul\":154:166   */\n  revert\n    /* \"#utility.yul\":113:115   */\ntag_14:\n    /* \"#utility.yul\":72:174   */\n  swap2\n  swap1\n  pop\n  jump\t// out\n    /* \"#utility.yul\":179:474   */\ntag_3:\n    /* \"#utility.yul\":254:260   */\n  0x00\n    /* \"#utility.yul\":262:268   */\n  dup1\n    /* \"#utility.yul\":315:317   */\n  0x40\n    /* \"#utility.yul\":303:312   */\n  dup4\n    /* \"#utility.yul\":294:301   */\n  dup6\n    /* \"#utility.yul\":290:313   */\n  sub\n    /* \"#utility.yul\":286:318   */\n  slt\n    /* \"#utility.yul\":283:285   */\n  iszero\n  tag_16\n  jumpi\n    /* \"#utility.yul\":336:342   */\n  dup2\n    /* \"#utility.yul\":328:334   */\n  dup3\n    /* \"#utility.yul\":321:343   */\n  revert\n    /* \"#utility.yul\":283:285   */\ntag_16:\n    /* \"#utility.yul\":364:402   */\n  tag_17\n    /* \"#utility.yul\":392:401   */\n  dup4\n    /* \"#utility.yul\":364:402   */\n  tag_12\n  jump\t// in\ntag_17:\n    /* \"#utility.yul\":354:402   */\n  swap2\n  pop\n    /* \"#utility.yul\":421:468   */\n  tag_18\n    /* \"#utility.yul\":464:466   */\n  0x20\n    /* \"#utility.yul\":453:462   */\n  dup5\n    /* \"#utility.yul\":449:467   */\n  add\n    /* \"#utility.yul\":421:468   */\n  tag_12\n  jump\t// in\ntag_18:\n    /* \"#utility.yul\":411:468   */\n  swap1\n  pop\n    /* \"#utility.yul\":273:474   */\n  swap3\n  pop\n  swap3\n  swap1\n  pop\n  jump\t// out\n    /* \"#utility.yul\":692:968   */\ntag_11:\n    /* \"contracts/UniswapV2Pair_flattened.sol\":9696:20229  contract UniswapV2Pair is IUniswapV2Pair, UniswapV2ERC20 {... */\n  dataSize(sub_0)\n  dup1\n  dataOffset(sub_0)\n  0x00\n  codecopy\n  0x00\n  return\nstop\n\nsub_0: assembly {\n        /* \"contracts/UniswapV2Pair_flattened.sol\":9696:20229  contract UniswapV2Pair is IUniswapV2Pair, UniswapV2ERC20 {... */\n      mstore(0x40, 0x80)\n      callvalue\n      dup1\n      iszero\n      tag_1\n      jumpi\n      0x00\n      dup1\n      revert\n    tag_1:\n      pop\n      jumpi(tag_2, lt(calldatasize, 0x04))\n      shr(0xe0, calldataload(0x00))\n      dup1\n      0x6a627842\n      gt\n      tag_31\n      jumpi\n      dup1\n      0xba9a7a56\n      gt\n      tag_32\n      jumpi\n      dup1\n      0xd21220a7\n      gt\n      tag_33\n      jumpi\n      dup1\n      0xd21220a7\n      eq\n      tag_27\n      jumpi\n      dup1\n      0xd505accf\n      eq\n      tag_28\n      jumpi\n      dup1\n      0xdd62ed3e\n      eq\n      tag_29\n      jumpi\n      dup1\n      0xfff6cae9\n      eq\n      tag_30\n      jumpi\n      0x00\n      dup1\n      revert\n    tag_33:\n      dup1\n      0xba9a7a56\n      eq\n      tag_24\n      jumpi\n      dup1\n      0xbc25cf77\n      eq\n      tag_25\n      jumpi\n      dup1\n      0xc45a0155\n      eq\n      tag_26\n      jumpi\n      0x00\n      dup1\n      revert\n    tag_32:\n      dup1\n      0x7ecebe00\n      gt\n      tag_34\n      jumpi\n      dup1\n      0x7ecebe00\n      eq\n      tag_20\n      jumpi\n      dup1\n      0x89afcb44\n      eq\n      tag_21\n      jumpi\n      dup1\n      0x95d89b41\n      eq\n      tag_22\n      jumpi\n      dup1\n      0xa9059cbb\n      eq\n      tag_23\n      jumpi\n      0x00\n      dup1\n      revert\n    tag_34:\n      dup1\n      0x6a627842\n      eq\n      tag_17\n      jumpi\n      dup1\n      0x70a08231\n      eq\n      tag_18\n      jumpi\n      dup1\n      0x7464fc3d\n      eq\n      tag_19\n      jumpi\n      0x00\n      dup1\n      revert\n    tag_31:\n      dup1\n      0x30adf81f\n      gt\n      tag_35\n      jumpi\n      dup1\n      0x485cc955\n      gt\n      tag_36\n      jumpi\n      dup1\n      0x485cc955\n      eq\n      tag_13\n      jumpi\n      dup1\n      0x4d3314f4\n      eq\n      tag_14\n      jumpi\n      dup1\n      0x5909c0d5\n      eq\n      tag_15\n      jumpi\n      dup1\n      0x5a3d5493\n      eq\n      tag_16\n      jumpi\n      0x00\n      dup1\n      revert\n    tag_36:\n      dup1\n      0x30adf81f\n      eq\n      tag_10\n      jumpi\n      dup1\n      0x313ce567\n      eq\n      tag_11\n      jumpi\n      dup1\n      0x3644e515\n      eq\n      tag_12\n      jumpi\n      0x00\n      dup1\n      revert\n    tag_35:\n      dup1\n      0x095ea7b3\n      gt\n      tag_37\n      jumpi\n      dup1\n      0x095ea7b3\n      eq\n      tag_6\n      jumpi\n      dup1\n      0x0dfe1681\n      eq\n      tag_7\n      jumpi\n      dup1\n      0x18160ddd\n      eq\n      tag_8\n      jumpi\n      dup1\n      0x23b872dd\n      eq\n      tag_9\n      jumpi\n      0x00\n      dup1\n      revert\n    tag_37:\n      dup1\n      0x022c0d9f\n      eq\n      tag_3\n      jumpi\n      dup1\n      0x06fdde03\n      eq\n      tag_4\n      jumpi\n      dup1\n      0x0902f1ac\n      eq\n      tag_5\n      jumpi\n    tag_2:\n      0x00\n      dup1\n      revert\n        /* \"contracts/UniswapV2Pair_flattened.sol\":17171:19488  function swap(... */\n    tag_3:\n      tag_38\n      tag_39\n      calldatasize\n      0x04\n      tag_40\n      jump\t// in\n    tag_39:\n      tag_41\n      jump\t// in\n    tag_38:\n      stop\n        /* \"contracts/UniswapV2Pair_flattened.sol\":2988:3039  string public constant override name = \"Uniswap V2\" */\n    tag_4:\n      tag_42\n      mload(0x40)\n      dup1\n      0x40\n      add\n      0x40\n      mstore\n      dup1\n      0x0a\n      dup2\n      mstore\n      0x20\n      add\n      shl(0xb1, 0x2ab734b9bbb0b8102b19)\n      dup2\n      mstore\n      pop\n      dup2\n      jump\n    tag_42:\n      mload(0x40)\n      tag_44\n      swap2\n      swap1\n      tag_45\n      jump\t// in\n    tag_44:\n      mload(0x40)\n      dup1\n      swap2\n      sub\n      swap1\n      return\n        /* \"contracts/UniswapV2Pair_flattened.sol\":10862:11180  function getReserves()... */\n    tag_5:\n      tag_46\n      tag_47\n      jump\t// in\n    tag_46:\n      0x40\n      dup1\n      mload\n      sub(shl(0x70, 0x01), 0x01)\n        /* \"#utility.yul\":12994:13009   */\n      swap5\n      dup6\n      and\n        /* \"#utility.yul\":12976:13010   */\n      dup2\n      mstore\n        /* \"#utility.yul\":13046:13061   */\n      swap4\n      swap1\n      swap3\n      and\n        /* \"#utility.yul\":13041:13043   */\n      0x20\n        /* \"#utility.yul\":13026:13044   */\n      dup5\n      add\n        /* \"#utility.yul\":13019:13062   */\n      mstore\n        /* \"#utility.yul\":13110:13120   */\n      0xffffffff\n        /* \"#utility.yul\":13098:13121   */\n      and\n        /* \"#utility.yul\":13078:13096   */\n      swap1\n      dup3\n      add\n        /* \"#utility.yul\":13071:13122   */\n      mstore\n        /* \"#utility.yul\":12915:12917   */\n      0x60\n        /* \"#utility.yul\":12900:12918   */\n      add\n        /* \"contracts/UniswapV2Pair_flattened.sol\":10862:11180  function getReserves()... */\n      tag_44\n        /* \"#utility.yul\":12882:13128   */\n      jump\n        /* \"contracts/UniswapV2Pair_flattened.sol\":4785:4963  function approve(... */\n    tag_6:\n      tag_50\n      tag_51\n      calldatasize\n      0x04\n      tag_52\n      jump\t// in\n    tag_51:\n      tag_53\n      jump\t// in\n    tag_50:\n      mload(0x40)\n        /* \"#utility.yul\":5987:6001   */\n      swap1\n      iszero\n        /* \"#utility.yul\":5980:6002   */\n      iszero\n        /* \"#utility.yul\":5962:6003   */\n      dup2\n      mstore\n        /* \"#utility.yul\":5950:5952   */\n      0x20\n        /* \"#utility.yul\":5935:5953   */\n      add\n        /* \"contracts/UniswapV2Pair_flattened.sol\":4785:4963  function approve(... */\n      tag_44\n        /* \"#utility.yul\":5917:6009   */\n      jump\n        /* \"contracts/UniswapV2Pair_flattened.sol\":9897:9927  address public override token0 */\n    tag_7:\n      sload(0x06)\n      tag_56\n      swap1\n      sub(shl(0xa0, 0x01), 0x01)\n      and\n      dup2\n      jump\n    tag_56:\n      mload(0x40)\n      sub(shl(0xa0, 0x01), 0x01)\n        /* \"#utility.yul\":4859:4891   */\n      swap1\n      swap2\n      and\n        /* \"#utility.yul\":4841:4892   */\n      dup2\n      mstore\n        /* \"#utility.yul\":4829:4831   */\n      0x20\n        /* \"#utility.yul\":4814:4832   */\n      add\n        /* \"contracts/UniswapV2Pair_flattened.sol\":9897:9927  address public override token0 */\n      tag_44\n        /* \"#utility.yul\":4796:4898   */\n      jump\n        /* \"contracts/UniswapV2Pair_flattened.sol\":3150:3185  uint256 public override totalSupply */\n    tag_8:\n      tag_60\n      sload(0x00)\n      dup2\n      jump\n    tag_60:\n      mload(0x40)\n        /* \"#utility.yul\":6160:6185   */\n      swap1\n      dup2\n      mstore\n        /* \"#utility.yul\":6148:6150   */\n      0x20\n        /* \"#utility.yul\":6133:6151   */\n      add\n        /* \"contracts/UniswapV2Pair_flattened.sol\":3150:3185  uint256 public override totalSupply */\n      tag_44\n        /* \"#utility.yul\":6115:6191   */\n      jump\n        /* \"contracts/UniswapV2Pair_flattened.sol\":5145:5459  function transferFrom(... */\n    tag_9:\n      tag_50\n      tag_65\n      calldatasize\n      0x04\n      tag_66\n      jump\t// in\n    tag_65:\n      tag_67\n      jump\t// in\n        /* \"contracts/UniswapV2Pair_flattened.sol\":3480:3605  bytes32 public constant override PERMIT_TYPEHASH =... */\n    tag_10:\n      tag_60\n        /* \"contracts/UniswapV2Pair_flattened.sol\":3539:3605  0x6e71edae12b1b97f4d1f60370fef10105fa2faae0126114a169c64845d6126c9 */\n      0x6e71edae12b1b97f4d1f60370fef10105fa2faae0126114a169c64845d6126c9\n        /* \"contracts/UniswapV2Pair_flattened.sol\":3480:3605  bytes32 public constant override PERMIT_TYPEHASH =... */\n      dup2\n      jump\n        /* \"contracts/UniswapV2Pair_flattened.sol\":3100:3144  uint8 public constant override decimals = 18 */\n    tag_11:\n      tag_73\n        /* \"contracts/UniswapV2Pair_flattened.sol\":3142:3144  18 */\n      0x12\n        /* \"contracts/UniswapV2Pair_flattened.sol\":3100:3144  uint8 public constant override decimals = 18 */\n      dup2\n      jump\n    tag_73:\n      mload(0x40)\n        /* \"#utility.yul\":14136:14140   */\n      0xff\n        /* \"#utility.yul\":14124:14141   */\n      swap1\n      swap2\n      and\n        /* \"#utility.yul\":14106:14142   */\n      dup2\n      mstore\n        /* \"#utility.yul\":14094:14096   */\n      0x20\n        /* \"#utility.yul\":14079:14097   */\n      add\n        /* \"contracts/UniswapV2Pair_flattened.sol\":3100:3144  uint8 public constant override decimals = 18 */\n      tag_44\n        /* \"#utility.yul\":14061:14148   */\n      jump\n        /* \"contracts/UniswapV2Pair_flattened.sol\":3330:3370  bytes32 public override DOMAIN_SEPARATOR */\n    tag_12:\n      tag_60\n      sload(0x03)\n      dup2\n      jump\n        /* \"contracts/UniswapV2Pair_flattened.sol\":11767:11982  function initialize(address _token0, address _token1) external override {... */\n    tag_13:\n      tag_38\n      tag_81\n      calldatasize\n      0x04\n      tag_82\n      jump\t// in\n    tag_81:\n      tag_83\n      jump\t// in\n        /* \"contracts/UniswapV2Pair_flattened.sol\":10237:10260  uint256 public TotalFee */\n    tag_14:\n      tag_60\n      sload(0x09)\n      dup2\n      jump\n        /* \"contracts/UniswapV2Pair_flattened.sol\":10475:10519  uint256 public override price0CumulativeLast */\n    tag_15:\n      tag_60\n      sload(0x0b)\n      dup2\n      jump\n        /* \"contracts/UniswapV2Pair_flattened.sol\":10525:10569  uint256 public override price1CumulativeLast */\n    tag_16:\n      tag_60\n      sload(0x0c)\n      dup2\n      jump\n        /* \"contracts/UniswapV2Pair_flattened.sol\":14203:15497  function mint(... */\n    tag_17:\n      tag_60\n      tag_94\n      calldatasize\n      0x04\n      tag_95\n      jump\t// in\n    tag_94:\n      tag_96\n      jump\t// in\n        /* \"contracts/UniswapV2Pair_flattened.sol\":3191:3244  mapping(address => uint256) public override balanceOf */\n    tag_18:\n      tag_60\n      tag_99\n      calldatasize\n      0x04\n      tag_95\n      jump\t// in\n    tag_99:\n      mstore(0x20, 0x01)\n      0x00\n      swap1\n      dup2\n      mstore\n      0x40\n      swap1\n      keccak256\n      sload\n      dup2\n      jump\n        /* \"contracts/UniswapV2Pair_flattened.sol\":10575:10604  uint256 public override kLast */\n    tag_19:\n      tag_60\n      sload(0x0d)\n      dup2\n      jump\n        /* \"contracts/UniswapV2Pair_flattened.sol\":3611:3661  mapping(address => uint256) public override nonces */\n    tag_20:\n      tag_60\n      tag_106\n      calldatasize\n      0x04\n      tag_95\n      jump\t// in\n    tag_106:\n      mstore(0x20, 0x04)\n      0x00\n      swap1\n      dup2\n      mstore\n      0x40\n      swap1\n      keccak256\n      sload\n      dup2\n      jump\n        /* \"contracts/UniswapV2Pair_flattened.sol\":15606:17062  function burn(... */\n    tag_21:\n      tag_109\n      tag_110\n      calldatasize\n      0x04\n      tag_95\n      jump\t// in\n    tag_110:\n      tag_111\n      jump\t// in\n    tag_109:\n      0x40\n      dup1\n      mload\n        /* \"#utility.yul\":13489:13514   */\n      swap3\n      dup4\n      mstore\n        /* \"#utility.yul\":13545:13547   */\n      0x20\n        /* \"#utility.yul\":13530:13548   */\n      dup4\n      add\n        /* \"#utility.yul\":13523:13557   */\n      swap2\n      swap1\n      swap2\n      mstore\n        /* \"#utility.yul\":13462:13480   */\n      add\n        /* \"contracts/UniswapV2Pair_flattened.sol\":15606:17062  function burn(... */\n      tag_44\n        /* \"#utility.yul\":13444:13563   */\n      jump\n        /* \"contracts/UniswapV2Pair_flattened.sol\":3045:3094  string public constant override symbol = \"UNI-V2\" */\n    tag_22:\n      tag_42\n      mload(0x40)\n      dup1\n      0x40\n      add\n      0x40\n      mstore\n      dup1\n      0x06\n      dup2\n      mstore\n      0x20\n      add\n      shl(0xd1, 0x2aa72496ab19)\n      dup2\n      mstore\n      pop\n      dup2\n      jump\n        /* \"contracts/UniswapV2Pair_flattened.sol\":4969:5139  function transfer(... */\n    tag_23:\n      tag_50\n      tag_118\n      calldatasize\n      0x04\n      tag_52\n      jump\t// in\n    tag_118:\n      tag_119\n      jump\t// in\n        /* \"contracts/UniswapV2Pair_flattened.sol\":9793:9853  uint256 public constant override MINIMUM_LIQUIDITY = 10 ** 3 */\n    tag_24:\n      tag_60\n        /* \"contracts/UniswapV2Pair_flattened.sol\":9846:9853  10 ** 3 */\n      0x03e8\n        /* \"contracts/UniswapV2Pair_flattened.sol\":9793:9853  uint256 public constant override MINIMUM_LIQUIDITY = 10 ** 3 */\n      dup2\n      jump\n        /* \"contracts/UniswapV2Pair_flattened.sol\":19534:19958  function skim(address to) external override lock {... */\n    tag_25:\n      tag_38\n      tag_125\n      calldatasize\n      0x04\n      tag_95\n      jump\t// in\n    tag_125:\n      tag_126\n      jump\t// in\n        /* \"contracts/UniswapV2Pair_flattened.sol\":9860:9891  address public override factory */\n    tag_26:\n      sload(0x05)\n      tag_56\n      swap1\n      sub(shl(0xa0, 0x01), 0x01)\n      and\n      dup2\n      jump\n        /* \"contracts/UniswapV2Pair_flattened.sol\":9933:9963  address public override token1 */\n    tag_27:\n      sload(0x07)\n      tag_56\n      swap1\n      sub(shl(0xa0, 0x01), 0x01)\n      and\n      dup2\n      jump\n        /* \"contracts/UniswapV2Pair_flattened.sol\":5465:6442  function permit(... */\n    tag_28:\n      tag_38\n      tag_134\n      calldatasize\n      0x04\n      tag_135\n      jump\t// in\n    tag_134:\n      tag_136\n      jump\t// in\n        /* \"contracts/UniswapV2Pair_flattened.sol\":3250:3323  mapping(address => mapping(address => uint256)) public override allowance */\n    tag_29:\n      tag_60\n      tag_138\n      calldatasize\n      0x04\n      tag_82\n      jump\t// in\n    tag_138:\n      0x02\n      0x20\n      swap1\n      dup2\n      mstore\n      0x00\n      swap3\n      dup4\n      mstore\n      0x40\n      dup1\n      dup5\n      keccak256\n      swap1\n      swap2\n      mstore\n      swap1\n      dup3\n      mstore\n      swap1\n      keccak256\n      sload\n      dup2\n      jump\n        /* \"contracts/UniswapV2Pair_flattened.sol\":20004:20227  function sync() external override lock {... */\n    tag_30:\n      tag_38\n      tag_142\n      jump\t// in\n        /* \"contracts/UniswapV2Pair_flattened.sol\":17171:19488  function swap(... */\n    tag_41:\n        /* \"contracts/UniswapV2Pair_flattened.sol\":10759:10767  unlocked */\n      sload(0x0e)\n        /* \"contracts/UniswapV2Pair_flattened.sol\":10771:10772  1 */\n      0x01\n        /* \"contracts/UniswapV2Pair_flattened.sol\":10759:10772  unlocked == 1 */\n      eq\n        /* \"contracts/UniswapV2Pair_flattened.sol\":10751:10794  require(unlocked == 1, \"UniswapV2: LOCKED\") */\n      tag_144\n      jumpi\n      mload(0x40)\n      shl(0xe5, 0x461bcd)\n      dup2\n      mstore\n      0x04\n      add\n      tag_145\n      swap1\n      tag_146\n      jump\t// in\n    tag_145:\n      mload(0x40)\n      dup1\n      swap2\n      sub\n      swap1\n      revert\n    tag_144:\n        /* \"contracts/UniswapV2Pair_flattened.sol\":10815:10816  0 */\n      0x00\n        /* \"contracts/UniswapV2Pair_flattened.sol\":10804:10812  unlocked */\n      0x0e\n        /* \"contracts/UniswapV2Pair_flattened.sol\":10804:10816  unlocked = 0 */\n      sstore\n        /* \"contracts/UniswapV2Pair_flattened.sol\":17350:17364  amount0Out > 0 */\n      dup5\n      iszero\n      iszero\n      dup1\n        /* \"contracts/UniswapV2Pair_flattened.sol\":17350:17382  amount0Out > 0 || amount1Out > 0 */\n      tag_148\n      jumpi\n      pop\n        /* \"contracts/UniswapV2Pair_flattened.sol\":17381:17382  0 */\n      0x00\n        /* \"contracts/UniswapV2Pair_flattened.sol\":17368:17378  amount1Out */\n      dup5\n        /* \"contracts/UniswapV2Pair_flattened.sol\":17368:17382  amount1Out > 0 */\n      gt\n        /* \"contracts/UniswapV2Pair_flattened.sol\":17350:17382  amount0Out > 0 || amount1Out > 0 */\n    tag_148:\n        /* \"contracts/UniswapV2Pair_flattened.sol\":17329:17445  require(... */\n      tag_149\n      jumpi\n      mload(0x40)\n      shl(0xe5, 0x461bcd)\n      dup2\n      mstore\n        /* \"#utility.yul\":7785:7787   */\n      0x20\n        /* \"contracts/UniswapV2Pair_flattened.sol\":17329:17445  require(... */\n      0x04\n      dup3\n      add\n        /* \"#utility.yul\":7767:7788   */\n      mstore\n        /* \"#utility.yul\":7824:7826   */\n      0x25\n        /* \"#utility.yul\":7804:7822   */\n      0x24\n      dup3\n      add\n        /* \"#utility.yul\":7797:7827   */\n      mstore\n        /* \"#utility.yul\":7863:7897   */\n      0x556e697377617056323a20494e53554646494349454e545f4f55545055545f41\n        /* \"#utility.yul\":7843:7861   */\n      0x44\n      dup3\n      add\n        /* \"#utility.yul\":7836:7898   */\n      mstore\n      shl(0xda, 0x1353d55395)\n        /* \"#utility.yul\":7914:7932   */\n      0x64\n      dup3\n      add\n        /* \"#utility.yul\":7907:7942   */\n      mstore\n        /* \"#utility.yul\":7959:7978   */\n      0x84\n      add\n        /* \"contracts/UniswapV2Pair_flattened.sol\":17329:17445  require(... */\n      tag_145\n        /* \"#utility.yul\":7757:7984   */\n      jump\n        /* \"contracts/UniswapV2Pair_flattened.sol\":17329:17445  require(... */\n    tag_149:\n        /* \"contracts/UniswapV2Pair_flattened.sol\":17456:17473  uint112 _reserve0 */\n      0x00\n        /* \"contracts/UniswapV2Pair_flattened.sol\":17475:17492  uint112 _reserve1 */\n      dup1\n        /* \"contracts/UniswapV2Pair_flattened.sol\":17498:17511  getReserves() */\n      tag_152\n        /* \"contracts/UniswapV2Pair_flattened.sol\":17498:17509  getReserves */\n      tag_47\n        /* \"contracts/UniswapV2Pair_flattened.sol\":17498:17511  getReserves() */\n      jump\t// in\n    tag_152:\n        /* \"contracts/UniswapV2Pair_flattened.sol\":17455:17511  (uint112 _reserve0, uint112 _reserve1, ) = getReserves() */\n      pop\n      swap2\n      pop\n      swap2\n      pop\n        /* \"contracts/UniswapV2Pair_flattened.sol\":17570:17579  _reserve0 */\n      dup2\n      sub(shl(0x70, 0x01), 0x01)\n        /* \"contracts/UniswapV2Pair_flattened.sol\":17557:17579  amount0Out < _reserve0 */\n      and\n        /* \"contracts/UniswapV2Pair_flattened.sol\":17557:17567  amount0Out */\n      dup8\n        /* \"contracts/UniswapV2Pair_flattened.sol\":17557:17579  amount0Out < _reserve0 */\n      lt\n        /* \"contracts/UniswapV2Pair_flattened.sol\":17557:17605  amount0Out < _reserve0 && amount1Out < _reserve1 */\n      dup1\n      iszero\n      tag_153\n      jumpi\n      pop\n        /* \"contracts/UniswapV2Pair_flattened.sol\":17596:17605  _reserve1 */\n      dup1\n      sub(shl(0x70, 0x01), 0x01)\n        /* \"contracts/UniswapV2Pair_flattened.sol\":17583:17605  amount1Out < _reserve1 */\n      and\n        /* \"contracts/UniswapV2Pair_flattened.sol\":17583:17593  amount1Out */\n      dup7\n        /* \"contracts/UniswapV2Pair_flattened.sol\":17583:17605  amount1Out < _reserve1 */\n      lt\n        /* \"contracts/UniswapV2Pair_flattened.sol\":17557:17605  amount0Out < _reserve0 && amount1Out < _reserve1 */\n    tag_153:\n        /* \"contracts/UniswapV2Pair_flattened.sol\":17536:17664  require(... */\n      tag_154\n      jumpi\n      mload(0x40)\n      shl(0xe5, 0x461bcd)\n      dup2\n      mstore\n        /* \"#utility.yul\":9303:9305   */\n      0x20\n        /* \"contracts/UniswapV2Pair_flattened.sol\":17536:17664  require(... */\n      0x04\n      dup3\n      add\n        /* \"#utility.yul\":9285:9306   */\n      mstore\n        /* \"#utility.yul\":9342:9344   */\n      0x21\n        /* \"#utility.yul\":9322:9340   */\n      0x24\n      dup3\n      add\n        /* \"#utility.yul\":9315:9345   */\n      mstore\n        /* \"#utility.yul\":9381:9415   */\n      0x556e697377617056323a20494e53554646494349454e545f4c49515549444954\n        /* \"#utility.yul\":9361:9379   */\n      0x44\n      dup3\n      add\n        /* \"#utility.yul\":9354:9416   */\n      mstore\n      shl(0xf8, 0x59)\n        /* \"#utility.yul\":9432:9450   */\n      0x64\n      dup3\n      add\n        /* \"#utility.yul\":9425:9456   */\n      mstore\n        /* \"#utility.yul\":9473:9492   */\n      0x84\n      add\n        /* \"contracts/UniswapV2Pair_flattened.sol\":17536:17664  require(... */\n      tag_145\n        /* \"#utility.yul\":9275:9498   */\n      jump\n        /* \"contracts/UniswapV2Pair_flattened.sol\":17536:17664  require(... */\n    tag_154:\n        /* \"contracts/UniswapV2Pair_flattened.sol\":17826:17832  token0 */\n      sload(0x06)\n        /* \"contracts/UniswapV2Pair_flattened.sol\":17864:17870  token1 */\n      sload(0x07)\n        /* \"contracts/UniswapV2Pair_flattened.sol\":17675:17691  uint256 balance0 */\n      0x00\n      swap2\n      dup3\n      swap2\n      sub(shl(0xa0, 0x01), 0x01)\n        /* \"contracts/UniswapV2Pair_flattened.sol\":17826:17832  token0 */\n      swap2\n      dup3\n      and\n      swap2\n        /* \"contracts/UniswapV2Pair_flattened.sol\":17864:17870  token1 */\n      swap1\n      dup2\n      and\n      swap1\n        /* \"contracts/UniswapV2Pair_flattened.sol\":17892:17905  to != _token0 */\n      dup10\n      and\n      dup3\n      eq\n      dup1\n      iszero\n      swap1\n        /* \"contracts/UniswapV2Pair_flattened.sol\":17892:17922  to != _token0 && to != _token1 */\n      tag_157\n      jumpi\n      pop\n        /* \"contracts/UniswapV2Pair_flattened.sol\":17915:17922  _token1 */\n      dup1\n      sub(shl(0xa0, 0x01), 0x01)\n        /* \"contracts/UniswapV2Pair_flattened.sol\":17909:17922  to != _token1 */\n      and\n        /* \"contracts/UniswapV2Pair_flattened.sol\":17909:17911  to */\n      dup10\n      sub(shl(0xa0, 0x01), 0x01)\n        /* \"contracts/UniswapV2Pair_flattened.sol\":17909:17922  to != _token1 */\n      and\n      eq\n      iszero\n        /* \"contracts/UniswapV2Pair_flattened.sol\":17892:17922  to != _token0 && to != _token1 */\n    tag_157:\n        /* \"contracts/UniswapV2Pair_flattened.sol\":17884:17948  require(to != _token0 && to != _token1, \"UniswapV2: INVALID_TO\") */\n      tag_158\n      jumpi\n      mload(0x40)\n      shl(0xe5, 0x461bcd)\n      dup2\n      mstore\n        /* \"#utility.yul\":8596:8598   */\n      0x20\n        /* \"contracts/UniswapV2Pair_flattened.sol\":17884:17948  require(to != _token0 && to != _token1, \"UniswapV2: INVALID_TO\") */\n      0x04\n      dup3\n      add\n        /* \"#utility.yul\":8578:8599   */\n      mstore\n        /* \"#utility.yul\":8635:8637   */\n      0x15\n        /* \"#utility.yul\":8615:8633   */\n      0x24\n      dup3\n      add\n        /* \"#utility.yul\":8608:8638   */\n      mstore\n      shl(0x58, 0x556e697377617056323a20494e56414c49445f544f)\n        /* \"#utility.yul\":8654:8672   */\n      0x44\n      dup3\n      add\n        /* \"#utility.yul\":8647:8698   */\n      mstore\n        /* \"#utility.yul\":8715:8733   */\n      0x64\n      add\n        /* \"contracts/UniswapV2Pair_flattened.sol\":17884:17948  require(to != _token0 && to != _token1, \"UniswapV2: INVALID_TO\") */\n      tag_145\n        /* \"#utility.yul\":8568:8739   */\n      jump\n        /* \"contracts/UniswapV2Pair_flattened.sol\":17884:17948  require(to != _token0 && to != _token1, \"UniswapV2: INVALID_TO\") */\n    tag_158:\n        /* \"contracts/UniswapV2Pair_flattened.sol\":17966:17980  amount0Out > 0 */\n      dup11\n      iszero\n        /* \"contracts/UniswapV2Pair_flattened.sol\":17962:18020  if (amount0Out > 0) _safeTransfer(_token0, to, amount0Out) */\n      tag_162\n      jumpi\n        /* \"contracts/UniswapV2Pair_flattened.sol\":17982:18020  _safeTransfer(_token0, to, amount0Out) */\n      tag_162\n        /* \"contracts/UniswapV2Pair_flattened.sol\":17996:18003  _token0 */\n      dup3\n        /* \"contracts/UniswapV2Pair_flattened.sol\":18005:18007  to */\n      dup11\n        /* \"contracts/UniswapV2Pair_flattened.sol\":18009:18019  amount0Out */\n      dup14\n        /* \"contracts/UniswapV2Pair_flattened.sol\":17982:17995  _safeTransfer */\n      tag_163\n        /* \"contracts/UniswapV2Pair_flattened.sol\":17982:18020  _safeTransfer(_token0, to, amount0Out) */\n      jump\t// in\n    tag_162:\n        /* \"contracts/UniswapV2Pair_flattened.sol\":18072:18086  amount1Out > 0 */\n      dup10\n      iszero\n        /* \"contracts/UniswapV2Pair_flattened.sol\":18068:18126  if (amount1Out > 0) _safeTransfer(_token1, to, amount1Out) */\n      tag_165\n      jumpi\n        /* \"contracts/UniswapV2Pair_flattened.sol\":18088:18126  _safeTransfer(_token1, to, amount1Out) */\n      tag_165\n        /* \"contracts/UniswapV2Pair_flattened.sol\":18102:18109  _token1 */\n      dup2\n        /* \"contracts/UniswapV2Pair_flattened.sol\":18111:18113  to */\n      dup11\n        /* \"contracts/UniswapV2Pair_flattened.sol\":18115:18125  amount1Out */\n      dup13\n        /* \"contracts/UniswapV2Pair_flattened.sol\":18088:18101  _safeTransfer */\n      tag_163\n        /* \"contracts/UniswapV2Pair_flattened.sol\":18088:18126  _safeTransfer(_token1, to, amount1Out) */\n      jump\t// in\n    tag_165:\n        /* \"contracts/UniswapV2Pair_flattened.sol\":18178:18193  data.length > 0 */\n      dup7\n      iszero\n        /* \"contracts/UniswapV2Pair_flattened.sol\":18174:18385  if (data.length > 0)... */\n      tag_166\n      jumpi\n        /* \"contracts/UniswapV2Pair_flattened.sol\":18211:18385  IUniswapV2Callee(to).uniswapV2Call(... */\n      mload(0x40)\n      shl(0xe2, 0x04347a17)\n      dup2\n      mstore\n      sub(shl(0xa0, 0x01), 0x01)\n        /* \"contracts/UniswapV2Pair_flattened.sol\":18211:18245  IUniswapV2Callee(to).uniswapV2Call */\n      dup11\n      and\n      swap1\n      0x10d1e85c\n      swap1\n        /* \"contracts/UniswapV2Pair_flattened.sol\":18211:18385  IUniswapV2Callee(to).uniswapV2Call(... */\n      tag_167\n      swap1\n        /* \"contracts/UniswapV2Pair_flattened.sol\":18267:18277  msg.sender */\n      caller\n      swap1\n        /* \"contracts/UniswapV2Pair_flattened.sol\":18299:18309  amount0Out */\n      dup16\n      swap1\n        /* \"contracts/UniswapV2Pair_flattened.sol\":18331:18341  amount1Out */\n      dup16\n      swap1\n        /* \"contracts/UniswapV2Pair_flattened.sol\":18363:18367  data */\n      dup15\n      swap1\n      dup15\n      swap1\n        /* \"contracts/UniswapV2Pair_flattened.sol\":18211:18385  IUniswapV2Callee(to).uniswapV2Call(... */\n      0x04\n      add\n      tag_168\n      jump\t// in\n    tag_167:\n      0x00\n      mload(0x40)\n      dup1\n      dup4\n      sub\n      dup2\n      0x00\n      dup8\n      dup1\n      extcodesize\n      iszero\n      dup1\n      iszero\n      tag_169\n      jumpi\n      0x00\n      dup1\n      revert\n    tag_169:\n      pop\n      gas\n      call\n      iszero\n      dup1\n      iszero\n      tag_171\n      jumpi\n      returndatasize\n      0x00\n      dup1\n      returndatacopy\n      revert(0x00, returndatasize)\n    tag_171:\n      pop\n      pop\n      pop\n      pop\n        /* \"contracts/UniswapV2Pair_flattened.sol\":18174:18385  if (data.length > 0)... */\n    tag_166:\n        /* \"contracts/UniswapV2Pair_flattened.sol\":18410:18450  IERC20(_token0).balanceOf(address(this)) */\n      mload(0x40)\n      shl(0xe0, 0x70a08231)\n      dup2\n      mstore\n        /* \"contracts/UniswapV2Pair_flattened.sol\":18444:18448  this */\n      address\n        /* \"contracts/UniswapV2Pair_flattened.sol\":18410:18450  IERC20(_token0).balanceOf(address(this)) */\n      0x04\n      dup3\n      add\n        /* \"#utility.yul\":4841:4892   */\n      mstore\n      sub(shl(0xa0, 0x01), 0x01)\n        /* \"contracts/UniswapV2Pair_flattened.sol\":18410:18435  IERC20(_token0).balanceOf */\n      dup4\n      and\n      swap1\n      0x70a08231\n      swap1\n        /* \"#utility.yul\":4814:4832   */\n      0x24\n      add\n        /* \"contracts/UniswapV2Pair_flattened.sol\":18410:18450  IERC20(_token0).balanceOf(address(this)) */\n      0x20\n      mload(0x40)\n      dup1\n      dup4\n      sub\n      dup2\n      dup7\n      dup1\n      extcodesize\n      iszero\n      dup1\n      iszero\n      tag_173\n      jumpi\n      0x00\n      dup1\n      revert\n    tag_173:\n      pop\n      gas\n      staticcall\n      iszero\n      dup1\n      iszero\n      tag_175\n      jumpi\n      returndatasize\n      0x00\n      dup1\n      returndatacopy\n      revert(0x00, returndatasize)\n    tag_175:\n      pop\n      pop\n      pop\n      pop\n      mload(0x40)\n      returndatasize\n      not(0x1f)\n      0x1f\n      dup3\n      add\n      and\n      dup3\n      add\n      dup1\n      0x40\n      mstore\n      pop\n      dup2\n      add\n      swap1\n      tag_176\n      swap2\n      swap1\n      tag_177\n      jump\t// in\n    tag_176:\n        /* \"contracts/UniswapV2Pair_flattened.sol\":18475:18515  IERC20(_token1).balanceOf(address(this)) */\n      mload(0x40)\n      shl(0xe0, 0x70a08231)\n      dup2\n      mstore\n        /* \"contracts/UniswapV2Pair_flattened.sol\":18509:18513  this */\n      address\n        /* \"contracts/UniswapV2Pair_flattened.sol\":18475:18515  IERC20(_token1).balanceOf(address(this)) */\n      0x04\n      dup3\n      add\n        /* \"#utility.yul\":4841:4892   */\n      mstore\n        /* \"contracts/UniswapV2Pair_flattened.sol\":18399:18450  balance0 = IERC20(_token0).balanceOf(address(this)) */\n      swap1\n      swap5\n      pop\n      sub(shl(0xa0, 0x01), 0x01)\n        /* \"contracts/UniswapV2Pair_flattened.sol\":18475:18500  IERC20(_token1).balanceOf */\n      dup3\n      and\n      swap1\n      0x70a08231\n      swap1\n        /* \"#utility.yul\":4814:4832   */\n      0x24\n      add\n        /* \"contracts/UniswapV2Pair_flattened.sol\":18475:18515  IERC20(_token1).balanceOf(address(this)) */\n      0x20\n      mload(0x40)\n      dup1\n      dup4\n      sub\n      dup2\n      dup7\n      dup1\n      extcodesize\n      iszero\n      dup1\n      iszero\n      tag_179\n      jumpi\n      0x00\n      dup1\n      revert\n    tag_179:\n      pop\n      gas\n      staticcall\n      iszero\n      dup1\n      iszero\n      tag_181\n      jumpi\n      returndatasize\n      0x00\n      dup1\n      returndatacopy\n      revert(0x00, returndatasize)\n    tag_181:\n      pop\n      pop\n      pop\n      pop\n      mload(0x40)\n      returndatasize\n      not(0x1f)\n      0x1f\n      dup3\n      add\n      and\n      dup3\n      add\n      dup1\n      0x40\n      mstore\n      pop\n      dup2\n      add\n      swap1\n      tag_182\n      swap2\n      swap1\n      tag_177\n      jump\t// in\n    tag_182:\n        /* \"contracts/UniswapV2Pair_flattened.sol\":18464:18515  balance1 = IERC20(_token1).balanceOf(address(this)) */\n      swap3\n      pop\n        /* \"contracts/UniswapV2Pair_flattened.sol\":10826:10827  _ */\n      pop\n      pop\n        /* \"contracts/UniswapV2Pair_flattened.sol\":18535:18552  uint256 amount0In */\n      0x00\n        /* \"contracts/UniswapV2Pair_flattened.sol\":18578:18588  amount0Out */\n      dup10\n        /* \"contracts/UniswapV2Pair_flattened.sol\":18566:18575  _reserve0 */\n      dup6\n      sub(shl(0x70, 0x01), 0x01)\n        /* \"contracts/UniswapV2Pair_flattened.sol\":18566:18588  _reserve0 - amount0Out */\n      and\n      tag_183\n      swap2\n      swap1\n      tag_184\n      jump\t// in\n    tag_183:\n        /* \"contracts/UniswapV2Pair_flattened.sol\":18555:18563  balance0 */\n      dup4\n        /* \"contracts/UniswapV2Pair_flattened.sol\":18555:18588  balance0 > _reserve0 - amount0Out */\n      gt\n        /* \"contracts/UniswapV2Pair_flattened.sol\":18555:18654  balance0 > _reserve0 - amount0Out... */\n      tag_185\n      jumpi\n        /* \"contracts/UniswapV2Pair_flattened.sol\":18653:18654  0 */\n      0x00\n        /* \"contracts/UniswapV2Pair_flattened.sol\":18555:18654  balance0 > _reserve0 - amount0Out... */\n      jump(tag_188)\n    tag_185:\n        /* \"contracts/UniswapV2Pair_flattened.sol\":18615:18637  _reserve0 - amount0Out */\n      tag_187\n        /* \"contracts/UniswapV2Pair_flattened.sol\":18627:18637  amount0Out */\n      dup11\n      sub(shl(0x70, 0x01), 0x01)\n        /* \"contracts/UniswapV2Pair_flattened.sol\":18615:18637  _reserve0 - amount0Out */\n      dup8\n      and\n      tag_184\n      jump\t// in\n    tag_187:\n        /* \"contracts/UniswapV2Pair_flattened.sol\":18603:18638  balance0 - (_reserve0 - amount0Out) */\n      tag_188\n      swap1\n        /* \"contracts/UniswapV2Pair_flattened.sol\":18603:18611  balance0 */\n      dup5\n        /* \"contracts/UniswapV2Pair_flattened.sol\":18603:18638  balance0 - (_reserve0 - amount0Out) */\n      tag_184\n      jump\t// in\n    tag_188:\n        /* \"contracts/UniswapV2Pair_flattened.sol\":18535:18654  uint256 amount0In = balance0 > _reserve0 - amount0Out... */\n      swap1\n      pop\n        /* \"contracts/UniswapV2Pair_flattened.sol\":18664:18681  uint256 amount1In */\n      0x00\n        /* \"contracts/UniswapV2Pair_flattened.sol\":18695:18717  _reserve1 - amount1Out */\n      tag_189\n        /* \"contracts/UniswapV2Pair_flattened.sol\":18707:18717  amount1Out */\n      dup11\n      sub(shl(0x70, 0x01), 0x01)\n        /* \"contracts/UniswapV2Pair_flattened.sol\":18695:18717  _reserve1 - amount1Out */\n      dup8\n      and\n      tag_184\n      jump\t// in\n    tag_189:\n        /* \"contracts/UniswapV2Pair_flattened.sol\":18684:18692  balance1 */\n      dup4\n        /* \"contracts/UniswapV2Pair_flattened.sol\":18684:18717  balance1 > _reserve1 - amount1Out */\n      gt\n        /* \"contracts/UniswapV2Pair_flattened.sol\":18684:18783  balance1 > _reserve1 - amount1Out... */\n      tag_190\n      jumpi\n        /* \"contracts/UniswapV2Pair_flattened.sol\":18782:18783  0 */\n      0x00\n        /* \"contracts/UniswapV2Pair_flattened.sol\":18684:18783  balance1 > _reserve1 - amount1Out... */\n      jump(tag_193)\n    tag_190:\n        /* \"contracts/UniswapV2Pair_flattened.sol\":18744:18766  _reserve1 - amount1Out */\n      tag_192\n        /* \"contracts/UniswapV2Pair_flattened.sol\":18756:18766  amount1Out */\n      dup11\n      sub(shl(0x70, 0x01), 0x01)\n        /* \"contracts/UniswapV2Pair_flattened.sol\":18744:18766  _reserve1 - amount1Out */\n      dup8\n      and\n      tag_184\n      jump\t// in\n    tag_192:\n        /* \"contracts/UniswapV2Pair_flattened.sol\":18732:18767  balance1 - (_reserve1 - amount1Out) */\n      tag_193\n      swap1\n        /* \"contracts/UniswapV2Pair_flattened.sol\":18732:18740  balance1 */\n      dup5\n        /* \"contracts/UniswapV2Pair_flattened.sol\":18732:18767  balance1 - (_reserve1 - amount1Out) */\n      tag_184\n      jump\t// in\n    tag_193:\n        /* \"contracts/UniswapV2Pair_flattened.sol\":18664:18783  uint256 amount1In = balance1 > _reserve1 - amount1Out... */\n      swap1\n      pop\n        /* \"contracts/UniswapV2Pair_flattened.sol\":18826:18827  0 */\n      0x00\n        /* \"contracts/UniswapV2Pair_flattened.sol\":18814:18823  amount0In */\n      dup3\n        /* \"contracts/UniswapV2Pair_flattened.sol\":18814:18827  amount0In > 0 */\n      gt\n        /* \"contracts/UniswapV2Pair_flattened.sol\":18814:18844  amount0In > 0 || amount1In > 0 */\n      dup1\n      tag_194\n      jumpi\n      pop\n        /* \"contracts/UniswapV2Pair_flattened.sol\":18843:18844  0 */\n      0x00\n        /* \"contracts/UniswapV2Pair_flattened.sol\":18831:18840  amount1In */\n      dup2\n        /* \"contracts/UniswapV2Pair_flattened.sol\":18831:18844  amount1In > 0 */\n      gt\n        /* \"contracts/UniswapV2Pair_flattened.sol\":18814:18844  amount0In > 0 || amount1In > 0 */\n    tag_194:\n        /* \"contracts/UniswapV2Pair_flattened.sol\":18793:18906  require(... */\n      tag_195\n      jumpi\n      mload(0x40)\n      shl(0xe5, 0x461bcd)\n      dup2\n      mstore\n        /* \"#utility.yul\":8191:8193   */\n      0x20\n        /* \"contracts/UniswapV2Pair_flattened.sol\":18793:18906  require(... */\n      0x04\n      dup3\n      add\n        /* \"#utility.yul\":8173:8194   */\n      mstore\n        /* \"#utility.yul\":8230:8232   */\n      0x24\n        /* \"#utility.yul\":8210:8228   */\n      dup1\n      dup3\n      add\n        /* \"#utility.yul\":8203:8233   */\n      mstore\n        /* \"#utility.yul\":8269:8303   */\n      0x556e697377617056323a20494e53554646494349454e545f494e5055545f414d\n        /* \"#utility.yul\":8249:8267   */\n      0x44\n      dup3\n      add\n        /* \"#utility.yul\":8242:8304   */\n      mstore\n      shl(0xe2, 0x13d55395)\n        /* \"#utility.yul\":8320:8338   */\n      0x64\n      dup3\n      add\n        /* \"#utility.yul\":8313:8347   */\n      mstore\n        /* \"#utility.yul\":8364:8383   */\n      0x84\n      add\n        /* \"contracts/UniswapV2Pair_flattened.sol\":18793:18906  require(... */\n      tag_145\n        /* \"#utility.yul\":8163:8389   */\n      jump\n        /* \"contracts/UniswapV2Pair_flattened.sol\":18793:18906  require(... */\n    tag_195:\n        /* \"contracts/UniswapV2Pair_flattened.sol\":19006:19030  uint256 balance0Adjusted */\n      0x00\n        /* \"contracts/UniswapV2Pair_flattened.sol\":19063:19071  TotalFee */\n      sload(0x09)\n        /* \"contracts/UniswapV2Pair_flattened.sol\":19051:19060  amount0In */\n      dup4\n        /* \"contracts/UniswapV2Pair_flattened.sol\":19051:19071  amount0In * TotalFee */\n      tag_198\n      swap2\n      swap1\n      tag_199\n      jump\t// in\n    tag_198:\n        /* \"contracts/UniswapV2Pair_flattened.sol\":19033:19048  balance0 * 1000 */\n      tag_200\n        /* \"contracts/UniswapV2Pair_flattened.sol\":19033:19041  balance0 */\n      dup7\n        /* \"contracts/UniswapV2Pair_flattened.sol\":19044:19048  1000 */\n      0x03e8\n        /* \"contracts/UniswapV2Pair_flattened.sol\":19033:19048  balance0 * 1000 */\n      tag_199\n      jump\t// in\n    tag_200:\n        /* \"contracts/UniswapV2Pair_flattened.sol\":19033:19071  balance0 * 1000 - amount0In * TotalFee */\n      tag_201\n      swap2\n      swap1\n      tag_184\n      jump\t// in\n    tag_201:\n        /* \"contracts/UniswapV2Pair_flattened.sol\":19006:19071  uint256 balance0Adjusted = balance0 * 1000 - amount0In * TotalFee */\n      swap1\n      pop\n        /* \"contracts/UniswapV2Pair_flattened.sol\":19085:19109  uint256 balance1Adjusted */\n      0x00\n        /* \"contracts/UniswapV2Pair_flattened.sol\":19142:19150  TotalFee */\n      sload(0x09)\n        /* \"contracts/UniswapV2Pair_flattened.sol\":19130:19139  amount1In */\n      dup4\n        /* \"contracts/UniswapV2Pair_flattened.sol\":19130:19150  amount1In * TotalFee */\n      tag_202\n      swap2\n      swap1\n      tag_199\n      jump\t// in\n    tag_202:\n        /* \"contracts/UniswapV2Pair_flattened.sol\":19112:19127  balance1 * 1000 */\n      tag_203\n        /* \"contracts/UniswapV2Pair_flattened.sol\":19112:19120  balance1 */\n      dup7\n        /* \"contracts/UniswapV2Pair_flattened.sol\":19123:19127  1000 */\n      0x03e8\n        /* \"contracts/UniswapV2Pair_flattened.sol\":19112:19127  balance1 * 1000 */\n      tag_199\n      jump\t// in\n    tag_203:\n        /* \"contracts/UniswapV2Pair_flattened.sol\":19112:19150  balance1 * 1000 - amount1In * TotalFee */\n      tag_204\n      swap2\n      swap1\n      tag_184\n      jump\t// in\n    tag_204:\n        /* \"contracts/UniswapV2Pair_flattened.sol\":19085:19150  uint256 balance1Adjusted = balance1 * 1000 - amount1In * TotalFee */\n      swap1\n      pop\n        /* \"contracts/UniswapV2Pair_flattened.sol\":19248:19278  uint256(_reserve0) * _reserve1 */\n      tag_205\n      sub(shl(0x70, 0x01), 0x01)\n      dup1\n      dup10\n      and\n      swap1\n        /* \"contracts/UniswapV2Pair_flattened.sol\":19248:19266  uint256(_reserve0) */\n      dup11\n      and\n        /* \"contracts/UniswapV2Pair_flattened.sol\":19248:19278  uint256(_reserve0) * _reserve1 */\n      tag_199\n      jump\t// in\n    tag_205:\n        /* \"contracts/UniswapV2Pair_flattened.sol\":19248:19284  uint256(_reserve0) * _reserve1 * 1e6 */\n      tag_206\n      swap1\n        /* \"contracts/UniswapV2Pair_flattened.sol\":19281:19284  1e6 */\n      0x0f4240\n        /* \"contracts/UniswapV2Pair_flattened.sol\":19248:19284  uint256(_reserve0) * _reserve1 * 1e6 */\n      tag_199\n      jump\t// in\n    tag_206:\n        /* \"contracts/UniswapV2Pair_flattened.sol\":19189:19224  balance0Adjusted * balance1Adjusted */\n      tag_207\n        /* \"contracts/UniswapV2Pair_flattened.sol\":19208:19224  balance1Adjusted */\n      dup3\n        /* \"contracts/UniswapV2Pair_flattened.sol\":19189:19205  balance0Adjusted */\n      dup5\n        /* \"contracts/UniswapV2Pair_flattened.sol\":19189:19224  balance0Adjusted * balance1Adjusted */\n      tag_199\n      jump\t// in\n    tag_207:\n        /* \"contracts/UniswapV2Pair_flattened.sol\":19189:19284  balance0Adjusted * balance1Adjusted >=... */\n      lt\n      iszero\n        /* \"contracts/UniswapV2Pair_flattened.sol\":19164:19330  require(... */\n      tag_208\n      jumpi\n      mload(0x40)\n      shl(0xe5, 0x461bcd)\n      dup2\n      mstore\n        /* \"#utility.yul\":10398:10400   */\n      0x20\n        /* \"contracts/UniswapV2Pair_flattened.sol\":19164:19330  require(... */\n      0x04\n      dup3\n      add\n        /* \"#utility.yul\":10380:10401   */\n      mstore\n        /* \"#utility.yul\":10437:10439   */\n      0x0c\n        /* \"#utility.yul\":10417:10435   */\n      0x24\n      dup3\n      add\n        /* \"#utility.yul\":10410:10440   */\n      mstore\n      shl(0xa0, 0x556e697377617056323a204b)\n        /* \"#utility.yul\":10456:10474   */\n      0x44\n      dup3\n      add\n        /* \"#utility.yul\":10449:10491   */\n      mstore\n        /* \"#utility.yul\":10508:10526   */\n      0x64\n      add\n        /* \"contracts/UniswapV2Pair_flattened.sol\":19164:19330  require(... */\n      tag_145\n        /* \"#utility.yul\":10370:10532   */\n      jump\n        /* \"contracts/UniswapV2Pair_flattened.sol\":19164:19330  require(... */\n    tag_208:\n        /* \"contracts/UniswapV2Pair_flattened.sol\":10826:10827  _ */\n      pop\n      pop\n        /* \"contracts/UniswapV2Pair_flattened.sol\":19351:19400  _update(balance0, balance1, _reserve0, _reserve1) */\n      tag_211\n        /* \"contracts/UniswapV2Pair_flattened.sol\":19359:19367  balance0 */\n      dup5\n        /* \"contracts/UniswapV2Pair_flattened.sol\":19369:19377  balance1 */\n      dup5\n        /* \"contracts/UniswapV2Pair_flattened.sol\":19379:19388  _reserve0 */\n      dup9\n        /* \"contracts/UniswapV2Pair_flattened.sol\":19390:19399  _reserve1 */\n      dup9\n        /* \"contracts/UniswapV2Pair_flattened.sol\":19351:19358  _update */\n      tag_212\n        /* \"contracts/UniswapV2Pair_flattened.sol\":19351:19400  _update(balance0, balance1, _reserve0, _reserve1) */\n      jump\t// in\n    tag_211:\n        /* \"contracts/UniswapV2Pair_flattened.sol\":19415:19481  Swap(msg.sender, amount0In, amount1In, amount0Out, amount1Out, to) */\n      0x40\n      dup1\n      mload\n        /* \"#utility.yul\":13799:13824   */\n      dup4\n      dup2\n      mstore\n        /* \"#utility.yul\":13855:13857   */\n      0x20\n        /* \"#utility.yul\":13840:13858   */\n      dup2\n      add\n        /* \"#utility.yul\":13833:13867   */\n      dup4\n      swap1\n      mstore\n        /* \"#utility.yul\":13883:13901   */\n      swap1\n      dup2\n      add\n        /* \"#utility.yul\":13876:13910   */\n      dup13\n      swap1\n      mstore\n        /* \"#utility.yul\":13941:13943   */\n      0x60\n        /* \"#utility.yul\":13926:13944   */\n      dup2\n      add\n        /* \"#utility.yul\":13919:13953   */\n      dup12\n      swap1\n      mstore\n      sub(shl(0xa0, 0x01), 0x01)\n        /* \"contracts/UniswapV2Pair_flattened.sol\":19415:19481  Swap(msg.sender, amount0In, amount1In, amount0Out, amount1Out, to) */\n      dup11\n      and\n      swap1\n        /* \"contracts/UniswapV2Pair_flattened.sol\":19420:19430  msg.sender */\n      caller\n      swap1\n        /* \"contracts/UniswapV2Pair_flattened.sol\":19415:19481  Swap(msg.sender, amount0In, amount1In, amount0Out, amount1Out, to) */\n      0xd78ad95fa46c994b6551d0da85fc275fe613ce37657fb8d5e3d130840159d822\n      swap1\n        /* \"#utility.yul\":13786:13789   */\n      0x80\n        /* \"#utility.yul\":13771:13790   */\n      add\n        /* \"contracts/UniswapV2Pair_flattened.sol\":19415:19481  Swap(msg.sender, amount0In, amount1In, amount0Out, amount1Out, to) */\n      mload(0x40)\n      dup1\n      swap2\n      sub\n      swap1\n      log3\n      pop\n      pop\n        /* \"contracts/UniswapV2Pair_flattened.sol\":10848:10849  1 */\n      0x01\n        /* \"contracts/UniswapV2Pair_flattened.sol\":10837:10845  unlocked */\n      0x0e\n        /* \"contracts/UniswapV2Pair_flattened.sol\":10837:10849  unlocked = 1 */\n      sstore\n      pop\n      pop\n      pop\n      pop\n      pop\n      pop\n      pop\n      pop\n      pop\n        /* \"contracts/UniswapV2Pair_flattened.sol\":17171:19488  function swap(... */\n      jump\t// out\n        /* \"contracts/UniswapV2Pair_flattened.sol\":10862:11180  function getReserves()... */\n    tag_47:\n        /* \"contracts/UniswapV2Pair_flattened.sol\":11085:11093  reserve0 */\n      sload(0x08)\n      sub(shl(0x70, 0x01), 0x01)\n      dup1\n      dup3\n      and\n      swap3\n      shl(0x70, 0x01)\n        /* \"contracts/UniswapV2Pair_flattened.sol\":11115:11123  reserve1 */\n      dup4\n      div\n      swap1\n      swap2\n      and\n      swap2\n      shl(0xe0, 0x01)\n        /* \"contracts/UniswapV2Pair_flattened.sol\":11155:11173  blockTimestampLast */\n      swap1\n      div\n      0xffffffff\n      and\n      swap1\n        /* \"contracts/UniswapV2Pair_flattened.sol\":10862:11180  function getReserves()... */\n      jump\t// out\n        /* \"contracts/UniswapV2Pair_flattened.sol\":4785:4963  function approve(... */\n    tag_53:\n        /* \"contracts/UniswapV2Pair_flattened.sol\":4883:4887  bool */\n      0x00\n        /* \"contracts/UniswapV2Pair_flattened.sol\":4899:4935  _approve(msg.sender, spender, value) */\n      tag_217\n        /* \"contracts/UniswapV2Pair_flattened.sol\":4908:4918  msg.sender */\n      caller\n        /* \"contracts/UniswapV2Pair_flattened.sol\":4920:4927  spender */\n      dup5\n        /* \"contracts/UniswapV2Pair_flattened.sol\":4929:4934  value */\n      dup5\n        /* \"contracts/UniswapV2Pair_flattened.sol\":4899:4907  _approve */\n      tag_218\n        /* \"contracts/UniswapV2Pair_flattened.sol\":4899:4935  _approve(msg.sender, spender, value) */\n      jump\t// in\n    tag_217:\n      pop\n        /* \"contracts/UniswapV2Pair_flattened.sol\":4952:4956  true */\n      0x01\n        /* \"contracts/UniswapV2Pair_flattened.sol\":4785:4963  function approve(... */\n      swap3\n      swap2\n      pop\n      pop\n      jump\t// out\n        /* \"contracts/UniswapV2Pair_flattened.sol\":5145:5459  function transferFrom(... */\n    tag_67:\n      sub(shl(0xa0, 0x01), 0x01)\n        /* \"contracts/UniswapV2Pair_flattened.sol\":5285:5300  allowance[from] */\n      dup4\n      and\n        /* \"contracts/UniswapV2Pair_flattened.sol\":5265:5269  bool */\n      0x00\n        /* \"contracts/UniswapV2Pair_flattened.sol\":5285:5300  allowance[from] */\n      swap1\n      dup2\n      mstore\n        /* \"contracts/UniswapV2Pair_flattened.sol\":5285:5294  allowance */\n      0x02\n        /* \"contracts/UniswapV2Pair_flattened.sol\":5285:5300  allowance[from] */\n      0x20\n      swap1\n      dup2\n      mstore\n      0x40\n      dup1\n      dup4\n      keccak256\n        /* \"contracts/UniswapV2Pair_flattened.sol\":5301:5311  msg.sender */\n      caller\n        /* \"contracts/UniswapV2Pair_flattened.sol\":5285:5312  allowance[from][msg.sender] */\n      dup5\n      mstore\n      swap1\n      swap2\n      mstore\n      dup2\n      keccak256\n      sload\n      not(0x00)\n        /* \"contracts/UniswapV2Pair_flattened.sol\":5285:5333  allowance[from][msg.sender] != type(uint256).max */\n      eq\n        /* \"contracts/UniswapV2Pair_flattened.sol\":5281:5396  if (allowance[from][msg.sender] != type(uint256).max) {... */\n      tag_220\n      jumpi\n      sub(shl(0xa0, 0x01), 0x01)\n        /* \"contracts/UniswapV2Pair_flattened.sol\":5349:5364  allowance[from] */\n      dup5\n      and\n      0x00\n      swap1\n      dup2\n      mstore\n        /* \"contracts/UniswapV2Pair_flattened.sol\":5349:5358  allowance */\n      0x02\n        /* \"contracts/UniswapV2Pair_flattened.sol\":5349:5364  allowance[from] */\n      0x20\n      swap1\n      dup2\n      mstore\n      0x40\n      dup1\n      dup4\n      keccak256\n        /* \"contracts/UniswapV2Pair_flattened.sol\":5365:5375  msg.sender */\n      caller\n        /* \"contracts/UniswapV2Pair_flattened.sol\":5349:5376  allowance[from][msg.sender] */\n      dup5\n      mstore\n      swap1\n      swap2\n      mstore\n      dup2\n      keccak256\n        /* \"contracts/UniswapV2Pair_flattened.sol\":5349:5385  allowance[from][msg.sender] -= value */\n      dup1\n      sload\n        /* \"contracts/UniswapV2Pair_flattened.sol\":5380:5385  value */\n      dup5\n      swap3\n        /* \"contracts/UniswapV2Pair_flattened.sol\":5349:5364  allowance[from] */\n      swap1\n        /* \"contracts/UniswapV2Pair_flattened.sol\":5349:5385  allowance[from][msg.sender] -= value */\n      tag_221\n      swap1\n        /* \"contracts/UniswapV2Pair_flattened.sol\":5380:5385  value */\n      dup5\n      swap1\n        /* \"contracts/UniswapV2Pair_flattened.sol\":5349:5385  allowance[from][msg.sender] -= value */\n      tag_184\n      jump\t// in\n    tag_221:\n      swap1\n      swap2\n      sstore\n      pop\n      pop\n        /* \"contracts/UniswapV2Pair_flattened.sol\":5281:5396  if (allowance[from][msg.sender] != type(uint256).max) {... */\n    tag_220:\n        /* \"contracts/UniswapV2Pair_flattened.sol\":5405:5431  _transfer(from, to, value) */\n      tag_222\n        /* \"contracts/UniswapV2Pair_flattened.sol\":5415:5419  from */\n      dup5\n        /* \"contracts/UniswapV2Pair_flattened.sol\":5421:5423  to */\n      dup5\n        /* \"contracts/UniswapV2Pair_flattened.sol\":5425:5430  value */\n      dup5\n        /* \"contracts/UniswapV2Pair_flattened.sol\":5405:5414  _transfer */\n      tag_223\n        /* \"contracts/UniswapV2Pair_flattened.sol\":5405:5431  _transfer(from, to, value) */\n      jump\t// in\n    tag_222:\n      pop\n        /* \"contracts/UniswapV2Pair_flattened.sol\":5448:5452  true */\n      0x01\n        /* \"contracts/UniswapV2Pair_flattened.sol\":5145:5459  function transferFrom(... */\n      swap4\n      swap3\n      pop\n      pop\n      pop\n      jump\t// out\n        /* \"contracts/UniswapV2Pair_flattened.sol\":11767:11982  function initialize(address _token0, address _token1) external override {... */\n    tag_83:\n        /* \"contracts/UniswapV2Pair_flattened.sol\":11871:11878  factory */\n      and(sub(shl(0xa0, 0x01), 0x01), sload(0x05))\n        /* \"contracts/UniswapV2Pair_flattened.sol\":11857:11867  msg.sender */\n      caller\n        /* \"contracts/UniswapV2Pair_flattened.sol\":11857:11878  msg.sender == factory */\n      eq\n        /* \"contracts/UniswapV2Pair_flattened.sol\":11849:11903  require(msg.sender == factory, \"UniswapV2: FORBIDDEN\") */\n      tag_225\n      jumpi\n      mload(0x40)\n      shl(0xe5, 0x461bcd)\n      dup2\n      mstore\n        /* \"#utility.yul\":11557:11559   */\n      0x20\n        /* \"contracts/UniswapV2Pair_flattened.sol\":11849:11903  require(msg.sender == factory, \"UniswapV2: FORBIDDEN\") */\n      0x04\n      dup3\n      add\n        /* \"#utility.yul\":11539:11560   */\n      mstore\n        /* \"#utility.yul\":11596:11598   */\n      0x14\n        /* \"#utility.yul\":11576:11594   */\n      0x24\n      dup3\n      add\n        /* \"#utility.yul\":11569:11599   */\n      mstore\n      shl(0x61, 0x2ab734b9bbb0b82b191d102327a92124a22222a7)\n        /* \"#utility.yul\":11615:11633   */\n      0x44\n      dup3\n      add\n        /* \"#utility.yul\":11608:11658   */\n      mstore\n        /* \"#utility.yul\":11675:11693   */\n      0x64\n      add\n        /* \"contracts/UniswapV2Pair_flattened.sol\":11849:11903  require(msg.sender == factory, \"UniswapV2: FORBIDDEN\") */\n      tag_145\n        /* \"#utility.yul\":11529:11699   */\n      jump\n        /* \"contracts/UniswapV2Pair_flattened.sol\":11849:11903  require(msg.sender == factory, \"UniswapV2: FORBIDDEN\") */\n    tag_225:\n        /* \"contracts/UniswapV2Pair_flattened.sol\":11933:11939  token0 */\n      0x06\n        /* \"contracts/UniswapV2Pair_flattened.sol\":11933:11949  token0 = _token0 */\n      dup1\n      sload\n      sub(shl(0xa0, 0x01), 0x01)\n      swap4\n      dup5\n      and\n      not(sub(shl(0xa0, 0x01), 0x01))\n      swap2\n      dup3\n      and\n      or\n      swap1\n      swap2\n      sstore\n        /* \"contracts/UniswapV2Pair_flattened.sol\":11959:11965  token1 */\n      0x07\n        /* \"contracts/UniswapV2Pair_flattened.sol\":11959:11975  token1 = _token1 */\n      dup1\n      sload\n      swap3\n      swap1\n      swap4\n      and\n      swap2\n      and\n      or\n      swap1\n      sstore\n        /* \"contracts/UniswapV2Pair_flattened.sol\":11767:11982  function initialize(address _token0, address _token1) external override {... */\n      jump\t// out\n        /* \"contracts/UniswapV2Pair_flattened.sol\":14203:15497  function mint(... */\n    tag_96:\n        /* \"contracts/UniswapV2Pair_flattened.sol\":14275:14292  uint256 liquidity */\n      0x00\n        /* \"contracts/UniswapV2Pair_flattened.sol\":10759:10767  unlocked */\n      sload(0x0e)\n        /* \"contracts/UniswapV2Pair_flattened.sol\":10771:10772  1 */\n      0x01\n        /* \"contracts/UniswapV2Pair_flattened.sol\":10759:10772  unlocked == 1 */\n      eq\n        /* \"contracts/UniswapV2Pair_flattened.sol\":10751:10794  require(unlocked == 1, \"UniswapV2: LOCKED\") */\n      tag_229\n      jumpi\n      mload(0x40)\n      shl(0xe5, 0x461bcd)\n      dup2\n      mstore\n      0x04\n      add\n      tag_145\n      swap1\n      tag_146\n      jump\t// in\n    tag_229:\n        /* \"contracts/UniswapV2Pair_flattened.sol\":10815:10816  0 */\n      0x00\n        /* \"contracts/UniswapV2Pair_flattened.sol\":10804:10812  unlocked */\n      0x0e\n        /* \"contracts/UniswapV2Pair_flattened.sol\":10804:10816  unlocked = 0 */\n      dup2\n      swap1\n      sstore\n        /* \"contracts/UniswapV2Pair_flattened.sol\":10815:10816  0 */\n      dup1\n        /* \"contracts/UniswapV2Pair_flattened.sol\":14347:14360  getReserves() */\n      tag_232\n        /* \"contracts/UniswapV2Pair_flattened.sol\":14347:14358  getReserves */\n      tag_47\n        /* \"contracts/UniswapV2Pair_flattened.sol\":14347:14360  getReserves() */\n      jump\t// in\n    tag_232:\n      pop\n        /* \"contracts/UniswapV2Pair_flattened.sol\":14411:14417  token0 */\n      sload(0x06)\n        /* \"contracts/UniswapV2Pair_flattened.sol\":14404:14443  IERC20(token0).balanceOf(address(this)) */\n      mload(0x40)\n      shl(0xe0, 0x70a08231)\n      dup2\n      mstore\n        /* \"contracts/UniswapV2Pair_flattened.sol\":14437:14441  this */\n      address\n        /* \"contracts/UniswapV2Pair_flattened.sol\":14404:14443  IERC20(token0).balanceOf(address(this)) */\n      0x04\n      dup3\n      add\n        /* \"#utility.yul\":4841:4892   */\n      mstore\n        /* \"contracts/UniswapV2Pair_flattened.sol\":14304:14360  (uint112 _reserve0, uint112 _reserve1, ) = getReserves() */\n      swap3\n      swap5\n      pop\n      swap1\n      swap3\n      pop\n        /* \"contracts/UniswapV2Pair_flattened.sol\":14385:14401  uint256 balance0 */\n      0x00\n      swap2\n      sub(shl(0xa0, 0x01), 0x01)\n        /* \"contracts/UniswapV2Pair_flattened.sol\":14411:14417  token0 */\n      swap1\n      swap2\n      and\n      swap1\n        /* \"contracts/UniswapV2Pair_flattened.sol\":14404:14428  IERC20(token0).balanceOf */\n      0x70a08231\n      swap1\n        /* \"#utility.yul\":4814:4832   */\n      0x24\n      add\n        /* \"contracts/UniswapV2Pair_flattened.sol\":14404:14443  IERC20(token0).balanceOf(address(this)) */\n      0x20\n      mload(0x40)\n      dup1\n      dup4\n      sub\n      dup2\n      dup7\n      dup1\n      extcodesize\n      iszero\n      dup1\n      iszero\n      tag_234\n      jumpi\n      0x00\n      dup1\n      revert\n    tag_234:\n      pop\n      gas\n      staticcall\n      iszero\n      dup1\n      iszero\n      tag_236\n      jumpi\n      returndatasize\n      0x00\n      dup1\n      returndatacopy\n      revert(0x00, returndatasize)\n    tag_236:\n      pop\n      pop\n      pop\n      pop\n      mload(0x40)\n      returndatasize\n      not(0x1f)\n      0x1f\n      dup3\n      add\n      and\n      dup3\n      add\n      dup1\n      0x40\n      mstore\n      pop\n      dup2\n      add\n      swap1\n      tag_237\n      swap2\n      swap1\n      tag_177\n      jump\t// in\n    tag_237:\n        /* \"contracts/UniswapV2Pair_flattened.sol\":14479:14485  token1 */\n      sload(0x07)\n        /* \"contracts/UniswapV2Pair_flattened.sol\":14472:14511  IERC20(token1).balanceOf(address(this)) */\n      mload(0x40)\n      shl(0xe0, 0x70a08231)\n      dup2\n      mstore\n        /* \"contracts/UniswapV2Pair_flattened.sol\":14505:14509  this */\n      address\n        /* \"contracts/UniswapV2Pair_flattened.sol\":14472:14511  IERC20(token1).balanceOf(address(this)) */\n      0x04\n      dup3\n      add\n        /* \"#utility.yul\":4841:4892   */\n      mstore\n        /* \"contracts/UniswapV2Pair_flattened.sol\":14385:14443  uint256 balance0 = IERC20(token0).balanceOf(address(this)) */\n      swap2\n      swap3\n      pop\n        /* \"contracts/UniswapV2Pair_flattened.sol\":14453:14469  uint256 balance1 */\n      0x00\n      swap2\n      sub(shl(0xa0, 0x01), 0x01)\n        /* \"contracts/UniswapV2Pair_flattened.sol\":14479:14485  token1 */\n      swap1\n      swap2\n      and\n      swap1\n        /* \"contracts/UniswapV2Pair_flattened.sol\":14472:14496  IERC20(token1).balanceOf */\n      0x70a08231\n      swap1\n        /* \"#utility.yul\":4814:4832   */\n      0x24\n      add\n        /* \"contracts/UniswapV2Pair_flattened.sol\":14472:14511  IERC20(token1).balanceOf(address(this)) */\n      0x20\n      mload(0x40)\n      dup1\n      dup4\n      sub\n      dup2\n      dup7\n      dup1\n      extcodesize\n      iszero\n      dup1\n      iszero\n      tag_239\n      jumpi\n      0x00\n      dup1\n      revert\n    tag_239:\n      pop\n      gas\n      staticcall\n      iszero\n      dup1\n      iszero\n      tag_241\n      jumpi\n      returndatasize\n      0x00\n      dup1\n      returndatacopy\n      revert(0x00, returndatasize)\n    tag_241:\n      pop\n      pop\n      pop\n      pop\n      mload(0x40)\n      returndatasize\n      not(0x1f)\n      0x1f\n      dup3\n      add\n      and\n      dup3\n      add\n      dup1\n      0x40\n      mstore\n      pop\n      dup2\n      add\n      swap1\n      tag_242\n      swap2\n      swap1\n      tag_177\n      jump\t// in\n    tag_242:\n        /* \"contracts/UniswapV2Pair_flattened.sol\":14453:14511  uint256 balance1 = IERC20(token1).balanceOf(address(this)) */\n      swap1\n      pop\n        /* \"contracts/UniswapV2Pair_flattened.sol\":14521:14536  uint256 amount0 */\n      0x00\n        /* \"contracts/UniswapV2Pair_flattened.sol\":14539:14559  balance0 - _reserve0 */\n      tag_243\n      sub(shl(0x70, 0x01), 0x01)\n      dup7\n      and\n        /* \"contracts/UniswapV2Pair_flattened.sol\":14539:14547  balance0 */\n      dup5\n        /* \"contracts/UniswapV2Pair_flattened.sol\":14539:14559  balance0 - _reserve0 */\n      tag_184\n      jump\t// in\n    tag_243:\n        /* \"contracts/UniswapV2Pair_flattened.sol\":14521:14559  uint256 amount0 = balance0 - _reserve0 */\n      swap1\n      pop\n        /* \"contracts/UniswapV2Pair_flattened.sol\":14569:14584  uint256 amount1 */\n      0x00\n        /* \"contracts/UniswapV2Pair_flattened.sol\":14587:14607  balance1 - _reserve1 */\n      tag_244\n      sub(shl(0x70, 0x01), 0x01)\n      dup7\n      and\n        /* \"contracts/UniswapV2Pair_flattened.sol\":14587:14595  balance1 */\n      dup5\n        /* \"contracts/UniswapV2Pair_flattened.sol\":14587:14607  balance1 - _reserve1 */\n      tag_184\n      jump\t// in\n    tag_244:\n        /* \"contracts/UniswapV2Pair_flattened.sol\":14569:14607  uint256 amount1 = balance1 - _reserve1 */\n      swap1\n      pop\n        /* \"contracts/UniswapV2Pair_flattened.sol\":14618:14628  bool feeOn */\n      0x00\n        /* \"contracts/UniswapV2Pair_flattened.sol\":14631:14661  _mintFee(_reserve0, _reserve1) */\n      tag_245\n        /* \"contracts/UniswapV2Pair_flattened.sol\":14640:14649  _reserve0 */\n      dup8\n        /* \"contracts/UniswapV2Pair_flattened.sol\":14651:14660  _reserve1 */\n      dup8\n        /* \"contracts/UniswapV2Pair_flattened.sol\":14631:14639  _mintFee */\n      tag_246\n        /* \"contracts/UniswapV2Pair_flattened.sol\":14631:14661  _mintFee(_reserve0, _reserve1) */\n      jump\t// in\n    tag_245:\n        /* \"contracts/UniswapV2Pair_flattened.sol\":14671:14691  uint256 _totalSupply */\n      0x00\n        /* \"contracts/UniswapV2Pair_flattened.sol\":14694:14705  totalSupply */\n      sload\n        /* \"contracts/UniswapV2Pair_flattened.sol\":14618:14661  bool feeOn = _mintFee(_reserve0, _reserve1) */\n      swap1\n      swap2\n      pop\n        /* \"contracts/UniswapV2Pair_flattened.sol\":14797:14814  _totalSupply == 0 */\n      dup1\n        /* \"contracts/UniswapV2Pair_flattened.sol\":14793:15179  if (_totalSupply == 0) {... */\n      tag_247\n      jumpi\n        /* \"contracts/UniswapV2Pair_flattened.sol\":9846:9853  10 ** 3 */\n      0x03e8\n        /* \"contracts/UniswapV2Pair_flattened.sol\":14842:14870  Math.sqrt(amount0 * amount1) */\n      tag_248\n        /* \"contracts/UniswapV2Pair_flattened.sol\":14852:14869  amount0 * amount1 */\n      tag_249\n        /* \"contracts/UniswapV2Pair_flattened.sol\":14862:14869  amount1 */\n      dup6\n        /* \"contracts/UniswapV2Pair_flattened.sol\":14852:14859  amount0 */\n      dup8\n        /* \"contracts/UniswapV2Pair_flattened.sol\":14852:14869  amount0 * amount1 */\n      tag_199\n      jump\t// in\n    tag_249:\n        /* \"contracts/UniswapV2Pair_flattened.sol\":14842:14851  Math.sqrt */\n      tag_250\n        /* \"contracts/UniswapV2Pair_flattened.sol\":14842:14870  Math.sqrt(amount0 * amount1) */\n      jump\t// in\n    tag_248:\n        /* \"contracts/UniswapV2Pair_flattened.sol\":14842:14890  Math.sqrt(amount0 * amount1) - MINIMUM_LIQUIDITY */\n      tag_251\n      swap2\n      swap1\n      tag_184\n      jump\t// in\n    tag_251:\n        /* \"contracts/UniswapV2Pair_flattened.sol\":14830:14890  liquidity = Math.sqrt(amount0 * amount1) - MINIMUM_LIQUIDITY */\n      swap9\n      pop\n        /* \"contracts/UniswapV2Pair_flattened.sol\":14904:14940  _mint(address(0), MINIMUM_LIQUIDITY) */\n      tag_252\n        /* \"contracts/UniswapV2Pair_flattened.sol\":14918:14919  0 */\n      0x00\n        /* \"contracts/UniswapV2Pair_flattened.sol\":9846:9853  10 ** 3 */\n      0x03e8\n        /* \"contracts/UniswapV2Pair_flattened.sol\":14904:14909  _mint */\n      tag_253\n        /* \"contracts/UniswapV2Pair_flattened.sol\":14904:14940  _mint(address(0), MINIMUM_LIQUIDITY) */\n      jump\t// in\n    tag_252:\n        /* \"contracts/UniswapV2Pair_flattened.sol\":14793:15179  if (_totalSupply == 0) {... */\n      jump(tag_254)\n    tag_247:\n        /* \"contracts/UniswapV2Pair_flattened.sol\":15038:15168  Math.min(... */\n      tag_255\n      sub(shl(0x70, 0x01), 0x01)\n        /* \"contracts/UniswapV2Pair_flattened.sol\":15064:15100  (amount0 * _totalSupply) / _reserve0 */\n      dup10\n      and\n        /* \"contracts/UniswapV2Pair_flattened.sol\":15065:15087  amount0 * _totalSupply */\n      tag_256\n        /* \"contracts/UniswapV2Pair_flattened.sol\":15075:15087  _totalSupply */\n      dup4\n        /* \"contracts/UniswapV2Pair_flattened.sol\":15065:15072  amount0 */\n      dup8\n        /* \"contracts/UniswapV2Pair_flattened.sol\":15065:15087  amount0 * _totalSupply */\n      tag_199\n      jump\t// in\n    tag_256:\n        /* \"contracts/UniswapV2Pair_flattened.sol\":15064:15100  (amount0 * _totalSupply) / _reserve0 */\n      tag_257\n      swap2\n      swap1\n      tag_258\n      jump\t// in\n    tag_257:\n      sub(shl(0x70, 0x01), 0x01)\n        /* \"contracts/UniswapV2Pair_flattened.sol\":15118:15154  (amount1 * _totalSupply) / _reserve1 */\n      dup10\n      and\n        /* \"contracts/UniswapV2Pair_flattened.sol\":15119:15141  amount1 * _totalSupply */\n      tag_259\n        /* \"contracts/UniswapV2Pair_flattened.sol\":15129:15141  _totalSupply */\n      dup5\n        /* \"contracts/UniswapV2Pair_flattened.sol\":15119:15126  amount1 */\n      dup8\n        /* \"contracts/UniswapV2Pair_flattened.sol\":15119:15141  amount1 * _totalSupply */\n      tag_199\n      jump\t// in\n    tag_259:\n        /* \"contracts/UniswapV2Pair_flattened.sol\":15118:15154  (amount1 * _totalSupply) / _reserve1 */\n      tag_260\n      swap2\n      swap1\n      tag_258\n      jump\t// in\n    tag_260:\n        /* \"contracts/UniswapV2Pair_flattened.sol\":15038:15046  Math.min */\n      tag_261\n        /* \"contracts/UniswapV2Pair_flattened.sol\":15038:15168  Math.min(... */\n      jump\t// in\n    tag_255:\n        /* \"contracts/UniswapV2Pair_flattened.sol\":15026:15168  liquidity = Math.min(... */\n      swap9\n      pop\n        /* \"contracts/UniswapV2Pair_flattened.sol\":14793:15179  if (_totalSupply == 0) {... */\n    tag_254:\n        /* \"contracts/UniswapV2Pair_flattened.sol\":15208:15209  0 */\n      0x00\n        /* \"contracts/UniswapV2Pair_flattened.sol\":15196:15205  liquidity */\n      dup10\n        /* \"contracts/UniswapV2Pair_flattened.sol\":15196:15209  liquidity > 0 */\n      gt\n        /* \"contracts/UniswapV2Pair_flattened.sol\":15188:15254  require(liquidity > 0, \"UniswapV2: INSUFFICIENT_LIQUIDITY_MINTED\") */\n      tag_262\n      jumpi\n      mload(0x40)\n      shl(0xe5, 0x461bcd)\n      dup2\n      mstore\n        /* \"#utility.yul\":11148:11150   */\n      0x20\n        /* \"contracts/UniswapV2Pair_flattened.sol\":15188:15254  require(liquidity > 0, \"UniswapV2: INSUFFICIENT_LIQUIDITY_MINTED\") */\n      0x04\n      dup3\n      add\n        /* \"#utility.yul\":11130:11151   */\n      mstore\n        /* \"#utility.yul\":11187:11189   */\n      0x28\n        /* \"#utility.yul\":11167:11185   */\n      0x24\n      dup3\n      add\n        /* \"#utility.yul\":11160:11190   */\n      mstore\n        /* \"#utility.yul\":11226:11260   */\n      0x556e697377617056323a20494e53554646494349454e545f4c49515549444954\n        /* \"#utility.yul\":11206:11224   */\n      0x44\n      dup3\n      add\n        /* \"#utility.yul\":11199:11261   */\n      mstore\n      shl(0xc2, 0x1657d35253951151)\n        /* \"#utility.yul\":11277:11295   */\n      0x64\n      dup3\n      add\n        /* \"#utility.yul\":11270:11308   */\n      mstore\n        /* \"#utility.yul\":11325:11344   */\n      0x84\n      add\n        /* \"contracts/UniswapV2Pair_flattened.sol\":15188:15254  require(liquidity > 0, \"UniswapV2: INSUFFICIENT_LIQUIDITY_MINTED\") */\n      tag_145\n        /* \"#utility.yul\":11120:11350   */\n      jump\n        /* \"contracts/UniswapV2Pair_flattened.sol\":15188:15254  require(liquidity > 0, \"UniswapV2: INSUFFICIENT_LIQUIDITY_MINTED\") */\n    tag_262:\n        /* \"contracts/UniswapV2Pair_flattened.sol\":15264:15284  _mint(to, liquidity) */\n      tag_265\n        /* \"contracts/UniswapV2Pair_flattened.sol\":15270:15272  to */\n      dup11\n        /* \"contracts/UniswapV2Pair_flattened.sol\":15274:15283  liquidity */\n      dup11\n        /* \"contracts/UniswapV2Pair_flattened.sol\":15264:15269  _mint */\n      tag_253\n        /* \"contracts/UniswapV2Pair_flattened.sol\":15264:15284  _mint(to, liquidity) */\n      jump\t// in\n    tag_265:\n        /* \"contracts/UniswapV2Pair_flattened.sol\":15295:15344  _update(balance0, balance1, _reserve0, _reserve1) */\n      tag_266\n        /* \"contracts/UniswapV2Pair_flattened.sol\":15303:15311  balance0 */\n      dup7\n        /* \"contracts/UniswapV2Pair_flattened.sol\":15313:15321  balance1 */\n      dup7\n        /* \"contracts/UniswapV2Pair_flattened.sol\":15323:15332  _reserve0 */\n      dup11\n        /* \"contracts/UniswapV2Pair_flattened.sol\":15334:15343  _reserve1 */\n      dup11\n        /* \"contracts/UniswapV2Pair_flattened.sol\":15295:15302  _update */\n      tag_212\n        /* \"contracts/UniswapV2Pair_flattened.sol\":15295:15344  _update(balance0, balance1, _reserve0, _reserve1) */\n      jump\t// in\n    tag_266:\n        /* \"contracts/UniswapV2Pair_flattened.sol\":15358:15363  feeOn */\n      dup2\n        /* \"contracts/UniswapV2Pair_flattened.sol\":15354:15401  if (feeOn) kLast = uint256(reserve0) * reserve1 */\n      iszero\n      tag_267\n      jumpi\n        /* \"contracts/UniswapV2Pair_flattened.sol\":15393:15401  reserve1 */\n      sload(0x08)\n        /* \"contracts/UniswapV2Pair_flattened.sol\":15373:15401  uint256(reserve0) * reserve1 */\n      tag_268\n      swap1\n      sub(shl(0x70, 0x01), 0x01)\n      shl(0x70, 0x01)\n        /* \"contracts/UniswapV2Pair_flattened.sol\":15393:15401  reserve1 */\n      dup3\n      div\n      dup2\n      and\n      swap2\n        /* \"contracts/UniswapV2Pair_flattened.sol\":15381:15389  reserve0 */\n      and\n        /* \"contracts/UniswapV2Pair_flattened.sol\":15373:15401  uint256(reserve0) * reserve1 */\n      tag_199\n      jump\t// in\n    tag_268:\n        /* \"contracts/UniswapV2Pair_flattened.sol\":15365:15370  kLast */\n      0x0d\n        /* \"contracts/UniswapV2Pair_flattened.sol\":15365:15401  kLast = uint256(reserve0) * reserve1 */\n      sstore\n        /* \"contracts/UniswapV2Pair_flattened.sol\":15354:15401  if (feeOn) kLast = uint256(reserve0) * reserve1 */\n    tag_267:\n        /* \"contracts/UniswapV2Pair_flattened.sol\":15456:15490  Mint(msg.sender, amount0, amount1) */\n      0x40\n      dup1\n      mload\n        /* \"#utility.yul\":13489:13514   */\n      dup6\n      dup2\n      mstore\n        /* \"#utility.yul\":13545:13547   */\n      0x20\n        /* \"#utility.yul\":13530:13548   */\n      dup2\n      add\n        /* \"#utility.yul\":13523:13557   */\n      dup6\n      swap1\n      mstore\n        /* \"contracts/UniswapV2Pair_flattened.sol\":15461:15471  msg.sender */\n      caller\n      swap2\n        /* \"contracts/UniswapV2Pair_flattened.sol\":15456:15490  Mint(msg.sender, amount0, amount1) */\n      0x4c209b5fc8ad50758f13e2e1088ba56a560dff690a1c6fef26394f4c03821c4f\n      swap2\n        /* \"#utility.yul\":13462:13480   */\n      add\n        /* \"contracts/UniswapV2Pair_flattened.sol\":15456:15490  Mint(msg.sender, amount0, amount1) */\n      mload(0x40)\n      dup1\n      swap2\n      sub\n      swap1\n      log2\n      pop\n      pop\n        /* \"contracts/UniswapV2Pair_flattened.sol\":10848:10849  1 */\n      0x01\n        /* \"contracts/UniswapV2Pair_flattened.sol\":10837:10845  unlocked */\n      0x0e\n        /* \"contracts/UniswapV2Pair_flattened.sol\":10837:10849  unlocked = 1 */\n      sstore\n      pop\n        /* \"contracts/UniswapV2Pair_flattened.sol\":14203:15497  function mint(... */\n      swap5\n      swap7\n      swap6\n      pop\n      pop\n      pop\n      pop\n      pop\n      pop\n      jump\t// out\n        /* \"contracts/UniswapV2Pair_flattened.sol\":15606:17062  function burn(... */\n    tag_111:\n        /* \"contracts/UniswapV2Pair_flattened.sol\":15678:15693  uint256 amount0 */\n      0x00\n        /* \"contracts/UniswapV2Pair_flattened.sol\":15695:15710  uint256 amount1 */\n      dup1\n        /* \"contracts/UniswapV2Pair_flattened.sol\":10759:10767  unlocked */\n      sload(0x0e)\n        /* \"contracts/UniswapV2Pair_flattened.sol\":10771:10772  1 */\n      0x01\n        /* \"contracts/UniswapV2Pair_flattened.sol\":10759:10772  unlocked == 1 */\n      eq\n        /* \"contracts/UniswapV2Pair_flattened.sol\":10751:10794  require(unlocked == 1, \"UniswapV2: LOCKED\") */\n      tag_271\n      jumpi\n      mload(0x40)\n      shl(0xe5, 0x461bcd)\n      dup2\n      mstore\n      0x04\n      add\n      tag_145\n      swap1\n      tag_146\n      jump\t// in\n    tag_271:\n        /* \"contracts/UniswapV2Pair_flattened.sol\":10815:10816  0 */\n      0x00\n        /* \"contracts/UniswapV2Pair_flattened.sol\":10804:10812  unlocked */\n      0x0e\n        /* \"contracts/UniswapV2Pair_flattened.sol\":10804:10816  unlocked = 0 */\n      dup2\n      swap1\n      sstore\n        /* \"contracts/UniswapV2Pair_flattened.sol\":10815:10816  0 */\n      dup1\n        /* \"contracts/UniswapV2Pair_flattened.sol\":15765:15778  getReserves() */\n      tag_274\n        /* \"contracts/UniswapV2Pair_flattened.sol\":15765:15776  getReserves */\n      tag_47\n        /* \"contracts/UniswapV2Pair_flattened.sol\":15765:15778  getReserves() */\n      jump\t// in\n    tag_274:\n      pop\n        /* \"contracts/UniswapV2Pair_flattened.sol\":15821:15827  token0 */\n      sload(0x06)\n        /* \"contracts/UniswapV2Pair_flattened.sol\":15870:15876  token1 */\n      sload(0x07)\n        /* \"contracts/UniswapV2Pair_flattened.sol\":15920:15960  IERC20(_token0).balanceOf(address(this)) */\n      mload(0x40)\n      shl(0xe0, 0x70a08231)\n      dup2\n      mstore\n        /* \"contracts/UniswapV2Pair_flattened.sol\":15954:15958  this */\n      address\n        /* \"contracts/UniswapV2Pair_flattened.sol\":15920:15960  IERC20(_token0).balanceOf(address(this)) */\n      0x04\n      dup3\n      add\n        /* \"#utility.yul\":4841:4892   */\n      mstore\n        /* \"contracts/UniswapV2Pair_flattened.sol\":15722:15778  (uint112 _reserve0, uint112 _reserve1, ) = getReserves() */\n      swap4\n      swap6\n      pop\n      swap2\n      swap4\n      pop\n      sub(shl(0xa0, 0x01), 0x01)\n        /* \"contracts/UniswapV2Pair_flattened.sol\":15821:15827  token0 */\n      swap1\n      dup2\n      and\n      swap3\n        /* \"contracts/UniswapV2Pair_flattened.sol\":15870:15876  token1 */\n      swap2\n      and\n      swap1\n        /* \"contracts/UniswapV2Pair_flattened.sol\":15803:15818  address _token0 */\n      0x00\n      swap1\n        /* \"contracts/UniswapV2Pair_flattened.sol\":15821:15827  token0 */\n      dup4\n      swap1\n        /* \"contracts/UniswapV2Pair_flattened.sol\":15920:15945  IERC20(_token0).balanceOf */\n      0x70a08231\n      swap1\n        /* \"#utility.yul\":4814:4832   */\n      0x24\n      add\n        /* \"contracts/UniswapV2Pair_flattened.sol\":15920:15960  IERC20(_token0).balanceOf(address(this)) */\n      0x20\n      mload(0x40)\n      dup1\n      dup4\n      sub\n      dup2\n      dup7\n      dup1\n      extcodesize\n      iszero\n      dup1\n      iszero\n      tag_276\n      jumpi\n      0x00\n      dup1\n      revert\n    tag_276:\n      pop\n      gas\n      staticcall\n      iszero\n      dup1\n      iszero\n      tag_278\n      jumpi\n      returndatasize\n      0x00\n      dup1\n      returndatacopy\n      revert(0x00, returndatasize)\n    tag_278:\n      pop\n      pop\n      pop\n      pop\n      mload(0x40)\n      returndatasize\n      not(0x1f)\n      0x1f\n      dup3\n      add\n      and\n      dup3\n      add\n      dup1\n      0x40\n      mstore\n      pop\n      dup2\n      add\n      swap1\n      tag_279\n      swap2\n      swap1\n      tag_177\n      jump\t// in\n    tag_279:\n        /* \"contracts/UniswapV2Pair_flattened.sol\":15989:16029  IERC20(_token1).balanceOf(address(this)) */\n      mload(0x40)\n      shl(0xe0, 0x70a08231)\n      dup2\n      mstore\n        /* \"contracts/UniswapV2Pair_flattened.sol\":16023:16027  this */\n      address\n        /* \"contracts/UniswapV2Pair_flattened.sol\":15989:16029  IERC20(_token1).balanceOf(address(this)) */\n      0x04\n      dup3\n      add\n        /* \"#utility.yul\":4841:4892   */\n      mstore\n        /* \"contracts/UniswapV2Pair_flattened.sol\":15901:15960  uint256 balance0 = IERC20(_token0).balanceOf(address(this)) */\n      swap1\n      swap2\n      pop\n        /* \"contracts/UniswapV2Pair_flattened.sol\":15970:15986  uint256 balance1 */\n      0x00\n      swap1\n      sub(shl(0xa0, 0x01), 0x01)\n        /* \"contracts/UniswapV2Pair_flattened.sol\":15989:16014  IERC20(_token1).balanceOf */\n      dup5\n      and\n      swap1\n      0x70a08231\n      swap1\n        /* \"#utility.yul\":4814:4832   */\n      0x24\n      add\n        /* \"contracts/UniswapV2Pair_flattened.sol\":15989:16029  IERC20(_token1).balanceOf(address(this)) */\n      0x20\n      mload(0x40)\n      dup1\n      dup4\n      sub\n      dup2\n      dup7\n      dup1\n      extcodesize\n      iszero\n      dup1\n      iszero\n      tag_281\n      jumpi\n      0x00\n      dup1\n      revert\n    tag_281:\n      pop\n      gas\n      staticcall\n      iszero\n      dup1\n      iszero\n      tag_283\n      jumpi\n      returndatasize\n      0x00\n      dup1\n      returndatacopy\n      revert(0x00, returndatasize)\n    tag_283:\n      pop\n      pop\n      pop\n      pop\n      mload(0x40)\n      returndatasize\n      not(0x1f)\n      0x1f\n      dup3\n      add\n      and\n      dup3\n      add\n      dup1\n      0x40\n      mstore\n      pop\n      dup2\n      add\n      swap1\n      tag_284\n      swap2\n      swap1\n      tag_177\n      jump\t// in\n    tag_284:\n        /* \"contracts/UniswapV2Pair_flattened.sol\":16077:16081  this */\n      address\n        /* \"contracts/UniswapV2Pair_flattened.sol\":16039:16056  uint256 liquidity */\n      0x00\n        /* \"contracts/UniswapV2Pair_flattened.sol\":16059:16083  balanceOf[address(this)] */\n      swap1\n      dup2\n      mstore\n        /* \"contracts/UniswapV2Pair_flattened.sol\":16059:16068  balanceOf */\n      0x01\n        /* \"contracts/UniswapV2Pair_flattened.sol\":16059:16083  balanceOf[address(this)] */\n      0x20\n      mstore\n      0x40\n      dup2\n      keccak256\n      sload\n        /* \"contracts/UniswapV2Pair_flattened.sol\":15970:16029  uint256 balance1 = IERC20(_token1).balanceOf(address(this)) */\n      swap2\n      swap3\n      pop\n        /* \"contracts/UniswapV2Pair_flattened.sol\":16107:16137  _mintFee(_reserve0, _reserve1) */\n      tag_285\n        /* \"contracts/UniswapV2Pair_flattened.sol\":16116:16125  _reserve0 */\n      dup9\n        /* \"contracts/UniswapV2Pair_flattened.sol\":16127:16136  _reserve1 */\n      dup9\n        /* \"contracts/UniswapV2Pair_flattened.sol\":16107:16115  _mintFee */\n      tag_246\n        /* \"contracts/UniswapV2Pair_flattened.sol\":16107:16137  _mintFee(_reserve0, _reserve1) */\n      jump\t// in\n    tag_285:\n        /* \"contracts/UniswapV2Pair_flattened.sol\":16147:16167  uint256 _totalSupply */\n      0x00\n        /* \"contracts/UniswapV2Pair_flattened.sol\":16170:16181  totalSupply */\n      sload\n        /* \"contracts/UniswapV2Pair_flattened.sol\":16094:16137  bool feeOn = _mintFee(_reserve0, _reserve1) */\n      swap1\n      swap2\n      pop\n        /* \"contracts/UniswapV2Pair_flattened.sol\":16170:16181  totalSupply */\n      dup1\n        /* \"contracts/UniswapV2Pair_flattened.sol\":16280:16300  liquidity * balance0 */\n      tag_286\n        /* \"contracts/UniswapV2Pair_flattened.sol\":16292:16300  balance0 */\n      dup7\n        /* \"contracts/UniswapV2Pair_flattened.sol\":16280:16289  liquidity */\n      dup6\n        /* \"contracts/UniswapV2Pair_flattened.sol\":16280:16300  liquidity * balance0 */\n      tag_199\n      jump\t// in\n    tag_286:\n        /* \"contracts/UniswapV2Pair_flattened.sol\":16279:16316  (liquidity * balance0) / _totalSupply */\n      tag_287\n      swap2\n      swap1\n      tag_258\n      jump\t// in\n    tag_287:\n        /* \"contracts/UniswapV2Pair_flattened.sol\":16269:16316  amount0 = (liquidity * balance0) / _totalSupply */\n      swap11\n      pop\n        /* \"contracts/UniswapV2Pair_flattened.sol\":16409:16421  _totalSupply */\n      dup1\n        /* \"contracts/UniswapV2Pair_flattened.sol\":16385:16405  liquidity * balance1 */\n      tag_288\n        /* \"contracts/UniswapV2Pair_flattened.sol\":16397:16405  balance1 */\n      dup6\n        /* \"contracts/UniswapV2Pair_flattened.sol\":16385:16394  liquidity */\n      dup6\n        /* \"contracts/UniswapV2Pair_flattened.sol\":16385:16405  liquidity * balance1 */\n      tag_199\n      jump\t// in\n    tag_288:\n        /* \"contracts/UniswapV2Pair_flattened.sol\":16384:16421  (liquidity * balance1) / _totalSupply */\n      tag_289\n      swap2\n      swap1\n      tag_258\n      jump\t// in\n    tag_289:\n        /* \"contracts/UniswapV2Pair_flattened.sol\":16374:16421  amount1 = (liquidity * balance1) / _totalSupply */\n      swap10\n      pop\n        /* \"contracts/UniswapV2Pair_flattened.sol\":16510:16511  0 */\n      0x00\n        /* \"contracts/UniswapV2Pair_flattened.sol\":16500:16507  amount0 */\n      dup12\n        /* \"contracts/UniswapV2Pair_flattened.sol\":16500:16511  amount0 > 0 */\n      gt\n        /* \"contracts/UniswapV2Pair_flattened.sol\":16500:16526  amount0 > 0 && amount1 > 0 */\n      dup1\n      iszero\n      tag_290\n      jumpi\n      pop\n        /* \"contracts/UniswapV2Pair_flattened.sol\":16525:16526  0 */\n      0x00\n        /* \"contracts/UniswapV2Pair_flattened.sol\":16515:16522  amount1 */\n      dup11\n        /* \"contracts/UniswapV2Pair_flattened.sol\":16515:16526  amount1 > 0 */\n      gt\n        /* \"contracts/UniswapV2Pair_flattened.sol\":16500:16526  amount0 > 0 && amount1 > 0 */\n    tag_290:\n        /* \"contracts/UniswapV2Pair_flattened.sol\":16479:16592  require(... */\n      tag_291\n      jumpi\n      mload(0x40)\n      shl(0xe5, 0x461bcd)\n      dup2\n      mstore\n        /* \"#utility.yul\":10739:10741   */\n      0x20\n        /* \"contracts/UniswapV2Pair_flattened.sol\":16479:16592  require(... */\n      0x04\n      dup3\n      add\n        /* \"#utility.yul\":10721:10742   */\n      mstore\n        /* \"#utility.yul\":10778:10780   */\n      0x28\n        /* \"#utility.yul\":10758:10776   */\n      0x24\n      dup3\n      add\n        /* \"#utility.yul\":10751:10781   */\n      mstore\n        /* \"#utility.yul\":10817:10851   */\n      0x556e697377617056323a20494e53554646494349454e545f4c49515549444954\n        /* \"#utility.yul\":10797:10815   */\n      0x44\n      dup3\n      add\n        /* \"#utility.yul\":10790:10852   */\n      mstore\n      shl(0xc2, 0x1657d09554939151)\n        /* \"#utility.yul\":10868:10886   */\n      0x64\n      dup3\n      add\n        /* \"#utility.yul\":10861:10899   */\n      mstore\n        /* \"#utility.yul\":10916:10935   */\n      0x84\n      add\n        /* \"contracts/UniswapV2Pair_flattened.sol\":16479:16592  require(... */\n      tag_145\n        /* \"#utility.yul\":10711:10941   */\n      jump\n        /* \"contracts/UniswapV2Pair_flattened.sol\":16479:16592  require(... */\n    tag_291:\n        /* \"contracts/UniswapV2Pair_flattened.sol\":16602:16633  _burn(address(this), liquidity) */\n      tag_294\n        /* \"contracts/UniswapV2Pair_flattened.sol\":16616:16620  this */\n      address\n        /* \"contracts/UniswapV2Pair_flattened.sol\":16623:16632  liquidity */\n      dup5\n        /* \"contracts/UniswapV2Pair_flattened.sol\":16602:16607  _burn */\n      tag_295\n        /* \"contracts/UniswapV2Pair_flattened.sol\":16602:16633  _burn(address(this), liquidity) */\n      jump\t// in\n    tag_294:\n        /* \"contracts/UniswapV2Pair_flattened.sol\":16643:16678  _safeTransfer(_token0, to, amount0) */\n      tag_296\n        /* \"contracts/UniswapV2Pair_flattened.sol\":16657:16664  _token0 */\n      dup8\n        /* \"contracts/UniswapV2Pair_flattened.sol\":16666:16668  to */\n      dup14\n        /* \"contracts/UniswapV2Pair_flattened.sol\":16670:16677  amount0 */\n      dup14\n        /* \"contracts/UniswapV2Pair_flattened.sol\":16643:16656  _safeTransfer */\n      tag_163\n        /* \"contracts/UniswapV2Pair_flattened.sol\":16643:16678  _safeTransfer(_token0, to, amount0) */\n      jump\t// in\n    tag_296:\n        /* \"contracts/UniswapV2Pair_flattened.sol\":16688:16723  _safeTransfer(_token1, to, amount1) */\n      tag_297\n        /* \"contracts/UniswapV2Pair_flattened.sol\":16702:16709  _token1 */\n      dup7\n        /* \"contracts/UniswapV2Pair_flattened.sol\":16711:16713  to */\n      dup14\n        /* \"contracts/UniswapV2Pair_flattened.sol\":16715:16722  amount1 */\n      dup13\n        /* \"contracts/UniswapV2Pair_flattened.sol\":16688:16701  _safeTransfer */\n      tag_163\n        /* \"contracts/UniswapV2Pair_flattened.sol\":16688:16723  _safeTransfer(_token1, to, amount1) */\n      jump\t// in\n    tag_297:\n        /* \"contracts/UniswapV2Pair_flattened.sol\":16744:16784  IERC20(_token0).balanceOf(address(this)) */\n      mload(0x40)\n      shl(0xe0, 0x70a08231)\n      dup2\n      mstore\n        /* \"contracts/UniswapV2Pair_flattened.sol\":16778:16782  this */\n      address\n        /* \"contracts/UniswapV2Pair_flattened.sol\":16744:16784  IERC20(_token0).balanceOf(address(this)) */\n      0x04\n      dup3\n      add\n        /* \"#utility.yul\":4841:4892   */\n      mstore\n      sub(shl(0xa0, 0x01), 0x01)\n        /* \"contracts/UniswapV2Pair_flattened.sol\":16744:16769  IERC20(_token0).balanceOf */\n      dup9\n      and\n      swap1\n      0x70a08231\n      swap1\n        /* \"#utility.yul\":4814:4832   */\n      0x24\n      add\n        /* \"contracts/UniswapV2Pair_flattened.sol\":16744:16784  IERC20(_token0).balanceOf(address(this)) */\n      0x20\n      mload(0x40)\n      dup1\n      dup4\n      sub\n      dup2\n      dup7\n      dup1\n      extcodesize\n      iszero\n      dup1\n      iszero\n      tag_299\n      jumpi\n      0x00\n      dup1\n      revert\n    tag_299:\n      pop\n      gas\n      staticcall\n      iszero\n      dup1\n      iszero\n      tag_301\n      jumpi\n      returndatasize\n      0x00\n      dup1\n      returndatacopy\n      revert(0x00, returndatasize)\n    tag_301:\n      pop\n      pop\n      pop\n      pop\n      mload(0x40)\n      returndatasize\n      not(0x1f)\n      0x1f\n      dup3\n      add\n      and\n      dup3\n      add\n      dup1\n      0x40\n      mstore\n      pop\n      dup2\n      add\n      swap1\n      tag_302\n      swap2\n      swap1\n      tag_177\n      jump\t// in\n    tag_302:\n        /* \"contracts/UniswapV2Pair_flattened.sol\":16805:16845  IERC20(_token1).balanceOf(address(this)) */\n      mload(0x40)\n      shl(0xe0, 0x70a08231)\n      dup2\n      mstore\n        /* \"contracts/UniswapV2Pair_flattened.sol\":16839:16843  this */\n      address\n        /* \"contracts/UniswapV2Pair_flattened.sol\":16805:16845  IERC20(_token1).balanceOf(address(this)) */\n      0x04\n      dup3\n      add\n        /* \"#utility.yul\":4841:4892   */\n      mstore\n        /* \"contracts/UniswapV2Pair_flattened.sol\":16733:16784  balance0 = IERC20(_token0).balanceOf(address(this)) */\n      swap1\n      swap6\n      pop\n      sub(shl(0xa0, 0x01), 0x01)\n        /* \"contracts/UniswapV2Pair_flattened.sol\":16805:16830  IERC20(_token1).balanceOf */\n      dup8\n      and\n      swap1\n      0x70a08231\n      swap1\n        /* \"#utility.yul\":4814:4832   */\n      0x24\n      add\n        /* \"contracts/UniswapV2Pair_flattened.sol\":16805:16845  IERC20(_token1).balanceOf(address(this)) */\n      0x20\n      mload(0x40)\n      dup1\n      dup4\n      sub\n      dup2\n      dup7\n      dup1\n      extcodesize\n      iszero\n      dup1\n      iszero\n      tag_304\n      jumpi\n      0x00\n      dup1\n      revert\n    tag_304:\n      pop\n      gas\n      staticcall\n      iszero\n      dup1\n      iszero\n      tag_306\n      jumpi\n      returndatasize\n      0x00\n      dup1\n      returndatacopy\n      revert(0x00, returndatasize)\n    tag_306:\n      pop\n      pop\n      pop\n      pop\n      mload(0x40)\n      returndatasize\n      not(0x1f)\n      0x1f\n      dup3\n      add\n      and\n      dup3\n      add\n      dup1\n      0x40\n      mstore\n      pop\n      dup2\n      add\n      swap1\n      tag_307\n      swap2\n      swap1\n      tag_177\n      jump\t// in\n    tag_307:\n        /* \"contracts/UniswapV2Pair_flattened.sol\":16794:16845  balance1 = IERC20(_token1).balanceOf(address(this)) */\n      swap4\n      pop\n        /* \"contracts/UniswapV2Pair_flattened.sol\":16856:16905  _update(balance0, balance1, _reserve0, _reserve1) */\n      tag_308\n        /* \"contracts/UniswapV2Pair_flattened.sol\":16864:16872  balance0 */\n      dup6\n        /* \"contracts/UniswapV2Pair_flattened.sol\":16874:16882  balance1 */\n      dup6\n        /* \"contracts/UniswapV2Pair_flattened.sol\":16884:16893  _reserve0 */\n      dup12\n        /* \"contracts/UniswapV2Pair_flattened.sol\":16895:16904  _reserve1 */\n      dup12\n        /* \"contracts/UniswapV2Pair_flattened.sol\":16856:16863  _update */\n      tag_212\n        /* \"contracts/UniswapV2Pair_flattened.sol\":16856:16905  _update(balance0, balance1, _reserve0, _reserve1) */\n      jump\t// in\n    tag_308:\n        /* \"contracts/UniswapV2Pair_flattened.sol\":16919:16924  feeOn */\n      dup2\n        /* \"contracts/UniswapV2Pair_flattened.sol\":16915:16962  if (feeOn) kLast = uint256(reserve0) * reserve1 */\n      iszero\n      tag_309\n      jumpi\n        /* \"contracts/UniswapV2Pair_flattened.sol\":16954:16962  reserve1 */\n      sload(0x08)\n        /* \"contracts/UniswapV2Pair_flattened.sol\":16934:16962  uint256(reserve0) * reserve1 */\n      tag_310\n      swap1\n      sub(shl(0x70, 0x01), 0x01)\n      shl(0x70, 0x01)\n        /* \"contracts/UniswapV2Pair_flattened.sol\":16954:16962  reserve1 */\n      dup3\n      div\n      dup2\n      and\n      swap2\n        /* \"contracts/UniswapV2Pair_flattened.sol\":16942:16950  reserve0 */\n      and\n        /* \"contracts/UniswapV2Pair_flattened.sol\":16934:16962  uint256(reserve0) * reserve1 */\n      tag_199\n      jump\t// in\n    tag_310:\n        /* \"contracts/UniswapV2Pair_flattened.sol\":16926:16931  kLast */\n      0x0d\n        /* \"contracts/UniswapV2Pair_flattened.sol\":16926:16962  kLast = uint256(reserve0) * reserve1 */\n      sstore\n        /* \"contracts/UniswapV2Pair_flattened.sol\":16915:16962  if (feeOn) kLast = uint256(reserve0) * reserve1 */\n    tag_309:\n        /* \"contracts/UniswapV2Pair_flattened.sol\":17017:17055  Burn(msg.sender, amount0, amount1, to) */\n      0x40\n      dup1\n      mload\n        /* \"#utility.yul\":13489:13514   */\n      dup13\n      dup2\n      mstore\n        /* \"#utility.yul\":13545:13547   */\n      0x20\n        /* \"#utility.yul\":13530:13548   */\n      dup2\n      add\n        /* \"#utility.yul\":13523:13557   */\n      dup13\n      swap1\n      mstore\n      sub(shl(0xa0, 0x01), 0x01)\n        /* \"contracts/UniswapV2Pair_flattened.sol\":17017:17055  Burn(msg.sender, amount0, amount1, to) */\n      dup15\n      and\n      swap2\n        /* \"contracts/UniswapV2Pair_flattened.sol\":17022:17032  msg.sender */\n      caller\n      swap2\n        /* \"contracts/UniswapV2Pair_flattened.sol\":17017:17055  Burn(msg.sender, amount0, amount1, to) */\n      0xdccd412f0b1252819cb1fd330b93224ca42612892bb3f4f789976e6d81936496\n      swap2\n        /* \"#utility.yul\":13462:13480   */\n      add\n        /* \"contracts/UniswapV2Pair_flattened.sol\":17017:17055  Burn(msg.sender, amount0, amount1, to) */\n      mload(0x40)\n      dup1\n      swap2\n      sub\n      swap1\n      log3\n        /* \"contracts/UniswapV2Pair_flattened.sol\":10826:10827  _ */\n      pop\n      pop\n      pop\n      pop\n      pop\n      pop\n      pop\n      pop\n      pop\n        /* \"contracts/UniswapV2Pair_flattened.sol\":10848:10849  1 */\n      0x01\n        /* \"contracts/UniswapV2Pair_flattened.sol\":10837:10845  unlocked */\n      0x0e\n        /* \"contracts/UniswapV2Pair_flattened.sol\":10837:10849  unlocked = 1 */\n      dup2\n      swap1\n      sstore\n      pop\n        /* \"contracts/UniswapV2Pair_flattened.sol\":15606:17062  function burn(... */\n      swap2\n      pop\n      swap2\n      jump\t// out\n        /* \"contracts/UniswapV2Pair_flattened.sol\":4969:5139  function transfer(... */\n    tag_119:\n        /* \"contracts/UniswapV2Pair_flattened.sol\":5063:5067  bool */\n      0x00\n        /* \"contracts/UniswapV2Pair_flattened.sol\":5079:5111  _transfer(msg.sender, to, value) */\n      tag_217\n        /* \"contracts/UniswapV2Pair_flattened.sol\":5089:5099  msg.sender */\n      caller\n        /* \"contracts/UniswapV2Pair_flattened.sol\":5101:5103  to */\n      dup5\n        /* \"contracts/UniswapV2Pair_flattened.sol\":5105:5110  value */\n      dup5\n        /* \"contracts/UniswapV2Pair_flattened.sol\":5079:5088  _transfer */\n      tag_223\n        /* \"contracts/UniswapV2Pair_flattened.sol\":5079:5111  _transfer(msg.sender, to, value) */\n      jump\t// in\n        /* \"contracts/UniswapV2Pair_flattened.sol\":19534:19958  function skim(address to) external override lock {... */\n    tag_126:\n        /* \"contracts/UniswapV2Pair_flattened.sol\":10759:10767  unlocked */\n      sload(0x0e)\n        /* \"contracts/UniswapV2Pair_flattened.sol\":10771:10772  1 */\n      0x01\n        /* \"contracts/UniswapV2Pair_flattened.sol\":10759:10772  unlocked == 1 */\n      eq\n        /* \"contracts/UniswapV2Pair_flattened.sol\":10751:10794  require(unlocked == 1, \"UniswapV2: LOCKED\") */\n      tag_315\n      jumpi\n      mload(0x40)\n      shl(0xe5, 0x461bcd)\n      dup2\n      mstore\n      0x04\n      add\n      tag_145\n      swap1\n      tag_146\n      jump\t// in\n    tag_315:\n        /* \"contracts/UniswapV2Pair_flattened.sol\":10815:10816  0 */\n      0x00\n        /* \"contracts/UniswapV2Pair_flattened.sol\":10804:10812  unlocked */\n      0x0e\n        /* \"contracts/UniswapV2Pair_flattened.sol\":10804:10816  unlocked = 0 */\n      sstore\n        /* \"contracts/UniswapV2Pair_flattened.sol\":19611:19617  token0 */\n      sload(0x06)\n        /* \"contracts/UniswapV2Pair_flattened.sol\":19660:19666  token1 */\n      sload(0x07)\n        /* \"contracts/UniswapV2Pair_flattened.sol\":19798:19806  reserve0 */\n      sload(0x08)\n        /* \"contracts/UniswapV2Pair_flattened.sol\":19755:19795  IERC20(_token0).balanceOf(address(this)) */\n      mload(0x40)\n      shl(0xe0, 0x70a08231)\n      dup2\n      mstore\n        /* \"contracts/UniswapV2Pair_flattened.sol\":19789:19793  this */\n      address\n        /* \"contracts/UniswapV2Pair_flattened.sol\":19755:19795  IERC20(_token0).balanceOf(address(this)) */\n      0x04\n      dup3\n      add\n        /* \"#utility.yul\":4841:4892   */\n      mstore\n      sub(shl(0xa0, 0x01), 0x01)\n        /* \"contracts/UniswapV2Pair_flattened.sol\":19611:19617  token0 */\n      swap4\n      dup5\n      and\n      swap4\n        /* \"contracts/UniswapV2Pair_flattened.sol\":19660:19666  token1 */\n      swap1\n      swap3\n      and\n      swap2\n        /* \"contracts/UniswapV2Pair_flattened.sol\":19691:19816  _safeTransfer(... */\n      tag_318\n      swap2\n        /* \"contracts/UniswapV2Pair_flattened.sol\":19611:19617  token0 */\n      dup5\n      swap2\n        /* \"contracts/UniswapV2Pair_flattened.sol\":19739:19741  to */\n      dup7\n      swap2\n      sub(shl(0x70, 0x01), 0x01)\n        /* \"contracts/UniswapV2Pair_flattened.sol\":19798:19806  reserve0 */\n      and\n      swap1\n        /* \"contracts/UniswapV2Pair_flattened.sol\":19611:19617  token0 */\n      dup4\n      swap1\n        /* \"contracts/UniswapV2Pair_flattened.sol\":19755:19780  IERC20(_token0).balanceOf */\n      0x70a08231\n      swap1\n        /* \"#utility.yul\":4814:4832   */\n      0x24\n      add\n        /* \"contracts/UniswapV2Pair_flattened.sol\":19755:19795  IERC20(_token0).balanceOf(address(this)) */\n    tag_319:\n      0x20\n      mload(0x40)\n      dup1\n      dup4\n      sub\n      dup2\n      dup7\n      dup1\n      extcodesize\n      iszero\n      dup1\n      iszero\n      tag_320\n      jumpi\n      0x00\n      dup1\n      revert\n    tag_320:\n      pop\n      gas\n      staticcall\n      iszero\n      dup1\n      iszero\n      tag_322\n      jumpi\n      returndatasize\n      0x00\n      dup1\n      returndatacopy\n      revert(0x00, returndatasize)\n    tag_322:\n      pop\n      pop\n      pop\n      pop\n      mload(0x40)\n      returndatasize\n      not(0x1f)\n      0x1f\n      dup3\n      add\n      and\n      dup3\n      add\n      dup1\n      0x40\n      mstore\n      pop\n      dup2\n      add\n      swap1\n      tag_323\n      swap2\n      swap1\n      tag_177\n      jump\t// in\n    tag_323:\n        /* \"contracts/UniswapV2Pair_flattened.sol\":19755:19806  IERC20(_token0).balanceOf(address(this)) - reserve0 */\n      tag_324\n      swap2\n      swap1\n      tag_184\n      jump\t// in\n    tag_324:\n        /* \"contracts/UniswapV2Pair_flattened.sol\":19691:19704  _safeTransfer */\n      tag_163\n        /* \"contracts/UniswapV2Pair_flattened.sol\":19691:19816  _safeTransfer(... */\n      jump\t// in\n    tag_318:\n        /* \"contracts/UniswapV2Pair_flattened.sol\":19933:19941  reserve1 */\n      sload(0x08)\n        /* \"contracts/UniswapV2Pair_flattened.sol\":19890:19930  IERC20(_token1).balanceOf(address(this)) */\n      mload(0x40)\n      shl(0xe0, 0x70a08231)\n      dup2\n      mstore\n        /* \"contracts/UniswapV2Pair_flattened.sol\":19924:19928  this */\n      address\n        /* \"contracts/UniswapV2Pair_flattened.sol\":19890:19930  IERC20(_token1).balanceOf(address(this)) */\n      0x04\n      dup3\n      add\n        /* \"#utility.yul\":4841:4892   */\n      mstore\n        /* \"contracts/UniswapV2Pair_flattened.sol\":19826:19951  _safeTransfer(... */\n      tag_325\n      swap2\n        /* \"contracts/UniswapV2Pair_flattened.sol\":19853:19860  _token1 */\n      dup4\n      swap2\n        /* \"contracts/UniswapV2Pair_flattened.sol\":19874:19876  to */\n      dup7\n      swap2\n      shl(0x70, 0x01)\n        /* \"contracts/UniswapV2Pair_flattened.sol\":19933:19941  reserve1 */\n      swap1\n      div\n      sub(shl(0x70, 0x01), 0x01)\n      and\n      swap1\n      sub(shl(0xa0, 0x01), 0x01)\n        /* \"contracts/UniswapV2Pair_flattened.sol\":19890:19915  IERC20(_token1).balanceOf */\n      dup5\n      and\n      swap1\n      0x70a08231\n      swap1\n        /* \"#utility.yul\":4814:4832   */\n      0x24\n      add\n        /* \"contracts/UniswapV2Pair_flattened.sol\":19890:19930  IERC20(_token1).balanceOf(address(this)) */\n      tag_319\n        /* \"#utility.yul\":4796:4898   */\n      jump\n        /* \"contracts/UniswapV2Pair_flattened.sol\":19826:19951  _safeTransfer(... */\n    tag_325:\n      pop\n      pop\n        /* \"contracts/UniswapV2Pair_flattened.sol\":10848:10849  1 */\n      0x01\n        /* \"contracts/UniswapV2Pair_flattened.sol\":10837:10845  unlocked */\n      0x0e\n        /* \"contracts/UniswapV2Pair_flattened.sol\":10837:10849  unlocked = 1 */\n      sstore\n      pop\n        /* \"contracts/UniswapV2Pair_flattened.sol\":19534:19958  function skim(address to) external override lock {... */\n      jump\t// out\n        /* \"contracts/UniswapV2Pair_flattened.sol\":5465:6442  function permit(... */\n    tag_136:\n        /* \"contracts/UniswapV2Pair_flattened.sol\":5687:5702  block.timestamp */\n      timestamp\n        /* \"contracts/UniswapV2Pair_flattened.sol\":5675:5683  deadline */\n      dup5\n        /* \"contracts/UniswapV2Pair_flattened.sol\":5675:5702  deadline >= block.timestamp */\n      lt\n      iszero\n        /* \"contracts/UniswapV2Pair_flattened.sol\":5667:5725  require(deadline >= block.timestamp, \"UniswapV2: EXPIRED\") */\n      tag_333\n      jumpi\n      mload(0x40)\n      shl(0xe5, 0x461bcd)\n      dup2\n      mstore\n        /* \"#utility.yul\":9705:9707   */\n      0x20\n        /* \"contracts/UniswapV2Pair_flattened.sol\":5667:5725  require(deadline >= block.timestamp, \"UniswapV2: EXPIRED\") */\n      0x04\n      dup3\n      add\n        /* \"#utility.yul\":9687:9708   */\n      mstore\n        /* \"#utility.yul\":9744:9746   */\n      0x12\n        /* \"#utility.yul\":9724:9742   */\n      0x24\n      dup3\n      add\n        /* \"#utility.yul\":9717:9747   */\n      mstore\n      shl(0x72, 0x155b9a5cddd85c158c8e8811561412549151)\n        /* \"#utility.yul\":9763:9781   */\n      0x44\n      dup3\n      add\n        /* \"#utility.yul\":9756:9804   */\n      mstore\n        /* \"#utility.yul\":9821:9839   */\n      0x64\n      add\n        /* \"contracts/UniswapV2Pair_flattened.sol\":5667:5725  require(deadline >= block.timestamp, \"UniswapV2: EXPIRED\") */\n      tag_145\n        /* \"#utility.yul\":9677:9845   */\n      jump\n        /* \"contracts/UniswapV2Pair_flattened.sol\":5667:5725  require(deadline >= block.timestamp, \"UniswapV2: EXPIRED\") */\n    tag_333:\n        /* \"contracts/UniswapV2Pair_flattened.sol\":5837:5853  DOMAIN_SEPARATOR */\n      sload(0x03)\n      sub(shl(0xa0, 0x01), 0x01)\n        /* \"contracts/UniswapV2Pair_flattened.sol\":6074:6087  nonces[owner] */\n      dup9\n      and\n        /* \"contracts/UniswapV2Pair_flattened.sol\":5735:5749  bytes32 digest */\n      0x00\n        /* \"contracts/UniswapV2Pair_flattened.sol\":6074:6087  nonces[owner] */\n      swap1\n      dup2\n      mstore\n        /* \"contracts/UniswapV2Pair_flattened.sol\":6074:6080  nonces */\n      0x04\n        /* \"contracts/UniswapV2Pair_flattened.sol\":6074:6087  nonces[owner] */\n      0x20\n      mstore\n      0x40\n      dup2\n      keccak256\n        /* \"contracts/UniswapV2Pair_flattened.sol\":6074:6089  nonces[owner]++ */\n      dup1\n      sload\n        /* \"contracts/UniswapV2Pair_flattened.sol\":5735:5749  bytes32 digest */\n      swap2\n      swap3\n        /* \"contracts/UniswapV2Pair_flattened.sol\":5837:5853  DOMAIN_SEPARATOR */\n      swap2\n        /* \"contracts/UniswapV2Pair_flattened.sol\":3539:3605  0x6e71edae12b1b97f4d1f60370fef10105fa2faae0126114a169c64845d6126c9 */\n      0x6e71edae12b1b97f4d1f60370fef10105fa2faae0126114a169c64845d6126c9\n      swap2\n        /* \"contracts/UniswapV2Pair_flattened.sol\":5979:5984  owner */\n      dup12\n      swap2\n        /* \"contracts/UniswapV2Pair_flattened.sol\":6010:6017  spender */\n      dup12\n      swap2\n        /* \"contracts/UniswapV2Pair_flattened.sol\":6043:6048  value */\n      dup12\n      swap2\n        /* \"contracts/UniswapV2Pair_flattened.sol\":6074:6089  nonces[owner]++ */\n      swap1\n        /* \"contracts/UniswapV2Pair_flattened.sol\":5735:5749  bytes32 digest */\n      dup8\n        /* \"contracts/UniswapV2Pair_flattened.sol\":6074:6089  nonces[owner]++ */\n      tag_336\n      dup4\n      tag_337\n      jump\t// in\n    tag_336:\n      swap1\n      swap2\n      sstore\n      pop\n        /* \"contracts/UniswapV2Pair_flattened.sol\":5902:6145  abi.encode(... */\n      0x40\n      dup1\n      mload\n      0x20\n      dup2\n      add\n        /* \"#utility.yul\":6483:6508   */\n      swap7\n      swap1\n      swap7\n      mstore\n      sub(shl(0xa0, 0x01), 0x01)\n        /* \"#utility.yul\":6582:6597   */\n      swap5\n      dup6\n      and\n        /* \"#utility.yul\":6562:6580   */\n      swap1\n      dup7\n      add\n        /* \"#utility.yul\":6555:6598   */\n      mstore\n        /* \"#utility.yul\":6634:6649   */\n      swap3\n      swap1\n      swap2\n      and\n        /* \"#utility.yul\":6614:6632   */\n      0x60\n      dup5\n      add\n        /* \"#utility.yul\":6607:6650   */\n      mstore\n        /* \"#utility.yul\":6666:6684   */\n      0x80\n      dup4\n      add\n        /* \"#utility.yul\":6659:6693   */\n      mstore\n        /* \"#utility.yul\":6709:6728   */\n      0xa0\n      dup3\n      add\n        /* \"#utility.yul\":6702:6737   */\n      mstore\n        /* \"#utility.yul\":6753:6772   */\n      0xc0\n      dup2\n      add\n        /* \"#utility.yul\":6746:6781   */\n      dup8\n      swap1\n      mstore\n        /* \"#utility.yul\":6455:6474   */\n      0xe0\n      add\n        /* \"contracts/UniswapV2Pair_flattened.sol\":5902:6145  abi.encode(... */\n      mload(0x40)\n      0x20\n      dup2\n      dup4\n      sub\n      sub\n      dup2\n      mstore\n      swap1\n      0x40\n      mstore\n        /* \"contracts/UniswapV2Pair_flattened.sol\":5871:6163  keccak256(... */\n      dup1\n      mload\n      swap1\n      0x20\n      add\n      keccak256\n        /* \"contracts/UniswapV2Pair_flattened.sol\":5775:6177  abi.encodePacked(... */\n      add(0x20, mload(0x40))\n      tag_340\n      swap3\n      swap2\n      swap1\n      shl(0xf0, 0x1901)\n        /* \"#utility.yul\":4556:4583   */\n      dup2\n      mstore\n        /* \"#utility.yul\":4608:4609   */\n      0x02\n        /* \"#utility.yul\":4599:4610   */\n      dup2\n      add\n        /* \"#utility.yul\":4592:4619   */\n      swap3\n      swap1\n      swap3\n      mstore\n        /* \"#utility.yul\":4644:4646   */\n      0x22\n        /* \"#utility.yul\":4635:4647   */\n      dup3\n      add\n        /* \"#utility.yul\":4628:4656   */\n      mstore\n        /* \"#utility.yul\":4681:4683   */\n      0x42\n        /* \"#utility.yul\":4672:4684   */\n      add\n      swap1\n        /* \"#utility.yul\":4546:4690   */\n      jump\n        /* \"contracts/UniswapV2Pair_flattened.sol\":5775:6177  abi.encodePacked(... */\n    tag_340:\n      0x40\n      dup1\n      mload\n      not(0x1f)\n      dup2\n      dup5\n      sub\n      add\n      dup2\n      mstore\n      dup3\n      dup3\n      mstore\n        /* \"contracts/UniswapV2Pair_flattened.sol\":5752:6187  keccak256(... */\n      dup1\n      mload\n        /* \"contracts/UniswapV2Pair_flattened.sol\":5775:6177  abi.encodePacked(... */\n      0x20\n        /* \"contracts/UniswapV2Pair_flattened.sol\":5752:6187  keccak256(... */\n      swap2\n      dup3\n      add\n      keccak256\n        /* \"contracts/UniswapV2Pair_flattened.sol\":6197:6221  address recoveredAddress */\n      0x00\n        /* \"contracts/UniswapV2Pair_flattened.sol\":6224:6250  ecrecover(digest, v, r, s) */\n      dup1\n      dup6\n      mstore\n      swap2\n      dup5\n      add\n      dup1\n      dup5\n      mstore\n        /* \"#utility.yul\":7019:7044   */\n      dup2\n      swap1\n      mstore\n        /* \"#utility.yul\":7092:7096   */\n      0xff\n        /* \"#utility.yul\":7080:7097   */\n      dup9\n      and\n        /* \"#utility.yul\":7060:7078   */\n      swap3\n      dup5\n      add\n        /* \"#utility.yul\":7053:7098   */\n      swap3\n      swap1\n      swap3\n      mstore\n        /* \"#utility.yul\":7114:7132   */\n      0x60\n      dup4\n      add\n        /* \"#utility.yul\":7107:7141   */\n      dup7\n      swap1\n      mstore\n        /* \"#utility.yul\":7157:7175   */\n      0x80\n      dup4\n      add\n        /* \"#utility.yul\":7150:7184   */\n      dup6\n      swap1\n      mstore\n        /* \"contracts/UniswapV2Pair_flattened.sol\":5752:6187  keccak256(... */\n      swap1\n      swap3\n      pop\n        /* \"contracts/UniswapV2Pair_flattened.sol\":6197:6221  address recoveredAddress */\n      swap1\n        /* \"contracts/UniswapV2Pair_flattened.sol\":6224:6250  ecrecover(digest, v, r, s) */\n      0x01\n      swap1\n        /* \"#utility.yul\":6991:7010   */\n      0xa0\n      add\n        /* \"contracts/UniswapV2Pair_flattened.sol\":6224:6250  ecrecover(digest, v, r, s) */\n      0x20\n      mload(0x40)\n      0x20\n      dup2\n      sub\n      swap1\n      dup1\n      dup5\n      sub\n      swap1\n      dup6\n      gas\n      staticcall\n      iszero\n      dup1\n      iszero\n      tag_345\n      jumpi\n      returndatasize\n      0x00\n      dup1\n      returndatacopy\n      revert(0x00, returndatasize)\n    tag_345:\n      pop\n      pop\n      mload(add(not(0x1f), mload(0x40)))\n      swap2\n      pop\n      pop\n      sub(shl(0xa0, 0x01), 0x01)\n        /* \"contracts/UniswapV2Pair_flattened.sol\":6281:6311  recoveredAddress != address(0) */\n      dup2\n      and\n      iszero\n      dup1\n      iszero\n      swap1\n        /* \"contracts/UniswapV2Pair_flattened.sol\":6281:6340  recoveredAddress != address(0) && recoveredAddress == owner */\n      tag_346\n      jumpi\n      pop\n        /* \"contracts/UniswapV2Pair_flattened.sol\":6335:6340  owner */\n      dup9\n      sub(shl(0xa0, 0x01), 0x01)\n        /* \"contracts/UniswapV2Pair_flattened.sol\":6315:6340  recoveredAddress == owner */\n      and\n        /* \"contracts/UniswapV2Pair_flattened.sol\":6315:6331  recoveredAddress */\n      dup2\n      sub(shl(0xa0, 0x01), 0x01)\n        /* \"contracts/UniswapV2Pair_flattened.sol\":6315:6340  recoveredAddress == owner */\n      and\n      eq\n        /* \"contracts/UniswapV2Pair_flattened.sol\":6281:6340  recoveredAddress != address(0) && recoveredAddress == owner */\n    tag_346:\n        /* \"contracts/UniswapV2Pair_flattened.sol\":6260:6394  require(... */\n      tag_347\n      jumpi\n      mload(0x40)\n      shl(0xe5, 0x461bcd)\n      dup2\n      mstore\n        /* \"#utility.yul\":8946:8948   */\n      0x20\n        /* \"contracts/UniswapV2Pair_flattened.sol\":6260:6394  require(... */\n      0x04\n      dup3\n      add\n        /* \"#utility.yul\":8928:8949   */\n      mstore\n        /* \"#utility.yul\":8985:8987   */\n      0x1c\n        /* \"#utility.yul\":8965:8983   */\n      0x24\n      dup3\n      add\n        /* \"#utility.yul\":8958:8988   */\n      mstore\n        /* \"#utility.yul\":9024:9054   */\n      0x556e697377617056323a20494e56414c49445f5349474e415455524500000000\n        /* \"#utility.yul\":9004:9022   */\n      0x44\n      dup3\n      add\n        /* \"#utility.yul\":8997:9055   */\n      mstore\n        /* \"#utility.yul\":9072:9090   */\n      0x64\n      add\n        /* \"contracts/UniswapV2Pair_flattened.sol\":6260:6394  require(... */\n      tag_145\n        /* \"#utility.yul\":8918:9096   */\n      jump\n        /* \"contracts/UniswapV2Pair_flattened.sol\":6260:6394  require(... */\n    tag_347:\n        /* \"contracts/UniswapV2Pair_flattened.sol\":6404:6435  _approve(owner, spender, value) */\n      tag_350\n        /* \"contracts/UniswapV2Pair_flattened.sol\":6413:6418  owner */\n      dup10\n        /* \"contracts/UniswapV2Pair_flattened.sol\":6420:6427  spender */\n      dup10\n        /* \"contracts/UniswapV2Pair_flattened.sol\":6429:6434  value */\n      dup10\n        /* \"contracts/UniswapV2Pair_flattened.sol\":6404:6412  _approve */\n      tag_218\n        /* \"contracts/UniswapV2Pair_flattened.sol\":6404:6435  _approve(owner, spender, value) */\n      jump\t// in\n    tag_350:\n        /* \"contracts/UniswapV2Pair_flattened.sol\":5465:6442  function permit(... */\n      pop\n      pop\n      pop\n      pop\n      pop\n      pop\n      pop\n      pop\n      pop\n      jump\t// out\n        /* \"contracts/UniswapV2Pair_flattened.sol\":20004:20227  function sync() external override lock {... */\n    tag_142:\n        /* \"contracts/UniswapV2Pair_flattened.sol\":10759:10767  unlocked */\n      sload(0x0e)\n        /* \"contracts/UniswapV2Pair_flattened.sol\":10771:10772  1 */\n      0x01\n        /* \"contracts/UniswapV2Pair_flattened.sol\":10759:10772  unlocked == 1 */\n      eq\n        /* \"contracts/UniswapV2Pair_flattened.sol\":10751:10794  require(unlocked == 1, \"UniswapV2: LOCKED\") */\n      tag_352\n      jumpi\n      mload(0x40)\n      shl(0xe5, 0x461bcd)\n      dup2\n      mstore\n      0x04\n      add\n      tag_145\n      swap1\n      tag_146\n      jump\t// in\n    tag_352:\n        /* \"contracts/UniswapV2Pair_flattened.sol\":10815:10816  0 */\n      0x00\n        /* \"contracts/UniswapV2Pair_flattened.sol\":10804:10812  unlocked */\n      0x0e\n        /* \"contracts/UniswapV2Pair_flattened.sol\":10804:10816  unlocked = 0 */\n      sstore\n        /* \"contracts/UniswapV2Pair_flattened.sol\":20081:20087  token0 */\n      sload(0x06)\n        /* \"contracts/UniswapV2Pair_flattened.sol\":20074:20113  IERC20(token0).balanceOf(address(this)) */\n      mload(0x40)\n      shl(0xe0, 0x70a08231)\n      dup2\n      mstore\n        /* \"contracts/UniswapV2Pair_flattened.sol\":20107:20111  this */\n      address\n        /* \"contracts/UniswapV2Pair_flattened.sol\":20074:20113  IERC20(token0).balanceOf(address(this)) */\n      0x04\n      dup3\n      add\n        /* \"#utility.yul\":4841:4892   */\n      mstore\n        /* \"contracts/UniswapV2Pair_flattened.sol\":20053:20220  _update(... */\n      tag_355\n      swap2\n      sub(shl(0xa0, 0x01), 0x01)\n        /* \"contracts/UniswapV2Pair_flattened.sol\":20081:20087  token0 */\n      and\n      swap1\n        /* \"contracts/UniswapV2Pair_flattened.sol\":20074:20098  IERC20(token0).balanceOf */\n      0x70a08231\n      swap1\n        /* \"#utility.yul\":4814:4832   */\n      0x24\n      add\n        /* \"contracts/UniswapV2Pair_flattened.sol\":20074:20113  IERC20(token0).balanceOf(address(this)) */\n      0x20\n      mload(0x40)\n      dup1\n      dup4\n      sub\n      dup2\n      dup7\n      dup1\n      extcodesize\n      iszero\n      dup1\n      iszero\n      tag_357\n      jumpi\n      0x00\n      dup1\n      revert\n    tag_357:\n      pop\n      gas\n      staticcall\n      iszero\n      dup1\n      iszero\n      tag_359\n      jumpi\n      returndatasize\n      0x00\n      dup1\n      returndatacopy\n      revert(0x00, returndatasize)\n    tag_359:\n      pop\n      pop\n      pop\n      pop\n      mload(0x40)\n      returndatasize\n      not(0x1f)\n      0x1f\n      dup3\n      add\n      and\n      dup3\n      add\n      dup1\n      0x40\n      mstore\n      pop\n      dup2\n      add\n      swap1\n      tag_360\n      swap2\n      swap1\n      tag_177\n      jump\t// in\n    tag_360:\n        /* \"contracts/UniswapV2Pair_flattened.sol\":20134:20140  token1 */\n      sload(0x07)\n        /* \"contracts/UniswapV2Pair_flattened.sol\":20127:20166  IERC20(token1).balanceOf(address(this)) */\n      mload(0x40)\n      shl(0xe0, 0x70a08231)\n      dup2\n      mstore\n        /* \"contracts/UniswapV2Pair_flattened.sol\":20160:20164  this */\n      address\n        /* \"contracts/UniswapV2Pair_flattened.sol\":20127:20166  IERC20(token1).balanceOf(address(this)) */\n      0x04\n      dup3\n      add\n        /* \"#utility.yul\":4841:4892   */\n      mstore\n      sub(shl(0xa0, 0x01), 0x01)\n        /* \"contracts/UniswapV2Pair_flattened.sol\":20134:20140  token1 */\n      swap1\n      swap2\n      and\n      swap1\n        /* \"contracts/UniswapV2Pair_flattened.sol\":20127:20151  IERC20(token1).balanceOf */\n      0x70a08231\n      swap1\n        /* \"#utility.yul\":4814:4832   */\n      0x24\n      add\n        /* \"contracts/UniswapV2Pair_flattened.sol\":20127:20166  IERC20(token1).balanceOf(address(this)) */\n      0x20\n      mload(0x40)\n      dup1\n      dup4\n      sub\n      dup2\n      dup7\n      dup1\n      extcodesize\n      iszero\n      dup1\n      iszero\n      tag_362\n      jumpi\n      0x00\n      dup1\n      revert\n    tag_362:\n      pop\n      gas\n      staticcall\n      iszero\n      dup1\n      iszero\n      tag_364\n      jumpi\n      returndatasize\n      0x00\n      dup1\n      returndatacopy\n      revert(0x00, returndatasize)\n    tag_364:\n      pop\n      pop\n      pop\n      pop\n      mload(0x40)\n      returndatasize\n      not(0x1f)\n      0x1f\n      dup3\n      add\n      and\n      dup3\n      add\n      dup1\n      0x40\n      mstore\n      pop\n      dup2\n      add\n      swap1\n      tag_365\n      swap2\n      swap1\n      tag_177\n      jump\t// in\n    tag_365:\n        /* \"contracts/UniswapV2Pair_flattened.sol\":20180:20188  reserve0 */\n      sload(0x08)\n      sub(shl(0x70, 0x01), 0x01)\n      dup1\n      dup3\n      and\n      swap2\n      shl(0x70, 0x01)\n        /* \"contracts/UniswapV2Pair_flattened.sol\":20202:20210  reserve1 */\n      swap1\n      div\n      and\n        /* \"contracts/UniswapV2Pair_flattened.sol\":20053:20060  _update */\n      tag_212\n        /* \"contracts/UniswapV2Pair_flattened.sol\":20053:20220  _update(... */\n      jump\t// in\n    tag_355:\n        /* \"contracts/UniswapV2Pair_flattened.sol\":10848:10849  1 */\n      0x01\n        /* \"contracts/UniswapV2Pair_flattened.sol\":10837:10845  unlocked */\n      0x0e\n        /* \"contracts/UniswapV2Pair_flattened.sol\":10837:10849  unlocked = 1 */\n      sstore\n        /* \"contracts/UniswapV2Pair_flattened.sol\":20004:20227  function sync() external override lock {... */\n      jump\t// out\n        /* \"contracts/UniswapV2Pair_flattened.sol\":11186:11545  function _safeTransfer(address token, address to, uint256 value) private {... */\n    tag_163:\n        /* \"contracts/UniswapV2Pair_flattened.sol\":11329:11388  abi.encodeWithSelector(IERC20.transfer.selector, to, value) */\n      0x40\n      dup1\n      mload\n      sub(shl(0xa0, 0x01), 0x01)\n        /* \"#utility.yul\":5095:5127   */\n      dup5\n      dup2\n      and\n        /* \"contracts/UniswapV2Pair_flattened.sol\":11329:11388  abi.encodeWithSelector(IERC20.transfer.selector, to, value) */\n      0x24\n      dup4\n      add\n        /* \"#utility.yul\":5077:5128   */\n      mstore\n        /* \"#utility.yul\":5144:5162   */\n      0x44\n      dup1\n      dup4\n      add\n        /* \"#utility.yul\":5137:5171   */\n      dup6\n      swap1\n      mstore\n        /* \"contracts/UniswapV2Pair_flattened.sol\":11329:11388  abi.encodeWithSelector(IERC20.transfer.selector, to, value) */\n      dup4\n      mload\n      dup1\n      dup5\n      sub\n      swap1\n      swap2\n      add\n      dup2\n      mstore\n        /* \"#utility.yul\":5050:5068   */\n      0x64\n      swap1\n      swap3\n      add\n        /* \"contracts/UniswapV2Pair_flattened.sol\":11329:11388  abi.encodeWithSelector(IERC20.transfer.selector, to, value) */\n      dup4\n      mstore\n      0x20\n      dup3\n      add\n      dup1\n      mload\n      sub(shl(0xe0, 0x01), 0x01)\n      and\n      shl(0xe0, 0xa9059cbb)\n      or\n      swap1\n      mstore\n        /* \"contracts/UniswapV2Pair_flattened.sol\":11305:11398  token.call(... */\n      swap2\n      mload\n      0x00\n      swap3\n      dup4\n      swap3\n        /* \"contracts/UniswapV2Pair_flattened.sol\":11305:11315  token.call */\n      swap1\n      dup8\n      and\n      swap2\n        /* \"contracts/UniswapV2Pair_flattened.sol\":11305:11398  token.call(... */\n      tag_369\n      swap2\n        /* \"contracts/UniswapV2Pair_flattened.sol\":11329:11388  abi.encodeWithSelector(IERC20.transfer.selector, to, value) */\n      swap1\n        /* \"contracts/UniswapV2Pair_flattened.sol\":11305:11398  token.call(... */\n      tag_370\n      jump\t// in\n    tag_369:\n      0x00\n      mload(0x40)\n      dup1\n      dup4\n      sub\n      dup2\n      0x00\n      dup7\n      gas\n      call\n      swap2\n      pop\n      pop\n      returndatasize\n      dup1\n      0x00\n      dup2\n      eq\n      tag_373\n      jumpi\n      mload(0x40)\n      swap2\n      pop\n      and(add(returndatasize, 0x3f), not(0x1f))\n      dup3\n      add\n      0x40\n      mstore\n      returndatasize\n      dup3\n      mstore\n      returndatasize\n      0x00\n      0x20\n      dup5\n      add\n      returndatacopy\n      jump(tag_372)\n    tag_373:\n      0x60\n      swap2\n      pop\n    tag_372:\n      pop\n        /* \"contracts/UniswapV2Pair_flattened.sol\":11269:11398  (bool success, bytes memory data) = token.call(... */\n      swap2\n      pop\n      swap2\n      pop\n        /* \"contracts/UniswapV2Pair_flattened.sol\":11429:11436  success */\n      dup2\n        /* \"contracts/UniswapV2Pair_flattened.sol\":11429:11486  success && (data.length == 0 || abi.decode(data, (bool))) */\n      dup1\n      iszero\n      tag_376\n      jumpi\n      pop\n        /* \"contracts/UniswapV2Pair_flattened.sol\":11441:11452  data.length */\n      dup1\n      mload\n        /* \"contracts/UniswapV2Pair_flattened.sol\":11441:11457  data.length == 0 */\n      iszero\n      dup1\n        /* \"contracts/UniswapV2Pair_flattened.sol\":11441:11485  data.length == 0 || abi.decode(data, (bool)) */\n      tag_376\n      jumpi\n      pop\n        /* \"contracts/UniswapV2Pair_flattened.sol\":11472:11476  data */\n      dup1\n        /* \"contracts/UniswapV2Pair_flattened.sol\":11461:11485  abi.decode(data, (bool)) */\n      dup1\n      0x20\n      add\n      swap1\n      mload\n      dup2\n      add\n      swap1\n      tag_376\n      swap2\n      swap1\n      tag_377\n      jump\t// in\n    tag_376:\n        /* \"contracts/UniswapV2Pair_flattened.sol\":11408:11538  require(... */\n      tag_378\n      jumpi\n      mload(0x40)\n      shl(0xe5, 0x461bcd)\n      dup2\n      mstore\n        /* \"#utility.yul\":12254:12256   */\n      0x20\n        /* \"contracts/UniswapV2Pair_flattened.sol\":11408:11538  require(... */\n      0x04\n      dup3\n      add\n        /* \"#utility.yul\":12236:12257   */\n      mstore\n        /* \"#utility.yul\":12293:12295   */\n      0x1a\n        /* \"#utility.yul\":12273:12291   */\n      0x24\n      dup3\n      add\n        /* \"#utility.yul\":12266:12296   */\n      mstore\n        /* \"#utility.yul\":12332:12360   */\n      0x556e697377617056323a205452414e534645525f4641494c4544000000000000\n        /* \"#utility.yul\":12312:12330   */\n      0x44\n      dup3\n      add\n        /* \"#utility.yul\":12305:12361   */\n      mstore\n        /* \"#utility.yul\":12378:12396   */\n      0x64\n      add\n        /* \"contracts/UniswapV2Pair_flattened.sol\":11408:11538  require(... */\n      tag_145\n        /* \"#utility.yul\":12226:12402   */\n      jump\n        /* \"contracts/UniswapV2Pair_flattened.sol\":11408:11538  require(... */\n    tag_378:\n        /* \"contracts/UniswapV2Pair_flattened.sol\":11186:11545  function _safeTransfer(address token, address to, uint256 value) private {... */\n      pop\n      pop\n      pop\n      pop\n      pop\n      jump\t// out\n        /* \"contracts/UniswapV2Pair_flattened.sol\":12064:13143  function _update(... */\n    tag_212:\n      sub(shl(0x70, 0x01), 0x01)\n        /* \"contracts/UniswapV2Pair_flattened.sol\":12232:12261  balance0 <= type(uint112).max */\n      dup5\n      gt\n      dup1\n      iszero\n      swap1\n        /* \"contracts/UniswapV2Pair_flattened.sol\":12232:12294  balance0 <= type(uint112).max && balance1 <= type(uint112).max */\n      tag_382\n      jumpi\n      pop\n      sub(shl(0x70, 0x01), 0x01)\n        /* \"contracts/UniswapV2Pair_flattened.sol\":12265:12294  balance1 <= type(uint112).max */\n      dup4\n      gt\n      iszero\n        /* \"contracts/UniswapV2Pair_flattened.sol\":12232:12294  balance0 <= type(uint112).max && balance1 <= type(uint112).max */\n    tag_382:\n        /* \"contracts/UniswapV2Pair_flattened.sol\":12211:12339  require(... */\n      tag_383\n      jumpi\n      mload(0x40)\n      shl(0xe5, 0x461bcd)\n      dup2\n      mstore\n        /* \"#utility.yul\":11906:11908   */\n      0x20\n        /* \"contracts/UniswapV2Pair_flattened.sol\":12211:12339  require(... */\n      0x04\n      dup3\n      add\n        /* \"#utility.yul\":11888:11909   */\n      mstore\n        /* \"#utility.yul\":11945:11947   */\n      0x13\n        /* \"#utility.yul\":11925:11943   */\n      0x24\n      dup3\n      add\n        /* \"#utility.yul\":11918:11948   */\n      mstore\n      shl(0x68, 0x556e697377617056323a204f564552464c4f57)\n        /* \"#utility.yul\":11964:11982   */\n      0x44\n      dup3\n      add\n        /* \"#utility.yul\":11957:12006   */\n      mstore\n        /* \"#utility.yul\":12023:12041   */\n      0x64\n      add\n        /* \"contracts/UniswapV2Pair_flattened.sol\":12211:12339  require(... */\n      tag_145\n        /* \"#utility.yul\":11878:12047   */\n      jump\n        /* \"contracts/UniswapV2Pair_flattened.sol\":12211:12339  require(... */\n    tag_383:\n        /* \"contracts/UniswapV2Pair_flattened.sol\":12349:12370  uint32 blockTimestamp */\n      0x00\n        /* \"contracts/UniswapV2Pair_flattened.sol\":12380:12405  block.timestamp % 2 ** 32 */\n      tag_386\n        /* \"contracts/UniswapV2Pair_flattened.sol\":12398:12405  2 ** 32 */\n      0x0100000000\n        /* \"contracts/UniswapV2Pair_flattened.sol\":12380:12395  block.timestamp */\n      timestamp\n        /* \"contracts/UniswapV2Pair_flattened.sol\":12380:12405  block.timestamp % 2 ** 32 */\n      tag_387\n      jump\t// in\n    tag_386:\n        /* \"contracts/UniswapV2Pair_flattened.sol\":12478:12496  blockTimestampLast */\n      sload(0x08)\n        /* \"contracts/UniswapV2Pair_flattened.sol\":12349:12406  uint32 blockTimestamp = uint32(block.timestamp % 2 ** 32) */\n      swap1\n      swap2\n      pop\n        /* \"contracts/UniswapV2Pair_flattened.sol\":12478:12496  blockTimestampLast */\n      0xffffffff\n      shl(0xe0, 0x01)\n      swap1\n      swap2\n      div\n      dup2\n      and\n        /* \"contracts/UniswapV2Pair_flattened.sol\":12461:12496  blockTimestamp - blockTimestampLast */\n      dup3\n      sub\n      swap1\n        /* \"contracts/UniswapV2Pair_flattened.sol\":12537:12552  timeElapsed > 0 */\n      dup2\n      and\n      iszero\n      dup1\n      iszero\n      swap1\n        /* \"contracts/UniswapV2Pair_flattened.sol\":12537:12570  timeElapsed > 0 && _reserve0 != 0 */\n      tag_388\n      jumpi\n      pop\n      sub(shl(0x70, 0x01), 0x01)\n        /* \"contracts/UniswapV2Pair_flattened.sol\":12556:12570  _reserve0 != 0 */\n      dup5\n      and\n      iszero\n      iszero\n        /* \"contracts/UniswapV2Pair_flattened.sol\":12537:12570  timeElapsed > 0 && _reserve0 != 0 */\n    tag_388:\n        /* \"contracts/UniswapV2Pair_flattened.sol\":12537:12588  timeElapsed > 0 && _reserve0 != 0 && _reserve1 != 0 */\n      dup1\n      iszero\n      tag_389\n      jumpi\n      pop\n      sub(shl(0x70, 0x01), 0x01)\n        /* \"contracts/UniswapV2Pair_flattened.sol\":12574:12588  _reserve1 != 0 */\n      dup4\n      and\n      iszero\n      iszero\n        /* \"contracts/UniswapV2Pair_flattened.sol\":12537:12588  timeElapsed > 0 && _reserve0 != 0 && _reserve1 != 0 */\n    tag_389:\n        /* \"contracts/UniswapV2Pair_flattened.sol\":12533:12967  if (timeElapsed > 0 && _reserve0 != 0 && _reserve1 != 0) {... */\n      iszero\n      tag_390\n      jumpi\n        /* \"contracts/UniswapV2Pair_flattened.sol\":12792:12803  timeElapsed */\n      dup1\n        /* \"contracts/UniswapV2Pair_flattened.sol\":12716:12803  uint256(UQ112x112.encode(_reserve1).uqdiv(_reserve0)) *... */\n      0xffffffff\n      and\n        /* \"contracts/UniswapV2Pair_flattened.sol\":12724:12768  UQ112x112.encode(_reserve1).uqdiv(_reserve0) */\n      tag_391\n        /* \"contracts/UniswapV2Pair_flattened.sol\":12758:12767  _reserve0 */\n      dup6\n        /* \"contracts/UniswapV2Pair_flattened.sol\":12724:12751  UQ112x112.encode(_reserve1) */\n      tag_392\n        /* \"contracts/UniswapV2Pair_flattened.sol\":12741:12750  _reserve1 */\n      dup7\n        /* \"contracts/UniswapV2Pair_flattened.sol\":12724:12740  UQ112x112.encode */\n      tag_393\n        /* \"contracts/UniswapV2Pair_flattened.sol\":12724:12751  UQ112x112.encode(_reserve1) */\n      jump\t// in\n    tag_392:\n      sub(shl(0xe0, 0x01), 0x01)\n        /* \"contracts/UniswapV2Pair_flattened.sol\":12724:12757  UQ112x112.encode(_reserve1).uqdiv */\n      and\n      swap1\n      tag_394\n        /* \"contracts/UniswapV2Pair_flattened.sol\":12724:12768  UQ112x112.encode(_reserve1).uqdiv(_reserve0) */\n      jump\t// in\n    tag_391:\n        /* \"contracts/UniswapV2Pair_flattened.sol\":12672:12692  price0CumulativeLast */\n      0x0b\n        /* \"contracts/UniswapV2Pair_flattened.sol\":12672:12803  price0CumulativeLast +=... */\n      dup1\n      sload\n      sub(shl(0xe0, 0x01), 0x01)\n        /* \"contracts/UniswapV2Pair_flattened.sol\":12716:12769  uint256(UQ112x112.encode(_reserve1).uqdiv(_reserve0)) */\n      swap3\n      swap1\n      swap3\n      and\n        /* \"contracts/UniswapV2Pair_flattened.sol\":12716:12803  uint256(UQ112x112.encode(_reserve1).uqdiv(_reserve0)) *... */\n      swap3\n      swap1\n      swap3\n      mul\n        /* \"contracts/UniswapV2Pair_flattened.sol\":12672:12803  price0CumulativeLast +=... */\n      add\n      swap1\n      sstore\n        /* \"contracts/UniswapV2Pair_flattened.sol\":12865:12952  uint256(UQ112x112.encode(_reserve0).uqdiv(_reserve1)) *... */\n      0xffffffff\n      dup2\n      and\n        /* \"contracts/UniswapV2Pair_flattened.sol\":12873:12917  UQ112x112.encode(_reserve0).uqdiv(_reserve1) */\n      tag_395\n        /* \"contracts/UniswapV2Pair_flattened.sol\":12907:12916  _reserve1 */\n      dup5\n        /* \"contracts/UniswapV2Pair_flattened.sol\":12873:12900  UQ112x112.encode(_reserve0) */\n      tag_392\n        /* \"contracts/UniswapV2Pair_flattened.sol\":12890:12899  _reserve0 */\n      dup8\n        /* \"contracts/UniswapV2Pair_flattened.sol\":12873:12889  UQ112x112.encode */\n      tag_393\n        /* \"contracts/UniswapV2Pair_flattened.sol\":12873:12900  UQ112x112.encode(_reserve0) */\n      jump\t// in\n        /* \"contracts/UniswapV2Pair_flattened.sol\":12873:12917  UQ112x112.encode(_reserve0).uqdiv(_reserve1) */\n    tag_395:\n        /* \"contracts/UniswapV2Pair_flattened.sol\":12821:12841  price1CumulativeLast */\n      0x0c\n        /* \"contracts/UniswapV2Pair_flattened.sol\":12821:12952  price1CumulativeLast +=... */\n      dup1\n      sload\n      sub(shl(0xe0, 0x01), 0x01)\n        /* \"contracts/UniswapV2Pair_flattened.sol\":12865:12918  uint256(UQ112x112.encode(_reserve0).uqdiv(_reserve1)) */\n      swap3\n      swap1\n      swap3\n      and\n        /* \"contracts/UniswapV2Pair_flattened.sol\":12865:12952  uint256(UQ112x112.encode(_reserve0).uqdiv(_reserve1)) *... */\n      swap3\n      swap1\n      swap3\n      mul\n        /* \"contracts/UniswapV2Pair_flattened.sol\":12821:12952  price1CumulativeLast +=... */\n      add\n      swap1\n      sstore\n        /* \"contracts/UniswapV2Pair_flattened.sol\":12533:12967  if (timeElapsed > 0 && _reserve0 != 0 && _reserve1 != 0) {... */\n    tag_390:\n      pop\n        /* \"contracts/UniswapV2Pair_flattened.sol\":12986:12994  reserve0 */\n      0x08\n        /* \"contracts/UniswapV2Pair_flattened.sol\":12986:13014  reserve0 = uint112(balance0) */\n      dup1\n      sload\n        /* \"contracts/UniswapV2Pair_flattened.sol\":13062:13097  blockTimestampLast = blockTimestamp */\n      0xffffffff\n      dup4\n      and\n      shl(0xe0, 0x01)\n      mul\n      sub(shl(0xe0, 0x01), 0x01)\n      sub(shl(0x70, 0x01), 0x01)\n        /* \"contracts/UniswapV2Pair_flattened.sol\":13024:13052  reserve1 = uint112(balance1) */\n      dup9\n      dup2\n      and\n      shl(0x70, 0x01)\n      swap1\n      dup2\n      mul\n      not(sub(shl(0xe0, 0x01), 0x01))\n      swap1\n      swap6\n      and\n        /* \"contracts/UniswapV2Pair_flattened.sol\":12986:13014  reserve0 = uint112(balance0) */\n      dup12\n      dup4\n      and\n        /* \"contracts/UniswapV2Pair_flattened.sol\":13024:13052  reserve1 = uint112(balance1) */\n      or\n      swap5\n      swap1\n      swap5\n      or\n        /* \"contracts/UniswapV2Pair_flattened.sol\":13062:13097  blockTimestampLast = blockTimestamp */\n      swap2\n      dup3\n      and\n      dup4\n      or\n      swap5\n      dup6\n      swap1\n      sstore\n        /* \"contracts/UniswapV2Pair_flattened.sol\":13112:13136  Sync(reserve0, reserve1) */\n      0x40\n      dup1\n      mload\n        /* \"contracts/UniswapV2Pair_flattened.sol\":13117:13125  reserve0 */\n      swap4\n      dup3\n      and\n      swap3\n      dup3\n      and\n      swap3\n      swap1\n      swap3\n      or\n        /* \"#utility.yul\":12630:12664   */\n      dup4\n      mstore\n        /* \"contracts/UniswapV2Pair_flattened.sol\":13127:13135  reserve1 */\n      swap3\n      swap1\n      swap4\n      div\n      swap1\n      swap2\n      and\n        /* \"#utility.yul\":12695:12697   */\n      0x20\n        /* \"#utility.yul\":12680:12698   */\n      dup3\n      add\n        /* \"#utility.yul\":12673:12716   */\n      mstore\n        /* \"contracts/UniswapV2Pair_flattened.sol\":13112:13136  Sync(reserve0, reserve1) */\n      0x1c411e9a96e071241c2f21f7726b17ae89e3cab4c78be50e062b03a9fffbbad1\n      swap2\n        /* \"#utility.yul\":12554:12572   */\n      add\n        /* \"contracts/UniswapV2Pair_flattened.sol\":13112:13136  Sync(reserve0, reserve1) */\n      mload(0x40)\n      dup1\n      swap2\n      sub\n      swap1\n      log1\n        /* \"contracts/UniswapV2Pair_flattened.sol\":12064:13143  function _update(... */\n      pop\n      pop\n      pop\n      pop\n      pop\n      jump\t// out\n        /* \"contracts/UniswapV2Pair_flattened.sol\":4423:4592  function _approve(address owner, address spender, uint256 value) private {... */\n    tag_218:\n      sub(shl(0xa0, 0x01), 0x01)\n        /* \"contracts/UniswapV2Pair_flattened.sol\":4506:4522  allowance[owner] */\n      dup4\n      dup2\n      and\n      0x00\n      dup2\n      dup2\n      mstore\n        /* \"contracts/UniswapV2Pair_flattened.sol\":4506:4515  allowance */\n      0x02\n        /* \"contracts/UniswapV2Pair_flattened.sol\":4506:4522  allowance[owner] */\n      0x20\n      swap1\n      dup2\n      mstore\n      0x40\n      dup1\n      dup4\n      keccak256\n        /* \"contracts/UniswapV2Pair_flattened.sol\":4506:4531  allowance[owner][spender] */\n      swap5\n      dup8\n      and\n      dup1\n      dup5\n      mstore\n      swap5\n      dup3\n      mstore\n      swap2\n      dup3\n      swap1\n      keccak256\n        /* \"contracts/UniswapV2Pair_flattened.sol\":4506:4539  allowance[owner][spender] = value */\n      dup6\n      swap1\n      sstore\n        /* \"contracts/UniswapV2Pair_flattened.sol\":4554:4585  Approval(owner, spender, value) */\n      swap1\n      mload\n        /* \"#utility.yul\":6160:6185   */\n      dup5\n      dup2\n      mstore\n        /* \"contracts/UniswapV2Pair_flattened.sol\":4554:4585  Approval(owner, spender, value) */\n      0x8c5be1e5ebec7d5bd14f71427d1e84f3dd0314c0f7b2291e5b200ac8c7c3b925\n      swap2\n        /* \"#utility.yul\":6133:6151   */\n      add\n        /* \"contracts/UniswapV2Pair_flattened.sol\":4554:4585  Approval(owner, spender, value) */\n    tag_400:\n      mload(0x40)\n      dup1\n      swap2\n      sub\n      swap1\n      log3\n        /* \"contracts/UniswapV2Pair_flattened.sol\":4423:4592  function _approve(address owner, address spender, uint256 value) private {... */\n      pop\n      pop\n      pop\n      jump\t// out\n        /* \"contracts/UniswapV2Pair_flattened.sol\":4598:4779  function _transfer(address from, address to, uint256 value) private {... */\n    tag_223:\n      sub(shl(0xa0, 0x01), 0x01)\n        /* \"contracts/UniswapV2Pair_flattened.sol\":4676:4691  balanceOf[from] */\n      dup4\n      and\n      0x00\n      swap1\n      dup2\n      mstore\n        /* \"contracts/UniswapV2Pair_flattened.sol\":4676:4685  balanceOf */\n      0x01\n        /* \"contracts/UniswapV2Pair_flattened.sol\":4676:4691  balanceOf[from] */\n      0x20\n      mstore\n      0x40\n      dup2\n      keccak256\n        /* \"contracts/UniswapV2Pair_flattened.sol\":4676:4700  balanceOf[from] -= value */\n      dup1\n      sload\n        /* \"contracts/UniswapV2Pair_flattened.sol\":4695:4700  value */\n      dup4\n      swap3\n        /* \"contracts/UniswapV2Pair_flattened.sol\":4676:4691  balanceOf[from] */\n      swap1\n        /* \"contracts/UniswapV2Pair_flattened.sol\":4676:4700  balanceOf[from] -= value */\n      tag_402\n      swap1\n        /* \"contracts/UniswapV2Pair_flattened.sol\":4695:4700  value */\n      dup5\n      swap1\n        /* \"contracts/UniswapV2Pair_flattened.sol\":4676:4700  balanceOf[from] -= value */\n      tag_184\n      jump\t// in\n    tag_402:\n      swap1\n      swap2\n      sstore\n      pop\n      pop\n      sub(shl(0xa0, 0x01), 0x01)\n        /* \"contracts/UniswapV2Pair_flattened.sol\":4710:4723  balanceOf[to] */\n      dup3\n      and\n      0x00\n      swap1\n      dup2\n      mstore\n        /* \"contracts/UniswapV2Pair_flattened.sol\":4710:4719  balanceOf */\n      0x01\n        /* \"contracts/UniswapV2Pair_flattened.sol\":4710:4723  balanceOf[to] */\n      0x20\n      mstore\n      0x40\n      dup2\n      keccak256\n        /* \"contracts/UniswapV2Pair_flattened.sol\":4710:4732  balanceOf[to] += value */\n      dup1\n      sload\n        /* \"contracts/UniswapV2Pair_flattened.sol\":4727:4732  value */\n      dup4\n      swap3\n        /* \"contracts/UniswapV2Pair_flattened.sol\":4710:4723  balanceOf[to] */\n      swap1\n        /* \"contracts/UniswapV2Pair_flattened.sol\":4710:4732  balanceOf[to] += value */\n      tag_403\n      swap1\n        /* \"contracts/UniswapV2Pair_flattened.sol\":4727:4732  value */\n      dup5\n      swap1\n        /* \"contracts/UniswapV2Pair_flattened.sol\":4710:4732  balanceOf[to] += value */\n      tag_404\n      jump\t// in\n    tag_403:\n      swap3\n      pop\n      pop\n      dup2\n      swap1\n      sstore\n      pop\n        /* \"contracts/UniswapV2Pair_flattened.sol\":4762:4764  to */\n      dup2\n      sub(shl(0xa0, 0x01), 0x01)\n        /* \"contracts/UniswapV2Pair_flattened.sol\":4747:4772  Transfer(from, to, value) */\n      and\n        /* \"contracts/UniswapV2Pair_flattened.sol\":4756:4760  from */\n      dup4\n      sub(shl(0xa0, 0x01), 0x01)\n        /* \"contracts/UniswapV2Pair_flattened.sol\":4747:4772  Transfer(from, to, value) */\n      and\n      0xddf252ad1be2c89b69c2b068fc378daa952ba7f163c4a11628f55a4df523b3ef\n        /* \"contracts/UniswapV2Pair_flattened.sol\":4766:4771  value */\n      dup4\n        /* \"contracts/UniswapV2Pair_flattened.sol\":4747:4772  Transfer(from, to, value) */\n      mload(0x40)\n      tag_400\n      swap2\n        /* \"#utility.yul\":6160:6185   */\n      dup2\n      mstore\n        /* \"#utility.yul\":6148:6150   */\n      0x20\n        /* \"#utility.yul\":6133:6151   */\n      add\n      swap1\n        /* \"#utility.yul\":6115:6191   */\n      jump\n        /* \"contracts/UniswapV2Pair_flattened.sol\":13235:14094  function _mintFee(... */\n    tag_246:\n        /* \"contracts/UniswapV2Pair_flattened.sol\":13330:13340  bool feeOn */\n      0x00\n        /* \"contracts/UniswapV2Pair_flattened.sol\":13352:13365  address feeTo */\n      dup1\n        /* \"contracts/UniswapV2Pair_flattened.sol\":13386:13393  factory */\n      0x05\n      0x00\n      swap1\n      sload\n      swap1\n      0x0100\n      exp\n      swap1\n      div\n      sub(shl(0xa0, 0x01), 0x01)\n      and\n      sub(shl(0xa0, 0x01), 0x01)\n        /* \"contracts/UniswapV2Pair_flattened.sol\":13368:13400  IUniswapV2Factory(factory).feeTo */\n      and\n      0x017e7e58\n        /* \"contracts/UniswapV2Pair_flattened.sol\":13368:13402  IUniswapV2Factory(factory).feeTo() */\n      mload(0x40)\n      dup2\n      0xffffffff\n      and\n      0xe0\n      shl\n      dup2\n      mstore\n      0x04\n      add\n      0x20\n      mload(0x40)\n      dup1\n      dup4\n      sub\n      dup2\n      dup7\n      dup1\n      extcodesize\n      iszero\n      dup1\n      iszero\n      tag_407\n      jumpi\n      0x00\n      dup1\n      revert\n    tag_407:\n      pop\n      gas\n      staticcall\n      iszero\n      dup1\n      iszero\n      tag_409\n      jumpi\n      returndatasize\n      0x00\n      dup1\n      returndatacopy\n      revert(0x00, returndatasize)\n    tag_409:\n      pop\n      pop\n      pop\n      pop\n      mload(0x40)\n      returndatasize\n      not(0x1f)\n      0x1f\n      dup3\n      add\n      and\n      dup3\n      add\n      dup1\n      0x40\n      mstore\n      pop\n      dup2\n      add\n      swap1\n      tag_410\n      swap2\n      swap1\n      tag_411\n      jump\t// in\n    tag_410:\n        /* \"contracts/UniswapV2Pair_flattened.sol\":13466:13471  kLast */\n      sload(0x0d)\n      sub(shl(0xa0, 0x01), 0x01)\n        /* \"contracts/UniswapV2Pair_flattened.sol\":13420:13439  feeTo != address(0) */\n      dup3\n      and\n      iszero\n      dup1\n      iszero\n      swap5\n      pop\n        /* \"contracts/UniswapV2Pair_flattened.sol\":13352:13402  address feeTo = IUniswapV2Factory(factory).feeTo() */\n      swap2\n      swap3\n      pop\n        /* \"contracts/UniswapV2Pair_flattened.sol\":13466:13471  kLast */\n      swap1\n        /* \"contracts/UniswapV2Pair_flattened.sol\":13496:14088  if (feeOn) {... */\n      tag_412\n      jumpi\n        /* \"contracts/UniswapV2Pair_flattened.sol\":13525:13536  _kLast != 0 */\n      dup1\n      iszero\n        /* \"contracts/UniswapV2Pair_flattened.sol\":13521:14021  if (_kLast != 0) {... */\n      tag_413\n      jumpi\n        /* \"contracts/UniswapV2Pair_flattened.sol\":13556:13569  uint256 rootK */\n      0x00\n        /* \"contracts/UniswapV2Pair_flattened.sol\":13572:13613  Math.sqrt(uint256(_reserve0) * _reserve1) */\n      tag_414\n        /* \"contracts/UniswapV2Pair_flattened.sol\":13582:13612  uint256(_reserve0) * _reserve1 */\n      tag_249\n      sub(shl(0x70, 0x01), 0x01)\n      dup1\n      dup9\n      and\n      swap1\n        /* \"contracts/UniswapV2Pair_flattened.sol\":13582:13600  uint256(_reserve0) */\n      dup10\n      and\n        /* \"contracts/UniswapV2Pair_flattened.sol\":13582:13612  uint256(_reserve0) * _reserve1 */\n      tag_199\n      jump\t// in\n        /* \"contracts/UniswapV2Pair_flattened.sol\":13572:13613  Math.sqrt(uint256(_reserve0) * _reserve1) */\n    tag_414:\n        /* \"contracts/UniswapV2Pair_flattened.sol\":13556:13613  uint256 rootK = Math.sqrt(uint256(_reserve0) * _reserve1) */\n      swap1\n      pop\n        /* \"contracts/UniswapV2Pair_flattened.sol\":13631:13648  uint256 rootKLast */\n      0x00\n        /* \"contracts/UniswapV2Pair_flattened.sol\":13651:13668  Math.sqrt(_kLast) */\n      tag_416\n        /* \"contracts/UniswapV2Pair_flattened.sol\":13661:13667  _kLast */\n      dup4\n        /* \"contracts/UniswapV2Pair_flattened.sol\":13651:13660  Math.sqrt */\n      tag_250\n        /* \"contracts/UniswapV2Pair_flattened.sol\":13651:13668  Math.sqrt(_kLast) */\n      jump\t// in\n    tag_416:\n        /* \"contracts/UniswapV2Pair_flattened.sol\":13631:13668  uint256 rootKLast = Math.sqrt(_kLast) */\n      swap1\n      pop\n        /* \"contracts/UniswapV2Pair_flattened.sol\":13698:13707  rootKLast */\n      dup1\n        /* \"contracts/UniswapV2Pair_flattened.sol\":13690:13695  rootK */\n      dup3\n        /* \"contracts/UniswapV2Pair_flattened.sol\":13690:13707  rootK > rootKLast */\n      gt\n        /* \"contracts/UniswapV2Pair_flattened.sol\":13686:14007  if (rootK > rootKLast) {... */\n      iszero\n      tag_417\n      jumpi\n        /* \"contracts/UniswapV2Pair_flattened.sol\":13731:13748  uint256 numerator */\n      0x00\n        /* \"contracts/UniswapV2Pair_flattened.sol\":13766:13783  rootK - rootKLast */\n      tag_418\n        /* \"contracts/UniswapV2Pair_flattened.sol\":13774:13783  rootKLast */\n      dup3\n        /* \"contracts/UniswapV2Pair_flattened.sol\":13766:13771  rootK */\n      dup5\n        /* \"contracts/UniswapV2Pair_flattened.sol\":13766:13783  rootK - rootKLast */\n      tag_184\n      jump\t// in\n    tag_418:\n        /* \"contracts/UniswapV2Pair_flattened.sol\":13751:13762  totalSupply */\n      sload(0x00)\n        /* \"contracts/UniswapV2Pair_flattened.sol\":13751:13784  totalSupply * (rootK - rootKLast) */\n      tag_419\n      swap2\n      swap1\n      tag_199\n      jump\t// in\n    tag_419:\n        /* \"contracts/UniswapV2Pair_flattened.sol\":13731:13784  uint256 numerator = totalSupply * (rootK - rootKLast) */\n      swap1\n      pop\n        /* \"contracts/UniswapV2Pair_flattened.sol\":13806:13825  uint256 denominator */\n      0x00\n        /* \"contracts/UniswapV2Pair_flattened.sol\":13850:13859  rootKLast */\n      dup3\n        /* \"contracts/UniswapV2Pair_flattened.sol\":13836:13847  feeToSetter */\n      sload(0x0a)\n        /* \"contracts/UniswapV2Pair_flattened.sol\":13828:13833  rootK */\n      dup6\n        /* \"contracts/UniswapV2Pair_flattened.sol\":13828:13847  rootK * feeToSetter */\n      tag_420\n      swap2\n      swap1\n      tag_199\n      jump\t// in\n    tag_420:\n        /* \"contracts/UniswapV2Pair_flattened.sol\":13828:13859  rootK * feeToSetter + rootKLast */\n      tag_421\n      swap2\n      swap1\n      tag_404\n      jump\t// in\n    tag_421:\n        /* \"contracts/UniswapV2Pair_flattened.sol\":13806:13859  uint256 denominator = rootK * feeToSetter + rootKLast */\n      swap1\n      pop\n        /* \"contracts/UniswapV2Pair_flattened.sol\":13881:13898  uint256 liquidity */\n      0x00\n        /* \"contracts/UniswapV2Pair_flattened.sol\":13901:13924  numerator / denominator */\n      tag_422\n        /* \"contracts/UniswapV2Pair_flattened.sol\":13806:13859  uint256 denominator = rootK * feeToSetter + rootKLast */\n      dup3\n        /* \"contracts/UniswapV2Pair_flattened.sol\":13901:13910  numerator */\n      dup5\n        /* \"contracts/UniswapV2Pair_flattened.sol\":13901:13924  numerator / denominator */\n      tag_258\n      jump\t// in\n    tag_422:\n        /* \"contracts/UniswapV2Pair_flattened.sol\":13881:13924  uint256 liquidity = numerator / denominator */\n      swap1\n      pop\n        /* \"contracts/UniswapV2Pair_flattened.sol\":13950:13963  liquidity > 0 */\n      dup1\n      iszero\n        /* \"contracts/UniswapV2Pair_flattened.sol\":13946:13988  if (liquidity > 0) _mint(feeTo, liquidity) */\n      tag_424\n      jumpi\n        /* \"contracts/UniswapV2Pair_flattened.sol\":13965:13988  _mint(feeTo, liquidity) */\n      tag_424\n        /* \"contracts/UniswapV2Pair_flattened.sol\":13971:13976  feeTo */\n      dup8\n        /* \"contracts/UniswapV2Pair_flattened.sol\":13978:13987  liquidity */\n      dup3\n        /* \"contracts/UniswapV2Pair_flattened.sol\":13965:13970  _mint */\n      tag_253\n        /* \"contracts/UniswapV2Pair_flattened.sol\":13965:13988  _mint(feeTo, liquidity) */\n      jump\t// in\n    tag_424:\n        /* \"contracts/UniswapV2Pair_flattened.sol\":13686:14007  if (rootK > rootKLast) {... */\n      pop\n      pop\n      pop\n    tag_417:\n        /* \"contracts/UniswapV2Pair_flattened.sol\":13521:14021  if (_kLast != 0) {... */\n      pop\n      pop\n    tag_413:\n        /* \"contracts/UniswapV2Pair_flattened.sol\":13496:14088  if (feeOn) {... */\n      jump(tag_426)\n    tag_412:\n        /* \"contracts/UniswapV2Pair_flattened.sol\":14041:14052  _kLast != 0 */\n      dup1\n      iszero\n        /* \"contracts/UniswapV2Pair_flattened.sol\":14037:14088  if (_kLast != 0) {... */\n      tag_426\n      jumpi\n        /* \"contracts/UniswapV2Pair_flattened.sol\":14076:14077  0 */\n      0x00\n        /* \"contracts/UniswapV2Pair_flattened.sol\":14068:14073  kLast */\n      0x0d\n        /* \"contracts/UniswapV2Pair_flattened.sol\":14068:14077  kLast = 0 */\n      sstore\n        /* \"contracts/UniswapV2Pair_flattened.sol\":14037:14088  if (_kLast != 0) {... */\n    tag_426:\n        /* \"contracts/UniswapV2Pair_flattened.sol\":13235:14094  function _mintFee(... */\n      pop\n      pop\n      swap3\n      swap2\n      pop\n      pop\n      jump\t// out\n        /* \"contracts/UniswapV2Pair_flattened.sol\":6765:7066  function sqrt(uint256 y) internal pure returns (uint256 z) {... */\n    tag_250:\n        /* \"contracts/UniswapV2Pair_flattened.sol\":6813:6822  uint256 z */\n      0x00\n        /* \"contracts/UniswapV2Pair_flattened.sol\":6842:6843  3 */\n      0x03\n        /* \"contracts/UniswapV2Pair_flattened.sol\":6838:6839  y */\n      dup3\n        /* \"contracts/UniswapV2Pair_flattened.sol\":6838:6843  y > 3 */\n      gt\n        /* \"contracts/UniswapV2Pair_flattened.sol\":6834:7060  if (y > 3) {... */\n      iszero\n      tag_428\n      jumpi\n      pop\n        /* \"contracts/UniswapV2Pair_flattened.sol\":6863:6864  y */\n      dup1\n        /* \"contracts/UniswapV2Pair_flattened.sol\":6878:6887  uint256 x */\n      0x00\n        /* \"contracts/UniswapV2Pair_flattened.sol\":6890:6895  y / 2 */\n      tag_429\n        /* \"contracts/UniswapV2Pair_flattened.sol\":6894:6895  2 */\n      0x02\n        /* \"contracts/UniswapV2Pair_flattened.sol\":6863:6864  y */\n      dup4\n        /* \"contracts/UniswapV2Pair_flattened.sol\":6890:6895  y / 2 */\n      tag_258\n      jump\t// in\n    tag_429:\n        /* \"contracts/UniswapV2Pair_flattened.sol\":6890:6899  y / 2 + 1 */\n      tag_430\n      swap1\n        /* \"contracts/UniswapV2Pair_flattened.sol\":6898:6899  1 */\n      0x01\n        /* \"contracts/UniswapV2Pair_flattened.sol\":6890:6899  y / 2 + 1 */\n      tag_404\n      jump\t// in\n    tag_430:\n        /* \"contracts/UniswapV2Pair_flattened.sol\":6878:6899  uint256 x = y / 2 + 1 */\n      swap1\n      pop\n        /* \"contracts/UniswapV2Pair_flattened.sol\":6913:7002  while (x < z) {... */\n    tag_431:\n        /* \"contracts/UniswapV2Pair_flattened.sol\":6924:6925  z */\n      dup2\n        /* \"contracts/UniswapV2Pair_flattened.sol\":6920:6921  x */\n      dup2\n        /* \"contracts/UniswapV2Pair_flattened.sol\":6920:6925  x < z */\n      lt\n        /* \"contracts/UniswapV2Pair_flattened.sol\":6913:7002  while (x < z) {... */\n      iszero\n      tag_432\n      jumpi\n        /* \"contracts/UniswapV2Pair_flattened.sol\":6949:6950  x */\n      swap1\n      pop\n      dup1\n        /* \"contracts/UniswapV2Pair_flattened.sol\":6986:6987  2 */\n      0x02\n        /* \"contracts/UniswapV2Pair_flattened.sol\":6949:6950  x */\n      dup2\n        /* \"contracts/UniswapV2Pair_flattened.sol\":6973:6978  y / x */\n      tag_433\n        /* \"contracts/UniswapV2Pair_flattened.sol\":6949:6950  x */\n      dup2\n        /* \"contracts/UniswapV2Pair_flattened.sol\":6973:6974  y */\n      dup7\n        /* \"contracts/UniswapV2Pair_flattened.sol\":6973:6978  y / x */\n      tag_258\n      jump\t// in\n    tag_433:\n        /* \"contracts/UniswapV2Pair_flattened.sol\":6973:6982  y / x + x */\n      tag_434\n      swap2\n      swap1\n      tag_404\n      jump\t// in\n    tag_434:\n        /* \"contracts/UniswapV2Pair_flattened.sol\":6972:6987  (y / x + x) / 2 */\n      tag_435\n      swap2\n      swap1\n      tag_258\n      jump\t// in\n    tag_435:\n        /* \"contracts/UniswapV2Pair_flattened.sol\":6968:6987  x = (y / x + x) / 2 */\n      swap1\n      pop\n        /* \"contracts/UniswapV2Pair_flattened.sol\":6913:7002  while (x < z) {... */\n      jump(tag_431)\n    tag_432:\n        /* \"contracts/UniswapV2Pair_flattened.sol\":6834:7060  if (y > 3) {... */\n      pop\n        /* \"contracts/UniswapV2Pair_flattened.sol\":6765:7066  function sqrt(uint256 y) internal pure returns (uint256 z) {... */\n      swap2\n      swap1\n      pop\n      jump\t// out\n        /* \"contracts/UniswapV2Pair_flattened.sol\":6834:7060  if (y > 3) {... */\n    tag_428:\n        /* \"contracts/UniswapV2Pair_flattened.sol\":7022:7028  y != 0 */\n      dup2\n      iszero\n        /* \"contracts/UniswapV2Pair_flattened.sol\":7018:7060  if (y != 0) {... */\n      tag_437\n      jumpi\n      pop\n        /* \"contracts/UniswapV2Pair_flattened.sol\":7048:7049  1 */\n      0x01\n        /* \"contracts/UniswapV2Pair_flattened.sol\":7018:7060  if (y != 0) {... */\n    tag_437:\n        /* \"contracts/UniswapV2Pair_flattened.sol\":6765:7066  function sqrt(uint256 y) internal pure returns (uint256 z) {... */\n      swap2\n      swap1\n      pop\n      jump\t// out\n        /* \"contracts/UniswapV2Pair_flattened.sol\":4073:4239  function _mint(address to, uint256 value) internal {... */\n    tag_253:\n        /* \"contracts/UniswapV2Pair_flattened.sol\":4149:4154  value */\n      dup1\n        /* \"contracts/UniswapV2Pair_flattened.sol\":4134:4145  totalSupply */\n      0x00\n      dup1\n        /* \"contracts/UniswapV2Pair_flattened.sol\":4134:4154  totalSupply += value */\n      dup3\n      dup3\n      sload\n      tag_439\n      swap2\n      swap1\n      tag_404\n      jump\t// in\n    tag_439:\n      swap1\n      swap2\n      sstore\n      pop\n      pop\n      sub(shl(0xa0, 0x01), 0x01)\n        /* \"contracts/UniswapV2Pair_flattened.sol\":4164:4177  balanceOf[to] */\n      dup3\n      and\n      0x00\n      swap1\n      dup2\n      mstore\n        /* \"contracts/UniswapV2Pair_flattened.sol\":4164:4173  balanceOf */\n      0x01\n        /* \"contracts/UniswapV2Pair_flattened.sol\":4164:4177  balanceOf[to] */\n      0x20\n      mstore\n      0x40\n      dup2\n      keccak256\n        /* \"contracts/UniswapV2Pair_flattened.sol\":4164:4186  balanceOf[to] += value */\n      dup1\n      sload\n        /* \"contracts/UniswapV2Pair_flattened.sol\":4181:4186  value */\n      dup4\n      swap3\n        /* \"contracts/UniswapV2Pair_flattened.sol\":4164:4177  balanceOf[to] */\n      swap1\n        /* \"contracts/UniswapV2Pair_flattened.sol\":4164:4186  balanceOf[to] += value */\n      tag_440\n      swap1\n        /* \"contracts/UniswapV2Pair_flattened.sol\":4181:4186  value */\n      dup5\n      swap1\n        /* \"contracts/UniswapV2Pair_flattened.sol\":4164:4186  balanceOf[to] += value */\n      tag_404\n      jump\t// in\n    tag_440:\n      swap1\n      swap2\n      sstore\n      pop\n      pop\n        /* \"contracts/UniswapV2Pair_flattened.sol\":4201:4232  Transfer(address(0), to, value) */\n      mload(0x40)\n        /* \"#utility.yul\":6160:6185   */\n      dup2\n      dup2\n      mstore\n      sub(shl(0xa0, 0x01), 0x01)\n        /* \"contracts/UniswapV2Pair_flattened.sol\":4201:4232  Transfer(address(0), to, value) */\n      dup4\n      and\n      swap1\n        /* \"contracts/UniswapV2Pair_flattened.sol\":4218:4219  0 */\n      0x00\n      swap1\n        /* \"contracts/UniswapV2Pair_flattened.sol\":4201:4232  Transfer(address(0), to, value) */\n      0xddf252ad1be2c89b69c2b068fc378daa952ba7f163c4a11628f55a4df523b3ef\n      swap1\n        /* \"#utility.yul\":6148:6150   */\n      0x20\n        /* \"#utility.yul\":6133:6151   */\n      add\n        /* \"contracts/UniswapV2Pair_flattened.sol\":4201:4232  Transfer(address(0), to, value) */\n    tag_441:\n      mload(0x40)\n      dup1\n      swap2\n      sub\n      swap1\n      log3\n        /* \"contracts/UniswapV2Pair_flattened.sol\":4073:4239  function _mint(address to, uint256 value) internal {... */\n      pop\n      pop\n      jump\t// out\n        /* \"contracts/UniswapV2Pair_flattened.sol\":6547:6650  function min(uint256 x, uint256 y) internal pure returns (uint256 z) {... */\n    tag_261:\n        /* \"contracts/UniswapV2Pair_flattened.sol\":6605:6614  uint256 z */\n      0x00\n        /* \"contracts/UniswapV2Pair_flattened.sol\":6634:6635  y */\n      dup2\n        /* \"contracts/UniswapV2Pair_flattened.sol\":6630:6631  x */\n      dup4\n        /* \"contracts/UniswapV2Pair_flattened.sol\":6630:6635  x < y */\n      lt\n        /* \"contracts/UniswapV2Pair_flattened.sol\":6630:6643  x < y ? x : y */\n      tag_443\n      jumpi\n        /* \"contracts/UniswapV2Pair_flattened.sol\":6642:6643  y */\n      dup2\n        /* \"contracts/UniswapV2Pair_flattened.sol\":6630:6643  x < y ? x : y */\n      jump(tag_444)\n    tag_443:\n        /* \"contracts/UniswapV2Pair_flattened.sol\":6638:6639  x */\n      dup3\n        /* \"contracts/UniswapV2Pair_flattened.sol\":6630:6643  x < y ? x : y */\n    tag_444:\n        /* \"contracts/UniswapV2Pair_flattened.sol\":6626:6643  z = x < y ? x : y */\n      swap4\n        /* \"contracts/UniswapV2Pair_flattened.sol\":6547:6650  function min(uint256 x, uint256 y) internal pure returns (uint256 z) {... */\n      swap3\n      pop\n      pop\n      pop\n      jump\t// out\n        /* \"contracts/UniswapV2Pair_flattened.sol\":4245:4417  function _burn(address from, uint256 value) internal {... */\n    tag_295:\n      sub(shl(0xa0, 0x01), 0x01)\n        /* \"contracts/UniswapV2Pair_flattened.sol\":4308:4323  balanceOf[from] */\n      dup3\n      and\n      0x00\n      swap1\n      dup2\n      mstore\n        /* \"contracts/UniswapV2Pair_flattened.sol\":4308:4317  balanceOf */\n      0x01\n        /* \"contracts/UniswapV2Pair_flattened.sol\":4308:4323  balanceOf[from] */\n      0x20\n      mstore\n      0x40\n      dup2\n      keccak256\n        /* \"contracts/UniswapV2Pair_flattened.sol\":4308:4332  balanceOf[from] -= value */\n      dup1\n      sload\n        /* \"contracts/UniswapV2Pair_flattened.sol\":4327:4332  value */\n      dup4\n      swap3\n        /* \"contracts/UniswapV2Pair_flattened.sol\":4308:4323  balanceOf[from] */\n      swap1\n        /* \"contracts/UniswapV2Pair_flattened.sol\":4308:4332  balanceOf[from] -= value */\n      tag_446\n      swap1\n        /* \"contracts/UniswapV2Pair_flattened.sol\":4327:4332  value */\n      dup5\n      swap1\n        /* \"contracts/UniswapV2Pair_flattened.sol\":4308:4332  balanceOf[from] -= value */\n      tag_184\n      jump\t// in\n    tag_446:\n      swap3\n      pop\n      pop\n      dup2\n      swap1\n      sstore\n      pop\n        /* \"contracts/UniswapV2Pair_flattened.sol\":4357:4362  value */\n      dup1\n        /* \"contracts/UniswapV2Pair_flattened.sol\":4342:4353  totalSupply */\n      0x00\n      dup1\n        /* \"contracts/UniswapV2Pair_flattened.sol\":4342:4362  totalSupply -= value */\n      dup3\n      dup3\n      sload\n      tag_447\n      swap2\n      swap1\n      tag_184\n      jump\t// in\n    tag_447:\n      swap1\n      swap2\n      sstore\n      pop\n      pop\n        /* \"contracts/UniswapV2Pair_flattened.sol\":4377:4410  Transfer(from, address(0), value) */\n      mload(0x40)\n        /* \"#utility.yul\":6160:6185   */\n      dup2\n      dup2\n      mstore\n        /* \"contracts/UniswapV2Pair_flattened.sol\":4400:4401  0 */\n      0x00\n      swap1\n      sub(shl(0xa0, 0x01), 0x01)\n        /* \"contracts/UniswapV2Pair_flattened.sol\":4377:4410  Transfer(from, address(0), value) */\n      dup5\n      and\n      swap1\n      0xddf252ad1be2c89b69c2b068fc378daa952ba7f163c4a11628f55a4df523b3ef\n      swap1\n        /* \"#utility.yul\":6148:6150   */\n      0x20\n        /* \"#utility.yul\":6133:6151   */\n      add\n        /* \"contracts/UniswapV2Pair_flattened.sol\":4377:4410  Transfer(from, address(0), value) */\n      tag_441\n        /* \"#utility.yul\":6115:6191   */\n      jump\n        /* \"contracts/UniswapV2Pair_flattened.sol\":7407:7525  function encode(uint112 y) internal pure returns (uint224 z) {... */\n    tag_393:\n        /* \"contracts/UniswapV2Pair_flattened.sol\":7457:7466  uint224 z */\n      0x00\n        /* \"contracts/UniswapV2Pair_flattened.sol\":7482:7499  uint224(y) * Q112 */\n      tag_450\n      shl(0x70, 0x01)\n      sub(shl(0x70, 0x01), 0x01)\n        /* \"contracts/UniswapV2Pair_flattened.sol\":7482:7492  uint224(y) */\n      dup5\n      and\n        /* \"contracts/UniswapV2Pair_flattened.sol\":7482:7499  uint224(y) * Q112 */\n      tag_451\n      jump\t// in\n    tag_450:\n        /* \"contracts/UniswapV2Pair_flattened.sol\":7478:7499  z = uint224(y) * Q112 */\n      swap3\n        /* \"contracts/UniswapV2Pair_flattened.sol\":7407:7525  function encode(uint112 y) internal pure returns (uint224 z) {... */\n      swap2\n      pop\n      pop\n      jump\t// out\n        /* \"contracts/UniswapV2Pair_flattened.sol\":7593:7699  function uqdiv(uint224 x, uint112 y) internal pure returns (uint224 z) {... */\n    tag_394:\n        /* \"contracts/UniswapV2Pair_flattened.sol\":7653:7662  uint224 z */\n      0x00\n        /* \"contracts/UniswapV2Pair_flattened.sol\":7678:7692  x / uint224(y) */\n      tag_444\n      sub(shl(0x70, 0x01), 0x01)\n        /* \"contracts/UniswapV2Pair_flattened.sol\":7682:7692  uint224(y) */\n      dup4\n      and\n        /* \"contracts/UniswapV2Pair_flattened.sol\":7678:7679  x */\n      dup5\n        /* \"contracts/UniswapV2Pair_flattened.sol\":7678:7692  x / uint224(y) */\n      tag_454\n      jump\t// in\n        /* \"#utility.yul\":14:271   */\n    tag_95:\n        /* \"#utility.yul\":73:79   */\n      0x00\n        /* \"#utility.yul\":126:128   */\n      0x20\n        /* \"#utility.yul\":114:123   */\n      dup3\n        /* \"#utility.yul\":105:112   */\n      dup5\n        /* \"#utility.yul\":101:124   */\n      sub\n        /* \"#utility.yul\":97:129   */\n      slt\n        /* \"#utility.yul\":94:96   */\n      iszero\n      tag_457\n      jumpi\n        /* \"#utility.yul\":147:153   */\n      dup1\n        /* \"#utility.yul\":139:145   */\n      dup2\n        /* \"#utility.yul\":132:154   */\n      revert\n        /* \"#utility.yul\":94:96   */\n    tag_457:\n        /* \"#utility.yul\":191:200   */\n      dup2\n        /* \"#utility.yul\":178:201   */\n      calldataload\n        /* \"#utility.yul\":210:241   */\n      tag_444\n        /* \"#utility.yul\":235:240   */\n      dup2\n        /* \"#utility.yul\":210:241   */\n      tag_459\n      jump\t// in\n        /* \"#utility.yul\":276:537   */\n    tag_411:\n        /* \"#utility.yul\":346:352   */\n      0x00\n        /* \"#utility.yul\":399:401   */\n      0x20\n        /* \"#utility.yul\":387:396   */\n      dup3\n        /* \"#utility.yul\":378:385   */\n      dup5\n        /* \"#utility.yul\":374:397   */\n      sub\n        /* \"#utility.yul\":370:402   */\n      slt\n        /* \"#utility.yul\":367:369   */\n      iszero\n      tag_461\n      jumpi\n        /* \"#utility.yul\":420:426   */\n      dup1\n        /* \"#utility.yul\":412:418   */\n      dup2\n        /* \"#utility.yul\":405:427   */\n      revert\n        /* \"#utility.yul\":367:369   */\n    tag_461:\n        /* \"#utility.yul\":457:466   */\n      dup2\n        /* \"#utility.yul\":451:467   */\n      mload\n        /* \"#utility.yul\":476:507   */\n      tag_444\n        /* \"#utility.yul\":501:506   */\n      dup2\n        /* \"#utility.yul\":476:507   */\n      tag_459\n      jump\t// in\n        /* \"#utility.yul\":542:940   */\n    tag_82:\n        /* \"#utility.yul\":610:616   */\n      0x00\n        /* \"#utility.yul\":618:624   */\n      dup1\n        /* \"#utility.yul\":671:673   */\n      0x40\n        /* \"#utility.yul\":659:668   */\n      dup4\n        /* \"#utility.yul\":650:657   */\n      dup6\n        /* \"#utility.yul\":646:669   */\n      sub\n        /* \"#utility.yul\":642:674   */\n      slt\n        /* \"#utility.yul\":639:641   */\n      iszero\n      tag_464\n      jumpi\n        /* \"#utility.yul\":692:698   */\n      dup1\n        /* \"#utility.yul\":684:690   */\n      dup2\n        /* \"#utility.yul\":677:699   */\n      revert\n        /* \"#utility.yul\":639:641   */\n    tag_464:\n        /* \"#utility.yul\":736:745   */\n      dup3\n        /* \"#utility.yul\":723:746   */\n      calldataload\n        /* \"#utility.yul\":755:786   */\n      tag_465\n        /* \"#utility.yul\":780:785   */\n      dup2\n        /* \"#utility.yul\":755:786   */\n      tag_459\n      jump\t// in\n    tag_465:\n        /* \"#utility.yul\":805:810   */\n      swap2\n      pop\n        /* \"#utility.yul\":862:864   */\n      0x20\n        /* \"#utility.yul\":847:865   */\n      dup4\n      add\n        /* \"#utility.yul\":834:866   */\n      calldataload\n        /* \"#utility.yul\":875:908   */\n      tag_466\n        /* \"#utility.yul\":834:866   */\n      dup2\n        /* \"#utility.yul\":875:908   */\n      tag_459\n      jump\t// in\n    tag_466:\n        /* \"#utility.yul\":927:934   */\n      dup1\n        /* \"#utility.yul\":917:934   */\n      swap2\n      pop\n      pop\n        /* \"#utility.yul\":629:940   */\n      swap3\n      pop\n      swap3\n      swap1\n      pop\n      jump\t// out\n        /* \"#utility.yul\":945:1411   */\n    tag_66:\n        /* \"#utility.yul\":1022:1028   */\n      0x00\n        /* \"#utility.yul\":1030:1036   */\n      dup1\n        /* \"#utility.yul\":1038:1044   */\n      0x00\n        /* \"#utility.yul\":1091:1093   */\n      0x60\n        /* \"#utility.yul\":1079:1088   */\n      dup5\n        /* \"#utility.yul\":1070:1077   */\n      dup7\n        /* \"#utility.yul\":1066:1089   */\n      sub\n        /* \"#utility.yul\":1062:1094   */\n      slt\n        /* \"#utility.yul\":1059:1061   */\n      iszero\n      tag_468\n      jumpi\n        /* \"#utility.yul\":1112:1118   */\n      dup1\n        /* \"#utility.yul\":1104:1110   */\n      dup2\n        /* \"#utility.yul\":1097:1119   */\n      revert\n        /* \"#utility.yul\":1059:1061   */\n    tag_468:\n        /* \"#utility.yul\":1156:1165   */\n      dup4\n        /* \"#utility.yul\":1143:1166   */\n      calldataload\n        /* \"#utility.yul\":1175:1206   */\n      tag_469\n        /* \"#utility.yul\":1200:1205   */\n      dup2\n        /* \"#utility.yul\":1175:1206   */\n      tag_459\n      jump\t// in\n    tag_469:\n        /* \"#utility.yul\":1225:1230   */\n      swap3\n      pop\n        /* \"#utility.yul\":1282:1284   */\n      0x20\n        /* \"#utility.yul\":1267:1285   */\n      dup5\n      add\n        /* \"#utility.yul\":1254:1286   */\n      calldataload\n        /* \"#utility.yul\":1295:1328   */\n      tag_470\n        /* \"#utility.yul\":1254:1286   */\n      dup2\n        /* \"#utility.yul\":1295:1328   */\n      tag_459\n      jump\t// in\n    tag_470:\n        /* \"#utility.yul\":1049:1411   */\n      swap3\n      swap6\n        /* \"#utility.yul\":1347:1354   */\n      swap3\n      swap5\n      pop\n      pop\n      pop\n        /* \"#utility.yul\":1401:1403   */\n      0x40\n        /* \"#utility.yul\":1386:1404   */\n      swap2\n      swap1\n      swap2\n      add\n        /* \"#utility.yul\":1373:1405   */\n      calldataload\n      swap1\n        /* \"#utility.yul\":1049:1411   */\n      jump\t// out\n        /* \"#utility.yul\":1416:2265   */\n    tag_135:\n        /* \"#utility.yul\":1527:1533   */\n      0x00\n        /* \"#utility.yul\":1535:1541   */\n      dup1\n        /* \"#utility.yul\":1543:1549   */\n      0x00\n        /* \"#utility.yul\":1551:1557   */\n      dup1\n        /* \"#utility.yul\":1559:1565   */\n      0x00\n        /* \"#utility.yul\":1567:1573   */\n      dup1\n        /* \"#utility.yul\":1575:1581   */\n      0x00\n        /* \"#utility.yul\":1628:1631   */\n      0xe0\n        /* \"#utility.yul\":1616:1625   */\n      dup9\n        /* \"#utility.yul\":1607:1614   */\n      dup11\n        /* \"#utility.yul\":1603:1626   */\n      sub\n        /* \"#utility.yul\":1599:1632   */\n      slt\n        /* \"#utility.yul\":1596:1598   */\n      iszero\n      tag_472\n      jumpi\n        /* \"#utility.yul\":1650:1656   */\n      dup3\n        /* \"#utility.yul\":1642:1648   */\n      dup4\n        /* \"#utility.yul\":1635:1657   */\n      revert\n        /* \"#utility.yul\":1596:1598   */\n    tag_472:\n        /* \"#utility.yul\":1694:1703   */\n      dup8\n        /* \"#utility.yul\":1681:1704   */\n      calldataload\n        /* \"#utility.yul\":1713:1744   */\n      tag_473\n        /* \"#utility.yul\":1738:1743   */\n      dup2\n        /* \"#utility.yul\":1713:1744   */\n      tag_459\n      jump\t// in\n    tag_473:\n        /* \"#utility.yul\":1763:1768   */\n      swap7\n      pop\n        /* \"#utility.yul\":1820:1822   */\n      0x20\n        /* \"#utility.yul\":1805:1823   */\n      dup9\n      add\n        /* \"#utility.yul\":1792:1824   */\n      calldataload\n        /* \"#utility.yul\":1833:1866   */\n      tag_474\n        /* \"#utility.yul\":1792:1824   */\n      dup2\n        /* \"#utility.yul\":1833:1866   */\n      tag_459\n      jump\t// in\n    tag_474:\n        /* \"#utility.yul\":1885:1892   */\n      swap6\n      pop\n        /* \"#utility.yul\":1939:1941   */\n      0x40\n        /* \"#utility.yul\":1924:1942   */\n      dup9\n      add\n        /* \"#utility.yul\":1911:1943   */\n      calldataload\n      swap5\n      pop\n        /* \"#utility.yul\":1990:1992   */\n      0x60\n        /* \"#utility.yul\":1975:1993   */\n      dup9\n      add\n        /* \"#utility.yul\":1962:1994   */\n      calldataload\n      swap4\n      pop\n        /* \"#utility.yul\":2046:2049   */\n      0x80\n        /* \"#utility.yul\":2031:2050   */\n      dup9\n      add\n        /* \"#utility.yul\":2018:2051   */\n      calldataload\n        /* \"#utility.yul\":2095:2099   */\n      0xff\n        /* \"#utility.yul\":2082:2100   */\n      dup2\n      and\n        /* \"#utility.yul\":2070:2101   */\n      dup2\n      eq\n        /* \"#utility.yul\":2060:2062   */\n      tag_475\n      jumpi\n        /* \"#utility.yul\":2120:2126   */\n      dup4\n        /* \"#utility.yul\":2112:2118   */\n      dup5\n        /* \"#utility.yul\":2105:2127   */\n      revert\n        /* \"#utility.yul\":2060:2062   */\n    tag_475:\n        /* \"#utility.yul\":1586:2265   */\n      swap7\n      swap10\n      swap6\n      swap9\n      pop\n      swap4\n      swap7\n      swap3\n      swap6\n        /* \"#utility.yul\":2148:2155   */\n      swap5\n        /* \"#utility.yul\":2202:2205   */\n      0xa0\n        /* \"#utility.yul\":2187:2206   */\n      dup5\n      add\n        /* \"#utility.yul\":2174:2207   */\n      calldataload\n      swap5\n      pop\n        /* \"#utility.yul\":2254:2257   */\n      0xc0\n        /* \"#utility.yul\":2239:2258   */\n      swap1\n      swap4\n      add\n        /* \"#utility.yul\":2226:2259   */\n      calldataload\n      swap3\n        /* \"#utility.yul\":1586:2265   */\n      swap2\n      pop\n      pop\n      jump\t// out\n        /* \"#utility.yul\":2270:2595   */\n    tag_52:\n        /* \"#utility.yul\":2338:2344   */\n      0x00\n        /* \"#utility.yul\":2346:2352   */\n      dup1\n        /* \"#utility.yul\":2399:2401   */\n      0x40\n        /* \"#utility.yul\":2387:2396   */\n      dup4\n        /* \"#utility.yul\":2378:2385   */\n      dup6\n        /* \"#utility.yul\":2374:2397   */\n      sub\n        /* \"#utility.yul\":2370:2402   */\n      slt\n        /* \"#utility.yul\":2367:2369   */\n      iszero\n      tag_477\n      jumpi\n        /* \"#utility.yul\":2420:2426   */\n      dup2\n        /* \"#utility.yul\":2412:2418   */\n      dup3\n        /* \"#utility.yul\":2405:2427   */\n      revert\n        /* \"#utility.yul\":2367:2369   */\n    tag_477:\n        /* \"#utility.yul\":2464:2473   */\n      dup3\n        /* \"#utility.yul\":2451:2474   */\n      calldataload\n        /* \"#utility.yul\":2483:2514   */\n      tag_478\n        /* \"#utility.yul\":2508:2513   */\n      dup2\n        /* \"#utility.yul\":2483:2514   */\n      tag_459\n      jump\t// in\n    tag_478:\n        /* \"#utility.yul\":2533:2538   */\n      swap5\n        /* \"#utility.yul\":2585:2587   */\n      0x20\n        /* \"#utility.yul\":2570:2588   */\n      swap4\n      swap1\n      swap4\n      add\n        /* \"#utility.yul\":2557:2589   */\n      calldataload\n      swap4\n      pop\n      pop\n      pop\n        /* \"#utility.yul\":2357:2595   */\n      jump\t// out\n        /* \"#utility.yul\":2600:2897   */\n    tag_377:\n        /* \"#utility.yul\":2667:2673   */\n      0x00\n        /* \"#utility.yul\":2720:2722   */\n      0x20\n        /* \"#utility.yul\":2708:2717   */\n      dup3\n        /* \"#utility.yul\":2699:2706   */\n      dup5\n        /* \"#utility.yul\":2695:2718   */\n      sub\n        /* \"#utility.yul\":2691:2723   */\n      slt\n        /* \"#utility.yul\":2688:2690   */\n      iszero\n      tag_480\n      jumpi\n        /* \"#utility.yul\":2741:2747   */\n      dup1\n        /* \"#utility.yul\":2733:2739   */\n      dup2\n        /* \"#utility.yul\":2726:2748   */\n      revert\n        /* \"#utility.yul\":2688:2690   */\n    tag_480:\n        /* \"#utility.yul\":2778:2787   */\n      dup2\n        /* \"#utility.yul\":2772:2788   */\n      mload\n        /* \"#utility.yul\":2831:2836   */\n      dup1\n        /* \"#utility.yul\":2824:2837   */\n      iszero\n        /* \"#utility.yul\":2817:2838   */\n      iszero\n        /* \"#utility.yul\":2810:2815   */\n      dup2\n        /* \"#utility.yul\":2807:2839   */\n      eq\n        /* \"#utility.yul\":2797:2799   */\n      tag_444\n      jumpi\n        /* \"#utility.yul\":2858:2864   */\n      dup2\n        /* \"#utility.yul\":2850:2856   */\n      dup3\n        /* \"#utility.yul\":2843:2865   */\n      revert\n        /* \"#utility.yul\":2902:3096   */\n    tag_177:\n        /* \"#utility.yul\":2972:2978   */\n      0x00\n        /* \"#utility.yul\":3025:3027   */\n      0x20\n        /* \"#utility.yul\":3013:3022   */\n      dup3\n        /* \"#utility.yul\":3004:3011   */\n      dup5\n        /* \"#utility.yul\":3000:3023   */\n      sub\n        /* \"#utility.yul\":2996:3028   */\n      slt\n        /* \"#utility.yul\":2993:2995   */\n      iszero\n      tag_483\n      jumpi\n        /* \"#utility.yul\":3046:3052   */\n      dup1\n        /* \"#utility.yul\":3038:3044   */\n      dup2\n        /* \"#utility.yul\":3031:3053   */\n      revert\n        /* \"#utility.yul\":2993:2995   */\n    tag_483:\n      pop\n        /* \"#utility.yul\":3074:3090   */\n      mload\n      swap2\n        /* \"#utility.yul\":2983:3096   */\n      swap1\n      pop\n      jump\t// out\n        /* \"#utility.yul\":3101:4014   */\n    tag_40:\n        /* \"#utility.yul\":3198:3204   */\n      0x00\n        /* \"#utility.yul\":3206:3212   */\n      dup1\n        /* \"#utility.yul\":3214:3220   */\n      0x00\n        /* \"#utility.yul\":3222:3228   */\n      dup1\n        /* \"#utility.yul\":3230:3236   */\n      0x00\n        /* \"#utility.yul\":3283:3286   */\n      0x80\n        /* \"#utility.yul\":3271:3280   */\n      dup7\n        /* \"#utility.yul\":3262:3269   */\n      dup9\n        /* \"#utility.yul\":3258:3281   */\n      sub\n        /* \"#utility.yul\":3254:3287   */\n      slt\n        /* \"#utility.yul\":3251:3253   */\n      iszero\n      tag_485\n      jumpi\n        /* \"#utility.yul\":3305:3311   */\n      dup1\n        /* \"#utility.yul\":3297:3303   */\n      dup2\n        /* \"#utility.yul\":3290:3312   */\n      revert\n        /* \"#utility.yul\":3251:3253   */\n    tag_485:\n        /* \"#utility.yul\":3346:3355   */\n      dup6\n        /* \"#utility.yul\":3333:3356   */\n      calldataload\n        /* \"#utility.yul\":3323:3356   */\n      swap5\n      pop\n        /* \"#utility.yul\":3403:3405   */\n      0x20\n        /* \"#utility.yul\":3392:3401   */\n      dup7\n        /* \"#utility.yul\":3388:3406   */\n      add\n        /* \"#utility.yul\":3375:3407   */\n      calldataload\n        /* \"#utility.yul\":3365:3407   */\n      swap4\n      pop\n        /* \"#utility.yul\":3457:3459   */\n      0x40\n        /* \"#utility.yul\":3446:3455   */\n      dup7\n        /* \"#utility.yul\":3442:3460   */\n      add\n        /* \"#utility.yul\":3429:3461   */\n      calldataload\n        /* \"#utility.yul\":3470:3501   */\n      tag_486\n        /* \"#utility.yul\":3495:3500   */\n      dup2\n        /* \"#utility.yul\":3470:3501   */\n      tag_459\n      jump\t// in\n    tag_486:\n        /* \"#utility.yul\":3520:3525   */\n      swap3\n      pop\n        /* \"#utility.yul\":3576:3578   */\n      0x60\n        /* \"#utility.yul\":3561:3579   */\n      dup7\n      add\n        /* \"#utility.yul\":3548:3580   */\n      calldataload\n        /* \"#utility.yul\":3599:3617   */\n      0xffffffffffffffff\n        /* \"#utility.yul\":3629:3643   */\n      dup1\n      dup3\n      gt\n        /* \"#utility.yul\":3626:3628   */\n      iszero\n      tag_487\n      jumpi\n        /* \"#utility.yul\":3661:3667   */\n      dup3\n        /* \"#utility.yul\":3653:3659   */\n      dup4\n        /* \"#utility.yul\":3646:3668   */\n      revert\n        /* \"#utility.yul\":3626:3628   */\n    tag_487:\n        /* \"#utility.yul\":3704:3710   */\n      dup2\n        /* \"#utility.yul\":3693:3702   */\n      dup9\n        /* \"#utility.yul\":3689:3711   */\n      add\n        /* \"#utility.yul\":3679:3711   */\n      swap2\n      pop\n        /* \"#utility.yul\":3749:3756   */\n      dup9\n        /* \"#utility.yul\":3742:3746   */\n      0x1f\n        /* \"#utility.yul\":3738:3740   */\n      dup4\n        /* \"#utility.yul\":3734:3747   */\n      add\n        /* \"#utility.yul\":3730:3757   */\n      slt\n        /* \"#utility.yul\":3720:3722   */\n      tag_488\n      jumpi\n        /* \"#utility.yul\":3776:3782   */\n      dup3\n        /* \"#utility.yul\":3768:3774   */\n      dup4\n        /* \"#utility.yul\":3761:3783   */\n      revert\n        /* \"#utility.yul\":3720:3722   */\n    tag_488:\n        /* \"#utility.yul\":3821:3823   */\n      dup2\n        /* \"#utility.yul\":3808:3824   */\n      calldataload\n        /* \"#utility.yul\":3847:3849   */\n      dup2\n        /* \"#utility.yul\":3839:3845   */\n      dup2\n        /* \"#utility.yul\":3836:3850   */\n      gt\n        /* \"#utility.yul\":3833:3835   */\n      iszero\n      tag_489\n      jumpi\n        /* \"#utility.yul\":3868:3874   */\n      dup4\n        /* \"#utility.yul\":3860:3866   */\n      dup5\n        /* \"#utility.yul\":3853:3875   */\n      revert\n        /* \"#utility.yul\":3833:3835   */\n    tag_489:\n        /* \"#utility.yul\":3918:3925   */\n      dup10\n        /* \"#utility.yul\":3913:3915   */\n      0x20\n        /* \"#utility.yul\":3904:3910   */\n      dup3\n        /* \"#utility.yul\":3900:3902   */\n      dup6\n        /* \"#utility.yul\":3896:3911   */\n      add\n        /* \"#utility.yul\":3892:3916   */\n      add\n        /* \"#utility.yul\":3889:3926   */\n      gt\n        /* \"#utility.yul\":3886:3888   */\n      iszero\n      tag_490\n      jumpi\n        /* \"#utility.yul\":3944:3950   */\n      dup4\n        /* \"#utility.yul\":3936:3942   */\n      dup5\n        /* \"#utility.yul\":3929:3951   */\n      revert\n        /* \"#utility.yul\":3886:3888   */\n    tag_490:\n        /* \"#utility.yul\":3241:4014   */\n      swap7\n      swap10\n      swap6\n      swap9\n      pop\n      swap4\n      swap7\n      pop\n        /* \"#utility.yul\":3980:3982   */\n      0x20\n        /* \"#utility.yul\":3972:3983   */\n      add\n      swap5\n        /* \"#utility.yul\":4002:4008   */\n      swap4\n        /* \"#utility.yul\":3241:4014   */\n      swap3\n      pop\n      pop\n      pop\n      jump\t// out\n        /* \"#utility.yul\":4019:4293   */\n    tag_370:\n        /* \"#utility.yul\":4148:4151   */\n      0x00\n        /* \"#utility.yul\":4186:4192   */\n      dup3\n        /* \"#utility.yul\":4180:4193   */\n      mload\n        /* \"#utility.yul\":4202:4255   */\n      tag_492\n        /* \"#utility.yul\":4248:4254   */\n      dup2\n        /* \"#utility.yul\":4243:4246   */\n      dup5\n        /* \"#utility.yul\":4236:4240   */\n      0x20\n        /* \"#utility.yul\":4228:4234   */\n      dup8\n        /* \"#utility.yul\":4224:4241   */\n      add\n        /* \"#utility.yul\":4202:4255   */\n      tag_493\n      jump\t// in\n    tag_492:\n        /* \"#utility.yul\":4271:4287   */\n      swap2\n      swap1\n      swap2\n      add\n      swap3\n        /* \"#utility.yul\":4156:4293   */\n      swap2\n      pop\n      pop\n      jump\t// out\n        /* \"#utility.yul\":5182:5817   */\n    tag_168:\n        /* \"#utility.yul\":5452:5453   */\n      0x01\n        /* \"#utility.yul\":5448:5449   */\n      dup1\n        /* \"#utility.yul\":5443:5446   */\n      0xa0\n        /* \"#utility.yul\":5439:5450   */\n      shl\n        /* \"#utility.yul\":5435:5454   */\n      sub\n        /* \"#utility.yul\":5427:5433   */\n      dup7\n        /* \"#utility.yul\":5423:5455   */\n      and\n        /* \"#utility.yul\":5412:5421   */\n      dup2\n        /* \"#utility.yul\":5405:5456   */\n      mstore\n        /* \"#utility.yul\":5492:5498   */\n      dup5\n        /* \"#utility.yul\":5487:5489   */\n      0x20\n        /* \"#utility.yul\":5476:5485   */\n      dup3\n        /* \"#utility.yul\":5472:5490   */\n      add\n        /* \"#utility.yul\":5465:5499   */\n      mstore\n        /* \"#utility.yul\":5535:5541   */\n      dup4\n        /* \"#utility.yul\":5530:5532   */\n      0x40\n        /* \"#utility.yul\":5519:5528   */\n      dup3\n        /* \"#utility.yul\":5515:5533   */\n      add\n        /* \"#utility.yul\":5508:5542   */\n      mstore\n        /* \"#utility.yul\":5578:5581   */\n      0x80\n        /* \"#utility.yul\":5573:5575   */\n      0x60\n        /* \"#utility.yul\":5562:5571   */\n      dup3\n        /* \"#utility.yul\":5558:5576   */\n      add\n        /* \"#utility.yul\":5551:5582   */\n      mstore\n        /* \"#utility.yul\":5619:5625   */\n      dup2\n        /* \"#utility.yul\":5613:5616   */\n      0x80\n        /* \"#utility.yul\":5602:5611   */\n      dup3\n        /* \"#utility.yul\":5598:5617   */\n      add\n        /* \"#utility.yul\":5591:5626   */\n      mstore\n        /* \"#utility.yul\":5677:5683   */\n      dup2\n        /* \"#utility.yul\":5669:5675   */\n      dup4\n        /* \"#utility.yul\":5663:5666   */\n      0xa0\n        /* \"#utility.yul\":5652:5661   */\n      dup4\n        /* \"#utility.yul\":5648:5667   */\n      add\n        /* \"#utility.yul\":5635:5684   */\n      calldatacopy\n        /* \"#utility.yul\":5386:5390   */\n      0x00\n        /* \"#utility.yul\":5704:5726   */\n      dup2\n      dup4\n      add\n        /* \"#utility.yul\":5728:5731   */\n      0xa0\n        /* \"#utility.yul\":5700:5732   */\n      swap1\n      dup2\n      add\n        /* \"#utility.yul\":5693:5739   */\n      swap2\n      swap1\n      swap2\n      mstore\n        /* \"#utility.yul\":5800:5802   */\n      0x1f\n        /* \"#utility.yul\":5779:5794   */\n      swap1\n      swap3\n      add\n      not(0x1f)\n        /* \"#utility.yul\":5775:5804   */\n      and\n        /* \"#utility.yul\":5760:5805   */\n      add\n        /* \"#utility.yul\":5756:5811   */\n      add\n      swap5\n        /* \"#utility.yul\":5395:5817   */\n      swap4\n      pop\n      pop\n      pop\n      pop\n      jump\t// out\n        /* \"#utility.yul\":7195:7578   */\n    tag_45:\n        /* \"#utility.yul\":7344:7346   */\n      0x20\n        /* \"#utility.yul\":7333:7342   */\n      dup2\n        /* \"#utility.yul\":7326:7347   */\n      mstore\n        /* \"#utility.yul\":7307:7311   */\n      0x00\n        /* \"#utility.yul\":7376:7382   */\n      dup3\n        /* \"#utility.yul\":7370:7383   */\n      mload\n        /* \"#utility.yul\":7419:7425   */\n      dup1\n        /* \"#utility.yul\":7414:7416   */\n      0x20\n        /* \"#utility.yul\":7403:7412   */\n      dup5\n        /* \"#utility.yul\":7399:7417   */\n      add\n        /* \"#utility.yul\":7392:7426   */\n      mstore\n        /* \"#utility.yul\":7435:7501   */\n      tag_503\n        /* \"#utility.yul\":7494:7500   */\n      dup2\n        /* \"#utility.yul\":7489:7491   */\n      0x40\n        /* \"#utility.yul\":7478:7487   */\n      dup6\n        /* \"#utility.yul\":7474:7492   */\n      add\n        /* \"#utility.yul\":7469:7471   */\n      0x20\n        /* \"#utility.yul\":7461:7467   */\n      dup8\n        /* \"#utility.yul\":7457:7472   */\n      add\n        /* \"#utility.yul\":7435:7501   */\n      tag_493\n      jump\t// in\n    tag_503:\n        /* \"#utility.yul\":7562:7564   */\n      0x1f\n        /* \"#utility.yul\":7541:7556   */\n      add\n      not(0x1f)\n        /* \"#utility.yul\":7537:7566   */\n      and\n        /* \"#utility.yul\":7522:7567   */\n      swap2\n      swap1\n      swap2\n      add\n        /* \"#utility.yul\":7569:7571   */\n      0x40\n        /* \"#utility.yul\":7518:7572   */\n      add\n      swap3\n        /* \"#utility.yul\":7316:7578   */\n      swap2\n      pop\n      pop\n      jump\t// out\n        /* \"#utility.yul\":9850:10191   */\n    tag_146:\n        /* \"#utility.yul\":10052:10054   */\n      0x20\n        /* \"#utility.yul\":10034:10055   */\n      dup1\n      dup3\n      mstore\n        /* \"#utility.yul\":10091:10093   */\n      0x11\n        /* \"#utility.yul\":10071:10089   */\n      swap1\n      dup3\n      add\n        /* \"#utility.yul\":10064:10094   */\n      mstore\n      shl(0x7a, 0x155b9a5cddd85c158c8e881313d0d2d151)\n        /* \"#utility.yul\":10125:10127   */\n      0x40\n        /* \"#utility.yul\":10110:10128   */\n      dup3\n      add\n        /* \"#utility.yul\":10103:10150   */\n      mstore\n        /* \"#utility.yul\":10182:10184   */\n      0x60\n        /* \"#utility.yul\":10167:10185   */\n      add\n      swap1\n        /* \"#utility.yul\":10024:10191   */\n      jump\t// out\n        /* \"#utility.yul\":14153:14281   */\n    tag_404:\n        /* \"#utility.yul\":14193:14196   */\n      0x00\n        /* \"#utility.yul\":14224:14225   */\n      dup3\n        /* \"#utility.yul\":14220:14226   */\n      not\n        /* \"#utility.yul\":14217:14218   */\n      dup3\n        /* \"#utility.yul\":14214:14227   */\n      gt\n        /* \"#utility.yul\":14211:14213   */\n      iszero\n      tag_525\n      jumpi\n        /* \"#utility.yul\":14230:14248   */\n      tag_525\n      tag_526\n      jump\t// in\n    tag_525:\n      pop\n        /* \"#utility.yul\":14266:14275   */\n      add\n      swap1\n        /* \"#utility.yul\":14201:14281   */\n      jump\t// out\n        /* \"#utility.yul\":14286:14487   */\n    tag_454:\n        /* \"#utility.yul\":14326:14327   */\n      0x00\n      sub(shl(0xe0, 0x01), 0x01)\n        /* \"#utility.yul\":14391:14401   */\n      dup4\n      dup2\n      and\n      dup1\n        /* \"#utility.yul\":14410:14412   */\n      tag_529\n      jumpi\n        /* \"#utility.yul\":14427:14445   */\n      tag_529\n      tag_530\n      jump\t// in\n    tag_529:\n        /* \"#utility.yul\":14465:14475   */\n      swap3\n      and\n        /* \"#utility.yul\":14461:14481   */\n      swap2\n      swap1\n      swap2\n      div\n      swap3\n        /* \"#utility.yul\":14332:14487   */\n      swap2\n      pop\n      pop\n      jump\t// out\n        /* \"#utility.yul\":14492:14612   */\n    tag_258:\n        /* \"#utility.yul\":14532:14533   */\n      0x00\n        /* \"#utility.yul\":14558:14559   */\n      dup3\n        /* \"#utility.yul\":14548:14550   */\n      tag_533\n      jumpi\n        /* \"#utility.yul\":14563:14581   */\n      tag_533\n      tag_530\n      jump\t// in\n    tag_533:\n      pop\n        /* \"#utility.yul\":14597:14606   */\n      div\n      swap1\n        /* \"#utility.yul\":14538:14612   */\n      jump\t// out\n        /* \"#utility.yul\":14617:14889   */\n    tag_451:\n        /* \"#utility.yul\":14657:14664   */\n      0x00\n      sub(shl(0xe0, 0x01), 0x01)\n        /* \"#utility.yul\":14728:14738   */\n      dup3\n      dup2\n      and\n        /* \"#utility.yul\":14758:14768   */\n      dup5\n      dup3\n      and\n        /* \"#utility.yul\":14791:14802   */\n      dup2\n      iszero\n        /* \"#utility.yul\":14784:14803   */\n      iszero\n        /* \"#utility.yul\":14813:14825   */\n      dup3\n      dup5\n      div\n        /* \"#utility.yul\":14805:14826   */\n      dup3\n      gt\n        /* \"#utility.yul\":14780:14827   */\n      and\n        /* \"#utility.yul\":14777:14779   */\n      iszero\n      tag_536\n      jumpi\n        /* \"#utility.yul\":14830:14848   */\n      tag_536\n      tag_526\n      jump\t// in\n    tag_536:\n        /* \"#utility.yul\":14870:14883   */\n      mul\n      swap5\n        /* \"#utility.yul\":14669:14889   */\n      swap4\n      pop\n      pop\n      pop\n      pop\n      jump\t// out\n        /* \"#utility.yul\":14894:15062   */\n    tag_199:\n        /* \"#utility.yul\":14934:14941   */\n      0x00\n        /* \"#utility.yul\":15000:15001   */\n      dup2\n        /* \"#utility.yul\":14996:14997   */\n      0x00\n        /* \"#utility.yul\":14992:14998   */\n      not\n        /* \"#utility.yul\":14988:15002   */\n      div\n        /* \"#utility.yul\":14985:14986   */\n      dup4\n        /* \"#utility.yul\":14982:15003   */\n      gt\n        /* \"#utility.yul\":14977:14978   */\n      dup3\n        /* \"#utility.yul\":14970:14979   */\n      iszero\n        /* \"#utility.yul\":14963:14980   */\n      iszero\n        /* \"#utility.yul\":14959:15004   */\n      and\n        /* \"#utility.yul\":14956:14958   */\n      iszero\n      tag_539\n      jumpi\n        /* \"#utility.yul\":15007:15025   */\n      tag_539\n      tag_526\n      jump\t// in\n    tag_539:\n      pop\n        /* \"#utility.yul\":15047:15056   */\n      mul\n      swap1\n        /* \"#utility.yul\":14946:15062   */\n      jump\t// out\n        /* \"#utility.yul\":15067:15192   */\n    tag_184:\n        /* \"#utility.yul\":15107:15111   */\n      0x00\n        /* \"#utility.yul\":15135:15136   */\n      dup3\n        /* \"#utility.yul\":15132:15133   */\n      dup3\n        /* \"#utility.yul\":15129:15137   */\n      lt\n        /* \"#utility.yul\":15126:15128   */\n      iszero\n      tag_542\n      jumpi\n        /* \"#utility.yul\":15140:15158   */\n      tag_542\n      tag_526\n      jump\t// in\n    tag_542:\n      pop\n        /* \"#utility.yul\":15177:15186   */\n      sub\n      swap1\n        /* \"#utility.yul\":15116:15192   */\n      jump\t// out\n        /* \"#utility.yul\":15197:15455   */\n    tag_493:\n        /* \"#utility.yul\":15269:15270   */\n      0x00\n        /* \"#utility.yul\":15279:15392   */\n    tag_544:\n        /* \"#utility.yul\":15293:15299   */\n      dup4\n        /* \"#utility.yul\":15290:15291   */\n      dup2\n        /* \"#utility.yul\":15287:15300   */\n      lt\n        /* \"#utility.yul\":15279:15392   */\n      iszero\n      tag_546\n      jumpi\n        /* \"#utility.yul\":15369:15380   */\n      dup2\n      dup2\n      add\n        /* \"#utility.yul\":15363:15381   */\n      mload\n        /* \"#utility.yul\":15350:15361   */\n      dup4\n      dup3\n      add\n        /* \"#utility.yul\":15343:15382   */\n      mstore\n        /* \"#utility.yul\":15315:15317   */\n      0x20\n        /* \"#utility.yul\":15308:15318   */\n      add\n        /* \"#utility.yul\":15279:15392   */\n      jump(tag_544)\n    tag_546:\n        /* \"#utility.yul\":15410:15416   */\n      dup4\n        /* \"#utility.yul\":15407:15408   */\n      dup2\n        /* \"#utility.yul\":15404:15417   */\n      gt\n        /* \"#utility.yul\":15401:15403   */\n      iszero\n      tag_547\n      jumpi\n        /* \"#utility.yul\":15445:15446   */\n      0x00\n        /* \"#utility.yul\":15436:15442   */\n      dup5\n        /* \"#utility.yul\":15431:15434   */\n      dup5\n        /* \"#utility.yul\":15427:15443   */\n      add\n        /* \"#utility.yul\":15420:15447   */\n      mstore\n        /* \"#utility.yul\":15401:15403   */\n    tag_547:\n      pop\n        /* \"#utility.yul\":15250:15455   */\n      pop\n      pop\n      pop\n      jump\t// out\n        /* \"#utility.yul\":15460:15595   */\n    tag_337:\n        /* \"#utility.yul\":15499:15502   */\n      0x00\n      not(0x00)\n        /* \"#utility.yul\":15520:15537   */\n      dup3\n      eq\n        /* \"#utility.yul\":15517:15519   */\n      iszero\n      tag_550\n      jumpi\n        /* \"#utility.yul\":15540:15558   */\n      tag_550\n      tag_526\n      jump\t// in\n    tag_550:\n      pop\n        /* \"#utility.yul\":15587:15588   */\n      0x01\n        /* \"#utility.yul\":15576:15589   */\n      add\n      swap1\n        /* \"#utility.yul\":15507:15595   */\n      jump\t// out\n        /* \"#utility.yul\":15600:15712   */\n    tag_387:\n        /* \"#utility.yul\":15632:15633   */\n      0x00\n        /* \"#utility.yul\":15658:15659   */\n      dup3\n        /* \"#utility.yul\":15648:15650   */\n      tag_553\n      jumpi\n        /* \"#utility.yul\":15663:15681   */\n      tag_553\n      tag_530\n      jump\t// in\n    tag_553:\n      pop\n        /* \"#utility.yul\":15697:15706   */\n      mod\n      swap1\n        /* \"#utility.yul\":15638:15712   */\n      jump\t// out\n        /* \"#utility.yul\":15717:15844   */\n    tag_526:\n        /* \"#utility.yul\":15778:15788   */\n      0x4e487b71\n        /* \"#utility.yul\":15773:15776   */\n      0xe0\n        /* \"#utility.yul\":15769:15789   */\n      shl\n        /* \"#utility.yul\":15766:15767   */\n      0x00\n        /* \"#utility.yul\":15759:15790   */\n      mstore\n        /* \"#utility.yul\":15809:15813   */\n      0x11\n        /* \"#utility.yul\":15806:15807   */\n      0x04\n        /* \"#utility.yul\":15799:15814   */\n      mstore\n        /* \"#utility.yul\":15833:15837   */\n      0x24\n        /* \"#utility.yul\":15830:15831   */\n      0x00\n        /* \"#utility.yul\":15823:15838   */\n      revert\n        /* \"#utility.yul\":15849:15976   */\n    tag_530:\n        /* \"#utility.yul\":15910:15920   */\n      0x4e487b71\n        /* \"#utility.yul\":15905:15908   */\n      0xe0\n        /* \"#utility.yul\":15901:15921   */\n      shl\n        /* \"#utility.yul\":15898:15899   */\n      0x00\n        /* \"#utility.yul\":15891:15922   */\n      mstore\n        /* \"#utility.yul\":15941:15945   */\n      0x12\n        /* \"#utility.yul\":15938:15939   */\n      0x04\n        /* \"#utility.yul\":15931:15946   */\n      mstore\n        /* \"#utility.yul\":15965:15969   */\n      0x24\n        /* \"#utility.yul\":15962:15963   */\n      0x00\n        /* \"#utility.yul\":15955:15970   */\n      revert\n        /* \"#utility.yul\":15981:16112   */\n    tag_459:\n      sub(shl(0xa0, 0x01), 0x01)\n        /* \"#utility.yul\":16056:16087   */\n      dup2\n      and\n        /* \"#utility.yul\":16046:16088   */\n      dup2\n      eq\n        /* \"#utility.yul\":16036:16038   */\n      tag_557\n      jumpi\n        /* \"#utility.yul\":16102:16103   */\n      0x00\n        /* \"#utility.yul\":16099:16100   */\n      dup1\n        /* \"#utility.yul\":16092:16104   */\n      revert\n        /* \"#utility.yul\":16036:16038   */\n    tag_557:\n        /* \"#utility.yul\":16026:16112   */\n      pop\n      jump\t// out\n\n    auxdata: 0xa26469706673582212202b58db31751f55fadb992be684c499382d07654ef6a49667edad110a8691679064736f6c63430008040033\n}\n",
				"bytecode": {
					"linkReferences": {},
					"object": "60806040526001600e553480156200001657600080fd5b50604051620022fb380380620022fb83398101604081905262000039916200014b565b604080518082018252600a8152692ab734b9bbb0b8102b1960b11b6020918201528151808301835260018152603160f81b9082015281517f8b73c3c69bb8fe3d512ecc4cf759cc79239f7b179b0ffacaa9a75d522b39400f918101919091527fbfcc8ef98ffbf7b6c3fec7bf5185b566b9863e35a9d83acd49ad6824b5969738918101919091527fc89efdaa54c0f20c7adf612882df0950f5a951637e0307cdcb4c672f298b8bc660608201524660808201523060a082015260c00160408051601f198184030181529190528051602090910120600355600580546001600160a01b0319163317905560ff91821660095516600a5562000182565b805160ff811681146200014657600080fd5b919050565b600080604083850312156200015e578182fd5b620001698362000134565b9150620001796020840162000134565b90509250929050565b61216980620001926000396000f3fe608060405234801561001057600080fd5b50600436106101c45760003560e01c80636a627842116100f9578063ba9a7a5611610097578063d21220a711610071578063d21220a71461042c578063d505accf1461043f578063dd62ed3e14610452578063fff6cae91461047d57600080fd5b8063ba9a7a56146103fd578063bc25cf7714610406578063c45a01551461041957600080fd5b80637ecebe00116100d35780637ecebe001461037d57806389afcb441461039d57806395d89b41146103c5578063a9059cbb146103ea57600080fd5b80636a6278421461034157806370a08231146103545780637464fc3d1461037457600080fd5b806330adf81f11610166578063485cc95511610140578063485cc955146103135780634d3314f4146103265780635909c0d51461032f5780635a3d54931461033857600080fd5b806330adf81f146102c9578063313ce567146102f05780633644e5151461030a57600080fd5b8063095ea7b3116101a2578063095ea7b3146102515780630dfe16811461027457806318160ddd1461029f57806323b872dd146102b657600080fd5b8063022c0d9f146101c957806306fdde03146101de5780630902f1ac1461021d575b600080fd5b6101dc6101d7366004611e82565b610485565b005b6102076040518060400160405280600a8152602001692ab734b9bbb0b8102b1960b11b81525081565b6040516102149190611f7b565b60405180910390f35b6102256109c3565b604080516001600160701b03948516815293909216602084015263ffffffff1690820152606001610214565b61026461025f366004611e1f565b6109ed565b6040519015158152602001610214565b600654610287906001600160a01b031681565b6040516001600160a01b039091168152602001610214565b6102a860005481565b604051908152602001610214565b6102646102c4366004611d6a565b610a03565b6102a87f6e71edae12b1b97f4d1f60370fef10105fa2faae0126114a169c64845d6126c981565b6102f8601281565b60405160ff9091168152602001610214565b6102a860035481565b6101dc610321366004611d32565b610a7d565b6102a860095481565b6102a8600b5481565b6102a8600c5481565b6102a861034f366004611cfa565b610afc565b6102a8610362366004611cfa565b60016020526000908152604090205481565b6102a8600d5481565b6102a861038b366004611cfa565b60046020526000908152604090205481565b6103b06103ab366004611cfa565b610de5565b60408051928352602083019190915201610214565b610207604051806040016040528060068152602001652aa72496ab1960d11b81525081565b6102646103f8366004611e1f565b611186565b6102a86103e881565b6101dc610414366004611cfa565b611193565b600554610287906001600160a01b031681565b600754610287906001600160a01b031681565b6101dc61044d366004611daa565b6112b5565b6102a8610460366004611d32565b600260209081526000928352604080842090915290825290205481565b6101dc6114c9565b600e546001146104b05760405162461bcd60e51b81526004016104a790611fae565b60405180910390fd5b6000600e55841515806104c35750600084115b61051d5760405162461bcd60e51b815260206004820152602560248201527f556e697377617056323a20494e53554646494349454e545f4f55545055545f416044820152641353d5539560da1b60648201526084016104a7565b6000806105286109c3565b5091509150816001600160701b03168710801561054d5750806001600160701b031686105b6105a35760405162461bcd60e51b815260206004820152602160248201527f556e697377617056323a20494e53554646494349454e545f4c495155494449546044820152605960f81b60648201526084016104a7565b60065460075460009182916001600160a01b039182169190811690891682148015906105e15750806001600160a01b0316896001600160a01b031614155b6106255760405162461bcd60e51b8152602060048201526015602482015274556e697377617056323a20494e56414c49445f544f60581b60448201526064016104a7565b8a1561063657610636828a8d61160b565b891561064757610647818a8c61160b565b86156106b4576040516304347a1760e21b81526001600160a01b038a16906310d1e85c906106819033908f908f908e908e90600401611f2f565b600060405180830381600087803b15801561069b57600080fd5b505af11580156106af573d6000803e3d6000fd5b505050505b6040516370a0823160e01b81523060048201526001600160a01b038316906370a082319060240160206040518083038186803b1580156106f357600080fd5b505afa158015610707573d6000803e3d6000fd5b505050506040513d601f19601f8201168201806040525081019061072b9190611e6a565b6040516370a0823160e01b81523060048201529094506001600160a01b038216906370a082319060240160206040518083038186803b15801561076d57600080fd5b505afa158015610781573d6000803e3d6000fd5b505050506040513d601f19601f820116820180604052508101906107a59190611e6a565b92505050600089856001600160701b03166107c09190612079565b83116107cd5760006107ea565b6107e08a6001600160701b038716612079565b6107ea9084612079565b905060006108018a6001600160701b038716612079565b831161080e57600061082b565b6108218a6001600160701b038716612079565b61082b9084612079565b9050600082118061083c5750600081115b6108945760405162461bcd60e51b8152602060048201526024808201527f556e697377617056323a20494e53554646494349454e545f494e5055545f414d60448201526313d5539560e21b60648201526084016104a7565b6000600954836108a4919061205a565b6108b0866103e861205a565b6108ba9190612079565b90506000600954836108cc919061205a565b6108d8866103e861205a565b6108e29190612079565b90506108fa6001600160701b03808916908a1661205a565b61090790620f424061205a565b610911828461205a565b101561094e5760405162461bcd60e51b815260206004820152600c60248201526b556e697377617056323a204b60a01b60448201526064016104a7565b505061095c84848888611726565b60408051838152602081018390529081018c9052606081018b90526001600160a01b038a169033907fd78ad95fa46c994b6551d0da85fc275fe613ce37657fb8d5e3d130840159d8229060800160405180910390a350506001600e55505050505050505050565b6008546001600160701b0380821692600160701b830490911691600160e01b900463ffffffff1690565b60006109fa3384846118de565b50600192915050565b6001600160a01b038316600090815260026020908152604080832033845290915281205460001914610a68576001600160a01b038416600090815260026020908152604080832033845290915281208054849290610a62908490612079565b90915550505b610a73848484611940565b5060019392505050565b6005546001600160a01b03163314610ace5760405162461bcd60e51b81526020600482015260146024820152732ab734b9bbb0b82b191d102327a92124a22222a760611b60448201526064016104a7565b600680546001600160a01b039384166001600160a01b03199182161790915560078054929093169116179055565b6000600e54600114610b205760405162461bcd60e51b81526004016104a790611fae565b6000600e81905580610b306109c3565b506006546040516370a0823160e01b81523060048201529294509092506000916001600160a01b03909116906370a082319060240160206040518083038186803b158015610b7d57600080fd5b505afa158015610b91573d6000803e3d6000fd5b505050506040513d601f19601f82011682018060405250810190610bb59190611e6a565b6007546040516370a0823160e01b81523060048201529192506000916001600160a01b03909116906370a082319060240160206040518083038186803b158015610bfe57600080fd5b505afa158015610c12573d6000803e3d6000fd5b505050506040513d601f19601f82011682018060405250810190610c369190611e6a565b90506000610c4d6001600160701b03861684612079565b90506000610c646001600160701b03861684612079565b90506000610c7287876119e1565b60005490915080610cb0576103e8610c92610c8d858761205a565b611b32565b610c9c9190612079565b9850610cab60006103e8611ba2565b610cf7565b610cf46001600160701b038916610cc7838761205a565b610cd19190612017565b6001600160701b038916610ce5848761205a565b610cef9190612017565b611c2b565b98505b60008911610d585760405162461bcd60e51b815260206004820152602860248201527f556e697377617056323a20494e53554646494349454e545f4c495155494449546044820152671657d3525395115160c21b60648201526084016104a7565b610d628a8a611ba2565b610d6e86868a8a611726565b8115610d9757600854610d93906001600160701b03600160701b82048116911661205a565b600d555b604080518581526020810185905233917f4c209b5fc8ad50758f13e2e1088ba56a560dff690a1c6fef26394f4c03821c4f910160405180910390a250506001600e5550949695505050505050565b600080600e54600114610e0a5760405162461bcd60e51b81526004016104a790611fae565b6000600e81905580610e1a6109c3565b506006546007546040516370a0823160e01b81523060048201529395509193506001600160a01b039081169291169060009083906370a082319060240160206040518083038186803b158015610e6f57600080fd5b505afa158015610e83573d6000803e3d6000fd5b505050506040513d601f19601f82011682018060405250810190610ea79190611e6a565b6040516370a0823160e01b81523060048201529091506000906001600160a01b038416906370a082319060240160206040518083038186803b158015610eec57600080fd5b505afa158015610f00573d6000803e3d6000fd5b505050506040513d601f19601f82011682018060405250810190610f249190611e6a565b30600090815260016020526040812054919250610f4188886119e1565b60005490915080610f52868561205a565b610f5c9190612017565b9a5080610f69858561205a565b610f739190612017565b995060008b118015610f85575060008a115b610fe25760405162461bcd60e51b815260206004820152602860248201527f556e697377617056323a20494e53554646494349454e545f4c495155494449546044820152671657d0955493915160c21b60648201526084016104a7565b610fec3084611c43565b610ff7878d8d61160b565b611002868d8c61160b565b6040516370a0823160e01b81523060048201526001600160a01b038816906370a082319060240160206040518083038186803b15801561104157600080fd5b505afa158015611055573d6000803e3d6000fd5b505050506040513d601f19601f820116820180604052508101906110799190611e6a565b6040516370a0823160e01b81523060048201529095506001600160a01b038716906370a082319060240160206040518083038186803b1580156110bb57600080fd5b505afa1580156110cf573d6000803e3d6000fd5b505050506040513d601f19601f820116820180604052508101906110f39190611e6a565b935061110185858b8b611726565b811561112a57600854611126906001600160701b03600160701b82048116911661205a565b600d555b604080518c8152602081018c90526001600160a01b038e169133917fdccd412f0b1252819cb1fd330b93224ca42612892bb3f4f789976e6d81936496910160405180910390a35050505050505050506001600e81905550915091565b60006109fa338484611940565b600e546001146111b55760405162461bcd60e51b81526004016104a790611fae565b6000600e556006546007546008546040516370a0823160e01b81523060048201526001600160a01b03938416939092169161126391849186916001600160701b03169083906370a08231906024015b60206040518083038186803b15801561121c57600080fd5b505afa158015611230573d6000803e3d6000fd5b505050506040513d601f19601f820116820180604052508101906112549190611e6a565b61125e9190612079565b61160b565b6008546040516370a0823160e01b81523060048201526112ab9183918691600160701b90046001600160701b0316906001600160a01b038416906370a0823190602401611204565b50506001600e5550565b428410156112fa5760405162461bcd60e51b8152602060048201526012602482015271155b9a5cddd85c158c8e881156141254915160721b60448201526064016104a7565b6003546001600160a01b038816600090815260046020526040812080549192917f6e71edae12b1b97f4d1f60370fef10105fa2faae0126114a169c64845d6126c9918b918b918b91908761134d836120c0565b909155506040805160208101969096526001600160a01b0394851690860152929091166060840152608083015260a082015260c0810187905260e001604051602081830303815290604052805190602001206040516020016113c692919061190160f01b81526002810192909252602282015260420190565b60408051601f198184030181528282528051602091820120600080855291840180845281905260ff88169284019290925260608301869052608083018590529092509060019060a0016020604051602081039080840390855afa158015611431573d6000803e3d6000fd5b5050604051601f1901519150506001600160a01b038116158015906114675750886001600160a01b0316816001600160a01b0316145b6114b35760405162461bcd60e51b815260206004820152601c60248201527f556e697377617056323a20494e56414c49445f5349474e41545552450000000060448201526064016104a7565b6114be8989896118de565b505050505050505050565b600e546001146114eb5760405162461bcd60e51b81526004016104a790611fae565b6000600e556006546040516370a0823160e01b8152306004820152611604916001600160a01b0316906370a082319060240160206040518083038186803b15801561153557600080fd5b505afa158015611549573d6000803e3d6000fd5b505050506040513d601f19601f8201168201806040525081019061156d9190611e6a565b6007546040516370a0823160e01b81523060048201526001600160a01b03909116906370a082319060240160206040518083038186803b1580156115b057600080fd5b505afa1580156115c4573d6000803e3d6000fd5b505050506040513d601f19601f820116820180604052508101906115e89190611e6a565b6008546001600160701b0380821691600160701b900416611726565b6001600e55565b604080516001600160a01b038481166024830152604480830185905283518084039091018152606490920183526020820180516001600160e01b031663a9059cbb60e01b17905291516000928392908716916116679190611f13565b6000604051808303816000865af19150503d80600081146116a4576040519150601f19603f3d011682016040523d82523d6000602084013e6116a9565b606091505b50915091508180156116d35750805115806116d35750808060200190518101906116d39190611e4a565b61171f5760405162461bcd60e51b815260206004820152601a60248201527f556e697377617056323a205452414e534645525f4641494c454400000000000060448201526064016104a7565b5050505050565b6001600160701b03841180159061174457506001600160701b038311155b6117865760405162461bcd60e51b8152602060048201526013602482015272556e697377617056323a204f564552464c4f5760681b60448201526064016104a7565b6000611797640100000000426120db565b60085490915063ffffffff600160e01b90910481168203908116158015906117c757506001600160701b03841615155b80156117db57506001600160701b03831615155b15611846578063ffffffff16611803856117f486611cc6565b6001600160e01b031690611ce5565b600b80546001600160e01b03929092169290920201905563ffffffff811661182e846117f487611cc6565b600c80546001600160e01b0392909216929092020190555b506008805463ffffffff8316600160e01b026001600160e01b036001600160701b03888116600160701b9081026001600160e01b03199095168b83161794909417918216831794859055604080519382169282169290921783529290930490911660208201527f1c411e9a96e071241c2f21f7726b17ae89e3cab4c78be50e062b03a9fffbbad1910160405180910390a15050505050565b6001600160a01b0383811660008181526002602090815260408083209487168084529482529182902085905590518481527f8c5be1e5ebec7d5bd14f71427d1e84f3dd0314c0f7b2291e5b200ac8c7c3b92591015b60405180910390a3505050565b6001600160a01b03831660009081526001602052604081208054839290611968908490612079565b90915550506001600160a01b03821660009081526001602052604081208054839290611995908490611fd9565b92505081905550816001600160a01b0316836001600160a01b03167fddf252ad1be2c89b69c2b068fc378daa952ba7f163c4a11628f55a4df523b3ef8360405161193391815260200190565b600080600560009054906101000a90046001600160a01b03166001600160a01b031663017e7e586040518163ffffffff1660e01b815260040160206040518083038186803b158015611a3257600080fd5b505afa158015611a46573d6000803e3d6000fd5b505050506040513d601f19601f82011682018060405250810190611a6a9190611d16565b600d546001600160a01b038216158015945091925090611b1e578015611b19576000611aa5610c8d6001600160701b0380881690891661205a565b90506000611ab283611b32565b905080821115611b16576000611ac88284612079565b600054611ad5919061205a565b9050600082600a5485611ae8919061205a565b611af29190611fd9565b90506000611b008284612017565b90508015611b1257611b128782611ba2565b5050505b50505b611b2a565b8015611b2a576000600d555b505092915050565b60006003821115611b935750806000611b4c600283612017565b611b57906001611fd9565b90505b81811015611b8d57905080600281611b728186612017565b611b7c9190611fd9565b611b869190612017565b9050611b5a565b50919050565b8115611b9d575060015b919050565b80600080828254611bb39190611fd9565b90915550506001600160a01b03821660009081526001602052604081208054839290611be0908490611fd9565b90915550506040518181526001600160a01b038316906000907fddf252ad1be2c89b69c2b068fc378daa952ba7f163c4a11628f55a4df523b3ef906020015b60405180910390a35050565b6000818310611c3a5781611c3c565b825b9392505050565b6001600160a01b03821660009081526001602052604081208054839290611c6b908490612079565b9250508190555080600080828254611c839190612079565b90915550506040518181526000906001600160a01b038416907fddf252ad1be2c89b69c2b068fc378daa952ba7f163c4a11628f55a4df523b3ef90602001611c1f565b6000611cdf600160701b6001600160701b03841661202b565b92915050565b6000611c3c6001600160701b03831684611ff1565b600060208284031215611d0b578081fd5b8135611c3c8161211b565b600060208284031215611d27578081fd5b8151611c3c8161211b565b60008060408385031215611d44578081fd5b8235611d4f8161211b565b91506020830135611d5f8161211b565b809150509250929050565b600080600060608486031215611d7e578081fd5b8335611d898161211b565b92506020840135611d998161211b565b929592945050506040919091013590565b600080600080600080600060e0888a031215611dc4578283fd5b8735611dcf8161211b565b96506020880135611ddf8161211b565b95506040880135945060608801359350608088013560ff81168114611e02578384fd5b9699959850939692959460a0840135945060c09093013592915050565b60008060408385031215611e31578182fd5b8235611e3c8161211b565b946020939093013593505050565b600060208284031215611e5b578081fd5b81518015158114611c3c578182fd5b600060208284031215611e7b578081fd5b5051919050565b600080600080600060808688031215611e99578081fd5b85359450602086013593506040860135611eb28161211b565b9250606086013567ffffffffffffffff80821115611ece578283fd5b818801915088601f830112611ee1578283fd5b813581811115611eef578384fd5b896020828501011115611f00578384fd5b9699959850939650602001949392505050565b60008251611f25818460208701612090565b9190910192915050565b60018060a01b038616815284602082015283604082015260806060820152816080820152818360a0830137600081830160a090810191909152601f909201601f19160101949350505050565b6020815260008251806020840152611f9a816040850160208701612090565b601f01601f19169190910160400192915050565b602080825260119082015270155b9a5cddd85c158c8e881313d0d2d151607a1b604082015260600190565b60008219821115611fec57611fec6120ef565b500190565b60006001600160e01b038381168061200b5761200b612105565b92169190910492915050565b60008261202657612026612105565b500490565b60006001600160e01b0382811684821681151582840482111615612051576120516120ef565b02949350505050565b6000816000190483118215151615612074576120746120ef565b500290565b60008282101561208b5761208b6120ef565b500390565b60005b838110156120ab578181015183820152602001612093565b838111156120ba576000848401525b50505050565b60006000198214156120d4576120d46120ef565b5060010190565b6000826120ea576120ea612105565b500690565b634e487b7160e01b600052601160045260246000fd5b634e487b7160e01b600052601260045260246000fd5b6001600160a01b038116811461213057600080fd5b5056fea26469706673582212202b58db31751f55fadb992be684c499382d07654ef6a49667edad110a8691679064736f6c63430008040033",
					"opcodes": "PUSH1 0x80 PUSH1 0x40 MSTORE PUSH1 0x1 PUSH1 0xE SSTORE CALLVALUE DUP1 ISZERO PUSH3 0x16 JUMPI PUSH1 0x0 DUP1 REVERT JUMPDEST POP PUSH1 0x40 MLOAD PUSH3 0x22FB CODESIZE SUB DUP1 PUSH3 0x22FB DUP4 CODECOPY DUP2 ADD PUSH1 0x40 DUP2 SWAP1 MSTORE PUSH3 0x39 SWAP2 PUSH3 0x14B JUMP JUMPDEST PUSH1 0x40 DUP1 MLOAD DUP1 DUP3 ADD DUP3 MSTORE PUSH1 0xA DUP2 MSTORE PUSH10 0x2AB734B9BBB0B8102B19 PUSH1 0xB1 SHL PUSH1 0x20 SWAP2 DUP3 ADD MSTORE DUP2 MLOAD DUP1 DUP4 ADD DUP4 MSTORE PUSH1 0x1 DUP2 MSTORE PUSH1 0x31 PUSH1 0xF8 SHL SWAP1 DUP3 ADD MSTORE DUP2 MLOAD PUSH32 0x8B73C3C69BB8FE3D512ECC4CF759CC79239F7B179B0FFACAA9A75D522B39400F SWAP2 DUP2 ADD SWAP2 SWAP1 SWAP2 MSTORE PUSH32 0xBFCC8EF98FFBF7B6C3FEC7BF5185B566B9863E35A9D83ACD49AD6824B5969738 SWAP2 DUP2 ADD SWAP2 SWAP1 SWAP2 MSTORE PUSH32 0xC89EFDAA54C0F20C7ADF612882DF0950F5A951637E0307CDCB4C672F298B8BC6 PUSH1 0x60 DUP3 ADD MSTORE CHAINID PUSH1 0x80 DUP3 ADD MSTORE ADDRESS PUSH1 0xA0 DUP3 ADD MSTORE PUSH1 0xC0 ADD PUSH1 0x40 DUP1 MLOAD PUSH1 0x1F NOT DUP2 DUP5 SUB ADD DUP2 MSTORE SWAP2 SWAP1 MSTORE DUP1 MLOAD PUSH1 0x20 SWAP1 SWAP2 ADD KECCAK256 PUSH1 0x3 SSTORE PUSH1 0x5 DUP1 SLOAD PUSH1 0x1 PUSH1 0x1 PUSH1 0xA0 SHL SUB NOT AND CALLER OR SWAP1 SSTORE PUSH1 0xFF SWAP2 DUP3 AND PUSH1 0x9 SSTORE AND PUSH1 0xA SSTORE PUSH3 0x182 JUMP JUMPDEST DUP1 MLOAD PUSH1 0xFF DUP2 AND DUP2 EQ PUSH3 0x146 JUMPI PUSH1 0x0 DUP1 REVERT JUMPDEST SWAP2 SWAP1 POP JUMP JUMPDEST PUSH1 0x0 DUP1 PUSH1 0x40 DUP4 DUP6 SUB SLT ISZERO PUSH3 0x15E JUMPI DUP2 DUP3 REVERT JUMPDEST PUSH3 0x169 DUP4 PUSH3 0x134 JUMP JUMPDEST SWAP2 POP PUSH3 0x179 PUSH1 0x20 DUP5 ADD PUSH3 0x134 JUMP JUMPDEST SWAP1 POP SWAP3 POP SWAP3 SWAP1 POP JUMP JUMPDEST PUSH2 0x2169 DUP1 PUSH3 0x192 PUSH1 0x0 CODECOPY PUSH1 0x0 RETURN INVALID PUSH1 0x80 PUSH1 0x40 MSTORE CALLVALUE DUP1 ISZERO PUSH2 0x10 JUMPI PUSH1 0x0 DUP1 REVERT JUMPDEST POP PUSH1 0x4 CALLDATASIZE LT PUSH2 0x1C4 JUMPI PUSH1 0x0 CALLDATALOAD PUSH1 0xE0 SHR DUP1 PUSH4 0x6A627842 GT PUSH2 0xF9 JUMPI DUP1 PUSH4 0xBA9A7A56 GT PUSH2 0x97 JUMPI DUP1 PUSH4 0xD21220A7 GT PUSH2 0x71 JUMPI DUP1 PUSH4 0xD21220A7 EQ PUSH2 0x42C JUMPI DUP1 PUSH4 0xD505ACCF EQ PUSH2 0x43F JUMPI DUP1 PUSH4 0xDD62ED3E EQ PUSH2 0x452 JUMPI DUP1 PUSH4 0xFFF6CAE9 EQ PUSH2 0x47D JUMPI PUSH1 0x0 DUP1 REVERT JUMPDEST DUP1 PUSH4 0xBA9A7A56 EQ PUSH2 0x3FD JUMPI DUP1 PUSH4 0xBC25CF77 EQ PUSH2 0x406 JUMPI DUP1 PUSH4 0xC45A0155 EQ PUSH2 0x419 JUMPI PUSH1 0x0 DUP1 REVERT JUMPDEST DUP1 PUSH4 0x7ECEBE00 GT PUSH2 0xD3 JUMPI DUP1 PUSH4 0x7ECEBE00 EQ PUSH2 0x37D JUMPI DUP1 PUSH4 0x89AFCB44 EQ PUSH2 0x39D JUMPI DUP1 PUSH4 0x95D89B41 EQ PUSH2 0x3C5 JUMPI DUP1 PUSH4 0xA9059CBB EQ PUSH2 0x3EA JUMPI PUSH1 0x0 DUP1 REVERT JUMPDEST DUP1 PUSH4 0x6A627842 EQ PUSH2 0x341 JUMPI DUP1 PUSH4 0x70A08231 EQ PUSH2 0x354 JUMPI DUP1 PUSH4 0x7464FC3D EQ PUSH2 0x374 JUMPI PUSH1 0x0 DUP1 REVERT JUMPDEST DUP1 PUSH4 0x30ADF81F GT PUSH2 0x166 JUMPI DUP1 PUSH4 0x485CC955 GT PUSH2 0x140 JUMPI DUP1 PUSH4 0x485CC955 EQ PUSH2 0x313 JUMPI DUP1 PUSH4 0x4D3314F4 EQ PUSH2 0x326 JUMPI DUP1 PUSH4 0x5909C0D5 EQ PUSH2 0x32F JUMPI DUP1 PUSH4 0x5A3D5493 EQ PUSH2 0x338 JUMPI PUSH1 0x0 DUP1 REVERT JUMPDEST DUP1 PUSH4 0x30ADF81F EQ PUSH2 0x2C9 JUMPI DUP1 PUSH4 0x313CE567 EQ PUSH2 0x2F0 JUMPI DUP1 PUSH4 0x3644E515 EQ PUSH2 0x30A JUMPI PUSH1 0x0 DUP1 REVERT JUMPDEST DUP1 PUSH4 0x95EA7B3 GT PUSH2 0x1A2 JUMPI DUP1 PUSH4 0x95EA7B3 EQ PUSH2 0x251 JUMPI DUP1 PUSH4 0xDFE1681 EQ PUSH2 0x274 JUMPI DUP1 PUSH4 0x18160DDD EQ PUSH2 0x29F JUMPI DUP1 PUSH4 0x23B872DD EQ PUSH2 0x2B6 JUMPI PUSH1 0x0 DUP1 REVERT JUMPDEST DUP1 PUSH4 0x22C0D9F EQ PUSH2 0x1C9 JUMPI DUP1 PUSH4 0x6FDDE03 EQ PUSH2 0x1DE JUMPI DUP1 PUSH4 0x902F1AC EQ PUSH2 0x21D JUMPI JUMPDEST PUSH1 0x0 DUP1 REVERT JUMPDEST PUSH2 0x1DC PUSH2 0x1D7 CALLDATASIZE PUSH1 0x4 PUSH2 0x1E82 JUMP JUMPDEST PUSH2 0x485 JUMP JUMPDEST STOP JUMPDEST PUSH2 0x207 PUSH1 0x40 MLOAD DUP1 PUSH1 0x40 ADD PUSH1 0x40 MSTORE DUP1 PUSH1 0xA DUP2 MSTORE PUSH1 0x20 ADD PUSH10 0x2AB734B9BBB0B8102B19 PUSH1 0xB1 SHL DUP2 MSTORE POP DUP2 JUMP JUMPDEST PUSH1 0x40 MLOAD PUSH2 0x214 SWAP2 SWAP1 PUSH2 0x1F7B JUMP JUMPDEST PUSH1 0x40 MLOAD DUP1 SWAP2 SUB SWAP1 RETURN JUMPDEST PUSH2 0x225 PUSH2 0x9C3 JUMP JUMPDEST PUSH1 0x40 DUP1 MLOAD PUSH1 0x1 PUSH1 0x1 PUSH1 0x70 SHL SUB SWAP5 DUP6 AND DUP2 MSTORE SWAP4 SWAP1 SWAP3 AND PUSH1 0x20 DUP5 ADD MSTORE PUSH4 0xFFFFFFFF AND SWAP1 DUP3 ADD MSTORE PUSH1 0x60 ADD PUSH2 0x214 JUMP JUMPDEST PUSH2 0x264 PUSH2 0x25F CALLDATASIZE PUSH1 0x4 PUSH2 0x1E1F JUMP JUMPDEST PUSH2 0x9ED JUMP JUMPDEST PUSH1 0x40 MLOAD SWAP1 ISZERO ISZERO DUP2 MSTORE PUSH1 0x20 ADD PUSH2 0x214 JUMP JUMPDEST PUSH1 0x6 SLOAD PUSH2 0x287 SWAP1 PUSH1 0x1 PUSH1 0x1 PUSH1 0xA0 SHL SUB AND DUP2 JUMP JUMPDEST PUSH1 0x40 MLOAD PUSH1 0x1 PUSH1 0x1 PUSH1 0xA0 SHL SUB SWAP1 SWAP2 AND DUP2 MSTORE PUSH1 0x20 ADD PUSH2 0x214 JUMP JUMPDEST PUSH2 0x2A8 PUSH1 0x0 SLOAD DUP2 JUMP JUMPDEST PUSH1 0x40 MLOAD SWAP1 DUP2 MSTORE PUSH1 0x20 ADD PUSH2 0x214 JUMP JUMPDEST PUSH2 0x264 PUSH2 0x2C4 CALLDATASIZE PUSH1 0x4 PUSH2 0x1D6A JUMP JUMPDEST PUSH2 0xA03 JUMP JUMPDEST PUSH2 0x2A8 PUSH32 0x6E71EDAE12B1B97F4D1F60370FEF10105FA2FAAE0126114A169C64845D6126C9 DUP2 JUMP JUMPDEST PUSH2 0x2F8 PUSH1 0x12 DUP2 JUMP JUMPDEST PUSH1 0x40 MLOAD PUSH1 0xFF SWAP1 SWAP2 AND DUP2 MSTORE PUSH1 0x20 ADD PUSH2 0x214 JUMP JUMPDEST PUSH2 0x2A8 PUSH1 0x3 SLOAD DUP2 JUMP JUMPDEST PUSH2 0x1DC PUSH2 0x321 CALLDATASIZE PUSH1 0x4 PUSH2 0x1D32 JUMP JUMPDEST PUSH2 0xA7D JUMP JUMPDEST PUSH2 0x2A8 PUSH1 0x9 SLOAD DUP2 JUMP JUMPDEST PUSH2 0x2A8 PUSH1 0xB SLOAD DUP2 JUMP JUMPDEST PUSH2 0x2A8 PUSH1 0xC SLOAD DUP2 JUMP JUMPDEST PUSH2 0x2A8 PUSH2 0x34F CALLDATASIZE PUSH1 0x4 PUSH2 0x1CFA JUMP JUMPDEST PUSH2 0xAFC JUMP JUMPDEST PUSH2 0x2A8 PUSH2 0x362 CALLDATASIZE PUSH1 0x4 PUSH2 0x1CFA JUMP JUMPDEST PUSH1 0x1 PUSH1 0x20 MSTORE PUSH1 0x0 SWAP1 DUP2 MSTORE PUSH1 0x40 SWAP1 KECCAK256 SLOAD DUP2 JUMP JUMPDEST PUSH2 0x2A8 PUSH1 0xD SLOAD DUP2 JUMP JUMPDEST PUSH2 0x2A8 PUSH2 0x38B CALLDATASIZE PUSH1 0x4 PUSH2 0x1CFA JUMP JUMPDEST PUSH1 0x4 PUSH1 0x20 MSTORE PUSH1 0x0 SWAP1 DUP2 MSTORE PUSH1 0x40 SWAP1 KECCAK256 SLOAD DUP2 JUMP JUMPDEST PUSH2 0x3B0 PUSH2 0x3AB CALLDATASIZE PUSH1 0x4 PUSH2 0x1CFA JUMP JUMPDEST PUSH2 0xDE5 JUMP JUMPDEST PUSH1 0x40 DUP1 MLOAD SWAP3 DUP4 MSTORE PUSH1 0x20 DUP4 ADD SWAP2 SWAP1 SWAP2 MSTORE ADD PUSH2 0x214 JUMP JUMPDEST PUSH2 0x207 PUSH1 0x40 MLOAD DUP1 PUSH1 0x40 ADD PUSH1 0x40 MSTORE DUP1 PUSH1 0x6 DUP2 MSTORE PUSH1 0x20 ADD PUSH6 0x2AA72496AB19 PUSH1 0xD1 SHL DUP2 MSTORE POP DUP2 JUMP JUMPDEST PUSH2 0x264 PUSH2 0x3F8 CALLDATASIZE PUSH1 0x4 PUSH2 0x1E1F JUMP JUMPDEST PUSH2 0x1186 JUMP JUMPDEST PUSH2 0x2A8 PUSH2 0x3E8 DUP2 JUMP JUMPDEST PUSH2 0x1DC PUSH2 0x414 CALLDATASIZE PUSH1 0x4 PUSH2 0x1CFA JUMP JUMPDEST PUSH2 0x1193 JUMP JUMPDEST PUSH1 0x5 SLOAD PUSH2 0x287 SWAP1 PUSH1 0x1 PUSH1 0x1 PUSH1 0xA0 SHL SUB AND DUP2 JUMP JUMPDEST PUSH1 0x7 SLOAD PUSH2 0x287 SWAP1 PUSH1 0x1 PUSH1 0x1 PUSH1 0xA0 SHL SUB AND DUP2 JUMP JUMPDEST PUSH2 0x1DC PUSH2 0x44D CALLDATASIZE PUSH1 0x4 PUSH2 0x1DAA JUMP JUMPDEST PUSH2 0x12B5 JUMP JUMPDEST PUSH2 0x2A8 PUSH2 0x460 CALLDATASIZE PUSH1 0x4 PUSH2 0x1D32 JUMP JUMPDEST PUSH1 0x2 PUSH1 0x20 SWAP1 DUP2 MSTORE PUSH1 0x0 SWAP3 DUP4 MSTORE PUSH1 0x40 DUP1 DUP5 KECCAK256 SWAP1 SWAP2 MSTORE SWAP1 DUP3 MSTORE SWAP1 KECCAK256 SLOAD DUP2 JUMP JUMPDEST PUSH2 0x1DC PUSH2 0x14C9 JUMP JUMPDEST PUSH1 0xE SLOAD PUSH1 0x1 EQ PUSH2 0x4B0 JUMPI PUSH1 0x40 MLOAD PUSH3 0x461BCD PUSH1 0xE5 SHL DUP2 MSTORE PUSH1 0x4 ADD PUSH2 0x4A7 SWAP1 PUSH2 0x1FAE JUMP JUMPDEST PUSH1 0x40 MLOAD DUP1 SWAP2 SUB SWAP1 REVERT JUMPDEST PUSH1 0x0 PUSH1 0xE SSTORE DUP5 ISZERO ISZERO DUP1 PUSH2 0x4C3 JUMPI POP PUSH1 0x0 DUP5 GT JUMPDEST PUSH2 0x51D JUMPI PUSH1 0x40 MLOAD PUSH3 0x461BCD PUSH1 0xE5 SHL DUP2 MSTORE PUSH1 0x20 PUSH1 0x4 DUP3 ADD MSTORE PUSH1 0x25 PUSH1 0x24 DUP3 ADD MSTORE PUSH32 0x556E697377617056323A20494E53554646494349454E545F4F55545055545F41 PUSH1 0x44 DUP3 ADD MSTORE PUSH5 0x1353D55395 PUSH1 0xDA SHL PUSH1 0x64 DUP3 ADD MSTORE PUSH1 0x84 ADD PUSH2 0x4A7 JUMP JUMPDEST PUSH1 0x0 DUP1 PUSH2 0x528 PUSH2 0x9C3 JUMP JUMPDEST POP SWAP2 POP SWAP2 POP DUP2 PUSH1 0x1 PUSH1 0x1 PUSH1 0x70 SHL SUB AND DUP8 LT DUP1 ISZERO PUSH2 0x54D JUMPI POP DUP1 PUSH1 0x1 PUSH1 0x1 PUSH1 0x70 SHL SUB AND DUP7 LT JUMPDEST PUSH2 0x5A3 JUMPI PUSH1 0x40 MLOAD PUSH3 0x461BCD PUSH1 0xE5 SHL DUP2 MSTORE PUSH1 0x20 PUSH1 0x4 DUP3 ADD MSTORE PUSH1 0x21 PUSH1 0x24 DUP3 ADD MSTORE PUSH32 0x556E697377617056323A20494E53554646494349454E545F4C49515549444954 PUSH1 0x44 DUP3 ADD MSTORE PUSH1 0x59 PUSH1 0xF8 SHL PUSH1 0x64 DUP3 ADD MSTORE PUSH1 0x84 ADD PUSH2 0x4A7 JUMP JUMPDEST PUSH1 0x6 SLOAD PUSH1 0x7 SLOAD PUSH1 0x0 SWAP2 DUP3 SWAP2 PUSH1 0x1 PUSH1 0x1 PUSH1 0xA0 SHL SUB SWAP2 DUP3 AND SWAP2 SWAP1 DUP2 AND SWAP1 DUP10 AND DUP3 EQ DUP1 ISZERO SWAP1 PUSH2 0x5E1 JUMPI POP DUP1 PUSH1 0x1 PUSH1 0x1 PUSH1 0xA0 SHL SUB AND DUP10 PUSH1 0x1 PUSH1 0x1 PUSH1 0xA0 SHL SUB AND EQ ISZERO JUMPDEST PUSH2 0x625 JUMPI PUSH1 0x40 MLOAD PUSH3 0x461BCD PUSH1 0xE5 SHL DUP2 MSTORE PUSH1 0x20 PUSH1 0x4 DUP3 ADD MSTORE PUSH1 0x15 PUSH1 0x24 DUP3 ADD MSTORE PUSH21 0x556E697377617056323A20494E56414C49445F544F PUSH1 0x58 SHL PUSH1 0x44 DUP3 ADD MSTORE PUSH1 0x64 ADD PUSH2 0x4A7 JUMP JUMPDEST DUP11 ISZERO PUSH2 0x636 JUMPI PUSH2 0x636 DUP3 DUP11 DUP14 PUSH2 0x160B JUMP JUMPDEST DUP10 ISZERO PUSH2 0x647 JUMPI PUSH2 0x647 DUP2 DUP11 DUP13 PUSH2 0x160B JUMP JUMPDEST DUP7 ISZERO PUSH2 0x6B4 JUMPI PUSH1 0x40 MLOAD PUSH4 0x4347A17 PUSH1 0xE2 SHL DUP2 MSTORE PUSH1 0x1 PUSH1 0x1 PUSH1 0xA0 SHL SUB DUP11 AND SWAP1 PUSH4 0x10D1E85C SWAP1 PUSH2 0x681 SWAP1 CALLER SWAP1 DUP16 SWAP1 DUP16 SWAP1 DUP15 SWAP1 DUP15 SWAP1 PUSH1 0x4 ADD PUSH2 0x1F2F JUMP JUMPDEST PUSH1 0x0 PUSH1 0x40 MLOAD DUP1 DUP4 SUB DUP2 PUSH1 0x0 DUP8 DUP1 EXTCODESIZE ISZERO DUP1 ISZERO PUSH2 0x69B JUMPI PUSH1 0x0 DUP1 REVERT JUMPDEST POP GAS CALL ISZERO DUP1 ISZERO PUSH2 0x6AF JUMPI RETURNDATASIZE PUSH1 0x0 DUP1 RETURNDATACOPY RETURNDATASIZE PUSH1 0x0 REVERT JUMPDEST POP POP POP POP JUMPDEST PUSH1 0x40 MLOAD PUSH4 0x70A08231 PUSH1 0xE0 SHL DUP2 MSTORE ADDRESS PUSH1 0x4 DUP3 ADD MSTORE PUSH1 0x1 PUSH1 0x1 PUSH1 0xA0 SHL SUB DUP4 AND SWAP1 PUSH4 0x70A08231 SWAP1 PUSH1 0x24 ADD PUSH1 0x20 PUSH1 0x40 MLOAD DUP1 DUP4 SUB DUP2 DUP7 DUP1 EXTCODESIZE ISZERO DUP1 ISZERO PUSH2 0x6F3 JUMPI PUSH1 0x0 DUP1 REVERT JUMPDEST POP GAS STATICCALL ISZERO DUP1 ISZERO PUSH2 0x707 JUMPI RETURNDATASIZE PUSH1 0x0 DUP1 RETURNDATACOPY RETURNDATASIZE PUSH1 0x0 REVERT JUMPDEST POP POP POP POP PUSH1 0x40 MLOAD RETURNDATASIZE PUSH1 0x1F NOT PUSH1 0x1F DUP3 ADD AND DUP3 ADD DUP1 PUSH1 0x40 MSTORE POP DUP2 ADD SWAP1 PUSH2 0x72B SWAP2 SWAP1 PUSH2 0x1E6A JUMP JUMPDEST PUSH1 0x40 MLOAD PUSH4 0x70A08231 PUSH1 0xE0 SHL DUP2 MSTORE ADDRESS PUSH1 0x4 DUP3 ADD MSTORE SWAP1 SWAP5 POP PUSH1 0x1 PUSH1 0x1 PUSH1 0xA0 SHL SUB DUP3 AND SWAP1 PUSH4 0x70A08231 SWAP1 PUSH1 0x24 ADD PUSH1 0x20 PUSH1 0x40 MLOAD DUP1 DUP4 SUB DUP2 DUP7 DUP1 EXTCODESIZE ISZERO DUP1 ISZERO PUSH2 0x76D JUMPI PUSH1 0x0 DUP1 REVERT JUMPDEST POP GAS STATICCALL ISZERO DUP1 ISZERO PUSH2 0x781 JUMPI RETURNDATASIZE PUSH1 0x0 DUP1 RETURNDATACOPY RETURNDATASIZE PUSH1 0x0 REVERT JUMPDEST POP POP POP POP PUSH1 0x40 MLOAD RETURNDATASIZE PUSH1 0x1F NOT PUSH1 0x1F DUP3 ADD AND DUP3 ADD DUP1 PUSH1 0x40 MSTORE POP DUP2 ADD SWAP1 PUSH2 0x7A5 SWAP2 SWAP1 PUSH2 0x1E6A JUMP JUMPDEST SWAP3 POP POP POP PUSH1 0x0 DUP10 DUP6 PUSH1 0x1 PUSH1 0x1 PUSH1 0x70 SHL SUB AND PUSH2 0x7C0 SWAP2 SWAP1 PUSH2 0x2079 JUMP JUMPDEST DUP4 GT PUSH2 0x7CD JUMPI PUSH1 0x0 PUSH2 0x7EA JUMP JUMPDEST PUSH2 0x7E0 DUP11 PUSH1 0x1 PUSH1 0x1 PUSH1 0x70 SHL SUB DUP8 AND PUSH2 0x2079 JUMP JUMPDEST PUSH2 0x7EA SWAP1 DUP5 PUSH2 0x2079 JUMP JUMPDEST SWAP1 POP PUSH1 0x0 PUSH2 0x801 DUP11 PUSH1 0x1 PUSH1 0x1 PUSH1 0x70 SHL SUB DUP8 AND PUSH2 0x2079 JUMP JUMPDEST DUP4 GT PUSH2 0x80E JUMPI PUSH1 0x0 PUSH2 0x82B JUMP JUMPDEST PUSH2 0x821 DUP11 PUSH1 0x1 PUSH1 0x1 PUSH1 0x70 SHL SUB DUP8 AND PUSH2 0x2079 JUMP JUMPDEST PUSH2 0x82B SWAP1 DUP5 PUSH2 0x2079 JUMP JUMPDEST SWAP1 POP PUSH1 0x0 DUP3 GT DUP1 PUSH2 0x83C JUMPI POP PUSH1 0x0 DUP2 GT JUMPDEST PUSH2 0x894 JUMPI PUSH1 0x40 MLOAD PUSH3 0x461BCD PUSH1 0xE5 SHL DUP2 MSTORE PUSH1 0x20 PUSH1 0x4 DUP3 ADD MSTORE PUSH1 0x24 DUP1 DUP3 ADD MSTORE PUSH32 0x556E697377617056323A20494E53554646494349454E545F494E5055545F414D PUSH1 0x44 DUP3 ADD MSTORE PUSH4 0x13D55395 PUSH1 0xE2 SHL PUSH1 0x64 DUP3 ADD MSTORE PUSH1 0x84 ADD PUSH2 0x4A7 JUMP JUMPDEST PUSH1 0x0 PUSH1 0x9 SLOAD DUP4 PUSH2 0x8A4 SWAP2 SWAP1 PUSH2 0x205A JUMP JUMPDEST PUSH2 0x8B0 DUP7 PUSH2 0x3E8 PUSH2 0x205A JUMP JUMPDEST PUSH2 0x8BA SWAP2 SWAP1 PUSH2 0x2079 JUMP JUMPDEST SWAP1 POP PUSH1 0x0 PUSH1 0x9 SLOAD DUP4 PUSH2 0x8CC SWAP2 SWAP1 PUSH2 0x205A JUMP JUMPDEST PUSH2 0x8D8 DUP7 PUSH2 0x3E8 PUSH2 0x205A JUMP JUMPDEST PUSH2 0x8E2 SWAP2 SWAP1 PUSH2 0x2079 JUMP JUMPDEST SWAP1 POP PUSH2 0x8FA PUSH1 0x1 PUSH1 0x1 PUSH1 0x70 SHL SUB DUP1 DUP10 AND SWAP1 DUP11 AND PUSH2 0x205A JUMP JUMPDEST PUSH2 0x907 SWAP1 PUSH3 0xF4240 PUSH2 0x205A JUMP JUMPDEST PUSH2 0x911 DUP3 DUP5 PUSH2 0x205A JUMP JUMPDEST LT ISZERO PUSH2 0x94E JUMPI PUSH1 0x40 MLOAD PUSH3 0x461BCD PUSH1 0xE5 SHL DUP2 MSTORE PUSH1 0x20 PUSH1 0x4 DUP3 ADD MSTORE PUSH1 0xC PUSH1 0x24 DUP3 ADD MSTORE PUSH12 0x556E697377617056323A204B PUSH1 0xA0 SHL PUSH1 0x44 DUP3 ADD MSTORE PUSH1 0x64 ADD PUSH2 0x4A7 JUMP JUMPDEST POP POP PUSH2 0x95C DUP5 DUP5 DUP9 DUP9 PUSH2 0x1726 JUMP JUMPDEST PUSH1 0x40 DUP1 MLOAD DUP4 DUP2 MSTORE PUSH1 0x20 DUP2 ADD DUP4 SWAP1 MSTORE SWAP1 DUP2 ADD DUP13 SWAP1 MSTORE PUSH1 0x60 DUP2 ADD DUP12 SWAP1 MSTORE PUSH1 0x1 PUSH1 0x1 PUSH1 0xA0 SHL SUB DUP11 AND SWAP1 CALLER SWAP1 PUSH32 0xD78AD95FA46C994B6551D0DA85FC275FE613CE37657FB8D5E3D130840159D822 SWAP1 PUSH1 0x80 ADD PUSH1 0x40 MLOAD DUP1 SWAP2 SUB SWAP1 LOG3 POP POP PUSH1 0x1 PUSH1 0xE SSTORE POP POP POP POP POP POP POP POP POP JUMP JUMPDEST PUSH1 0x8 SLOAD PUSH1 0x1 PUSH1 0x1 PUSH1 0x70 SHL SUB DUP1 DUP3 AND SWAP3 PUSH1 0x1 PUSH1 0x70 SHL DUP4 DIV SWAP1 SWAP2 AND SWAP2 PUSH1 0x1 PUSH1 0xE0 SHL SWAP1 DIV PUSH4 0xFFFFFFFF AND SWAP1 JUMP JUMPDEST PUSH1 0x0 PUSH2 0x9FA CALLER DUP5 DUP5 PUSH2 0x18DE JUMP JUMPDEST POP PUSH1 0x1 SWAP3 SWAP2 POP POP JUMP JUMPDEST PUSH1 0x1 PUSH1 0x1 PUSH1 0xA0 SHL SUB DUP4 AND PUSH1 0x0 SWAP1 DUP2 MSTORE PUSH1 0x2 PUSH1 0x20 SWAP1 DUP2 MSTORE PUSH1 0x40 DUP1 DUP4 KECCAK256 CALLER DUP5 MSTORE SWAP1 SWAP2 MSTORE DUP2 KECCAK256 SLOAD PUSH1 0x0 NOT EQ PUSH2 0xA68 JUMPI PUSH1 0x1 PUSH1 0x1 PUSH1 0xA0 SHL SUB DUP5 AND PUSH1 0x0 SWAP1 DUP2 MSTORE PUSH1 0x2 PUSH1 0x20 SWAP1 DUP2 MSTORE PUSH1 0x40 DUP1 DUP4 KECCAK256 CALLER DUP5 MSTORE SWAP1 SWAP2 MSTORE DUP2 KECCAK256 DUP1 SLOAD DUP5 SWAP3 SWAP1 PUSH2 0xA62 SWAP1 DUP5 SWAP1 PUSH2 0x2079 JUMP JUMPDEST SWAP1 SWAP2 SSTORE POP POP JUMPDEST PUSH2 0xA73 DUP5 DUP5 DUP5 PUSH2 0x1940 JUMP JUMPDEST POP PUSH1 0x1 SWAP4 SWAP3 POP POP POP JUMP JUMPDEST PUSH1 0x5 SLOAD PUSH1 0x1 PUSH1 0x1 PUSH1 0xA0 SHL SUB AND CALLER EQ PUSH2 0xACE JUMPI PUSH1 0x40 MLOAD PUSH3 0x461BCD PUSH1 0xE5 SHL DUP2 MSTORE PUSH1 0x20 PUSH1 0x4 DUP3 ADD MSTORE PUSH1 0x14 PUSH1 0x24 DUP3 ADD MSTORE PUSH20 0x2AB734B9BBB0B82B191D102327A92124A22222A7 PUSH1 0x61 SHL PUSH1 0x44 DUP3 ADD MSTORE PUSH1 0x64 ADD PUSH2 0x4A7 JUMP JUMPDEST PUSH1 0x6 DUP1 SLOAD PUSH1 0x1 PUSH1 0x1 PUSH1 0xA0 SHL SUB SWAP4 DUP5 AND PUSH1 0x1 PUSH1 0x1 PUSH1 0xA0 SHL SUB NOT SWAP2 DUP3 AND OR SWAP1 SWAP2 SSTORE PUSH1 0x7 DUP1 SLOAD SWAP3 SWAP1 SWAP4 AND SWAP2 AND OR SWAP1 SSTORE JUMP JUMPDEST PUSH1 0x0 PUSH1 0xE SLOAD PUSH1 0x1 EQ PUSH2 0xB20 JUMPI PUSH1 0x40 MLOAD PUSH3 0x461BCD PUSH1 0xE5 SHL DUP2 MSTORE PUSH1 0x4 ADD PUSH2 0x4A7 SWAP1 PUSH2 0x1FAE JUMP JUMPDEST PUSH1 0x0 PUSH1 0xE DUP2 SWAP1 SSTORE DUP1 PUSH2 0xB30 PUSH2 0x9C3 JUMP JUMPDEST POP PUSH1 0x6 SLOAD PUSH1 0x40 MLOAD PUSH4 0x70A08231 PUSH1 0xE0 SHL DUP2 MSTORE ADDRESS PUSH1 0x4 DUP3 ADD MSTORE SWAP3 SWAP5 POP SWAP1 SWAP3 POP PUSH1 0x0 SWAP2 PUSH1 0x1 PUSH1 0x1 PUSH1 0xA0 SHL SUB SWAP1 SWAP2 AND SWAP1 PUSH4 0x70A08231 SWAP1 PUSH1 0x24 ADD PUSH1 0x20 PUSH1 0x40 MLOAD DUP1 DUP4 SUB DUP2 DUP7 DUP1 EXTCODESIZE ISZERO DUP1 ISZERO PUSH2 0xB7D JUMPI PUSH1 0x0 DUP1 REVERT JUMPDEST POP GAS STATICCALL ISZERO DUP1 ISZERO PUSH2 0xB91 JUMPI RETURNDATASIZE PUSH1 0x0 DUP1 RETURNDATACOPY RETURNDATASIZE PUSH1 0x0 REVERT JUMPDEST POP POP POP POP PUSH1 0x40 MLOAD RETURNDATASIZE PUSH1 0x1F NOT PUSH1 0x1F DUP3 ADD AND DUP3 ADD DUP1 PUSH1 0x40 MSTORE POP DUP2 ADD SWAP1 PUSH2 0xBB5 SWAP2 SWAP1 PUSH2 0x1E6A JUMP JUMPDEST PUSH1 0x7 SLOAD PUSH1 0x40 MLOAD PUSH4 0x70A08231 PUSH1 0xE0 SHL DUP2 MSTORE ADDRESS PUSH1 0x4 DUP3 ADD MSTORE SWAP2 SWAP3 POP PUSH1 0x0 SWAP2 PUSH1 0x1 PUSH1 0x1 PUSH1 0xA0 SHL SUB SWAP1 SWAP2 AND SWAP1 PUSH4 0x70A08231 SWAP1 PUSH1 0x24 ADD PUSH1 0x20 PUSH1 0x40 MLOAD DUP1 DUP4 SUB DUP2 DUP7 DUP1 EXTCODESIZE ISZERO DUP1 ISZERO PUSH2 0xBFE JUMPI PUSH1 0x0 DUP1 REVERT JUMPDEST POP GAS STATICCALL ISZERO DUP1 ISZERO PUSH2 0xC12 JUMPI RETURNDATASIZE PUSH1 0x0 DUP1 RETURNDATACOPY RETURNDATASIZE PUSH1 0x0 REVERT JUMPDEST POP POP POP POP PUSH1 0x40 MLOAD RETURNDATASIZE PUSH1 0x1F NOT PUSH1 0x1F DUP3 ADD AND DUP3 ADD DUP1 PUSH1 0x40 MSTORE POP DUP2 ADD SWAP1 PUSH2 0xC36 SWAP2 SWAP1 PUSH2 0x1E6A JUMP JUMPDEST SWAP1 POP PUSH1 0x0 PUSH2 0xC4D PUSH1 0x1 PUSH1 0x1 PUSH1 0x70 SHL SUB DUP7 AND DUP5 PUSH2 0x2079 JUMP JUMPDEST SWAP1 POP PUSH1 0x0 PUSH2 0xC64 PUSH1 0x1 PUSH1 0x1 PUSH1 0x70 SHL SUB DUP7 AND DUP5 PUSH2 0x2079 JUMP JUMPDEST SWAP1 POP PUSH1 0x0 PUSH2 0xC72 DUP8 DUP8 PUSH2 0x19E1 JUMP JUMPDEST PUSH1 0x0 SLOAD SWAP1 SWAP2 POP DUP1 PUSH2 0xCB0 JUMPI PUSH2 0x3E8 PUSH2 0xC92 PUSH2 0xC8D DUP6 DUP8 PUSH2 0x205A JUMP JUMPDEST PUSH2 0x1B32 JUMP JUMPDEST PUSH2 0xC9C SWAP2 SWAP1 PUSH2 0x2079 JUMP JUMPDEST SWAP9 POP PUSH2 0xCAB PUSH1 0x0 PUSH2 0x3E8 PUSH2 0x1BA2 JUMP JUMPDEST PUSH2 0xCF7 JUMP JUMPDEST PUSH2 0xCF4 PUSH1 0x1 PUSH1 0x1 PUSH1 0x70 SHL SUB DUP10 AND PUSH2 0xCC7 DUP4 DUP8 PUSH2 0x205A JUMP JUMPDEST PUSH2 0xCD1 SWAP2 SWAP1 PUSH2 0x2017 JUMP JUMPDEST PUSH1 0x1 PUSH1 0x1 PUSH1 0x70 SHL SUB DUP10 AND PUSH2 0xCE5 DUP5 DUP8 PUSH2 0x205A JUMP JUMPDEST PUSH2 0xCEF SWAP2 SWAP1 PUSH2 0x2017 JUMP JUMPDEST PUSH2 0x1C2B JUMP JUMPDEST SWAP9 POP JUMPDEST PUSH1 0x0 DUP10 GT PUSH2 0xD58 JUMPI PUSH1 0x40 MLOAD PUSH3 0x461BCD PUSH1 0xE5 SHL DUP2 MSTORE PUSH1 0x20 PUSH1 0x4 DUP3 ADD MSTORE PUSH1 0x28 PUSH1 0x24 DUP3 ADD MSTORE PUSH32 0x556E697377617056323A20494E53554646494349454E545F4C49515549444954 PUSH1 0x44 DUP3 ADD MSTORE PUSH8 0x1657D35253951151 PUSH1 0xC2 SHL PUSH1 0x64 DUP3 ADD MSTORE PUSH1 0x84 ADD PUSH2 0x4A7 JUMP JUMPDEST PUSH2 0xD62 DUP11 DUP11 PUSH2 0x1BA2 JUMP JUMPDEST PUSH2 0xD6E DUP7 DUP7 DUP11 DUP11 PUSH2 0x1726 JUMP JUMPDEST DUP2 ISZERO PUSH2 0xD97 JUMPI PUSH1 0x8 SLOAD PUSH2 0xD93 SWAP1 PUSH1 0x1 PUSH1 0x1 PUSH1 0x70 SHL SUB PUSH1 0x1 PUSH1 0x70 SHL DUP3 DIV DUP2 AND SWAP2 AND PUSH2 0x205A JUMP JUMPDEST PUSH1 0xD SSTORE JUMPDEST PUSH1 0x40 DUP1 MLOAD DUP6 DUP2 MSTORE PUSH1 0x20 DUP2 ADD DUP6 SWAP1 MSTORE CALLER SWAP2 PUSH32 0x4C209B5FC8AD50758F13E2E1088BA56A560DFF690A1C6FEF26394F4C03821C4F SWAP2 ADD PUSH1 0x40 MLOAD DUP1 SWAP2 SUB SWAP1 LOG2 POP POP PUSH1 0x1 PUSH1 0xE SSTORE POP SWAP5 SWAP7 SWAP6 POP POP POP POP POP POP JUMP JUMPDEST PUSH1 0x0 DUP1 PUSH1 0xE SLOAD PUSH1 0x1 EQ PUSH2 0xE0A JUMPI PUSH1 0x40 MLOAD PUSH3 0x461BCD PUSH1 0xE5 SHL DUP2 MSTORE PUSH1 0x4 ADD PUSH2 0x4A7 SWAP1 PUSH2 0x1FAE JUMP JUMPDEST PUSH1 0x0 PUSH1 0xE DUP2 SWAP1 SSTORE DUP1 PUSH2 0xE1A PUSH2 0x9C3 JUMP JUMPDEST POP PUSH1 0x6 SLOAD PUSH1 0x7 SLOAD PUSH1 0x40 MLOAD PUSH4 0x70A08231 PUSH1 0xE0 SHL DUP2 MSTORE ADDRESS PUSH1 0x4 DUP3 ADD MSTORE SWAP4 SWAP6 POP SWAP2 SWAP4 POP PUSH1 0x1 PUSH1 0x1 PUSH1 0xA0 SHL SUB SWAP1 DUP2 AND SWAP3 SWAP2 AND SWAP1 PUSH1 0x0 SWAP1 DUP4 SWAP1 PUSH4 0x70A08231 SWAP1 PUSH1 0x24 ADD PUSH1 0x20 PUSH1 0x40 MLOAD DUP1 DUP4 SUB DUP2 DUP7 DUP1 EXTCODESIZE ISZERO DUP1 ISZERO PUSH2 0xE6F JUMPI PUSH1 0x0 DUP1 REVERT JUMPDEST POP GAS STATICCALL ISZERO DUP1 ISZERO PUSH2 0xE83 JUMPI RETURNDATASIZE PUSH1 0x0 DUP1 RETURNDATACOPY RETURNDATASIZE PUSH1 0x0 REVERT JUMPDEST POP POP POP POP PUSH1 0x40 MLOAD RETURNDATASIZE PUSH1 0x1F NOT PUSH1 0x1F DUP3 ADD AND DUP3 ADD DUP1 PUSH1 0x40 MSTORE POP DUP2 ADD SWAP1 PUSH2 0xEA7 SWAP2 SWAP1 PUSH2 0x1E6A JUMP JUMPDEST PUSH1 0x40 MLOAD PUSH4 0x70A08231 PUSH1 0xE0 SHL DUP2 MSTORE ADDRESS PUSH1 0x4 DUP3 ADD MSTORE SWAP1 SWAP2 POP PUSH1 0x0 SWAP1 PUSH1 0x1 PUSH1 0x1 PUSH1 0xA0 SHL SUB DUP5 AND SWAP1 PUSH4 0x70A08231 SWAP1 PUSH1 0x24 ADD PUSH1 0x20 PUSH1 0x40 MLOAD DUP1 DUP4 SUB DUP2 DUP7 DUP1 EXTCODESIZE ISZERO DUP1 ISZERO PUSH2 0xEEC JUMPI PUSH1 0x0 DUP1 REVERT JUMPDEST POP GAS STATICCALL ISZERO DUP1 ISZERO PUSH2 0xF00 JUMPI RETURNDATASIZE PUSH1 0x0 DUP1 RETURNDATACOPY RETURNDATASIZE PUSH1 0x0 REVERT JUMPDEST POP POP POP POP PUSH1 0x40 MLOAD RETURNDATASIZE PUSH1 0x1F NOT PUSH1 0x1F DUP3 ADD AND DUP3 ADD DUP1 PUSH1 0x40 MSTORE POP DUP2 ADD SWAP1 PUSH2 0xF24 SWAP2 SWAP1 PUSH2 0x1E6A JUMP JUMPDEST ADDRESS PUSH1 0x0 SWAP1 DUP2 MSTORE PUSH1 0x1 PUSH1 0x20 MSTORE PUSH1 0x40 DUP2 KECCAK256 SLOAD SWAP2 SWAP3 POP PUSH2 0xF41 DUP9 DUP9 PUSH2 0x19E1 JUMP JUMPDEST PUSH1 0x0 SLOAD SWAP1 SWAP2 POP DUP1 PUSH2 0xF52 DUP7 DUP6 PUSH2 0x205A JUMP JUMPDEST PUSH2 0xF5C SWAP2 SWAP1 PUSH2 0x2017 JUMP JUMPDEST SWAP11 POP DUP1 PUSH2 0xF69 DUP6 DUP6 PUSH2 0x205A JUMP JUMPDEST PUSH2 0xF73 SWAP2 SWAP1 PUSH2 0x2017 JUMP JUMPDEST SWAP10 POP PUSH1 0x0 DUP12 GT DUP1 ISZERO PUSH2 0xF85 JUMPI POP PUSH1 0x0 DUP11 GT JUMPDEST PUSH2 0xFE2 JUMPI PUSH1 0x40 MLOAD PUSH3 0x461BCD PUSH1 0xE5 SHL DUP2 MSTORE PUSH1 0x20 PUSH1 0x4 DUP3 ADD MSTORE PUSH1 0x28 PUSH1 0x24 DUP3 ADD MSTORE PUSH32 0x556E697377617056323A20494E53554646494349454E545F4C49515549444954 PUSH1 0x44 DUP3 ADD MSTORE PUSH8 0x1657D09554939151 PUSH1 0xC2 SHL PUSH1 0x64 DUP3 ADD MSTORE PUSH1 0x84 ADD PUSH2 0x4A7 JUMP JUMPDEST PUSH2 0xFEC ADDRESS DUP5 PUSH2 0x1C43 JUMP JUMPDEST PUSH2 0xFF7 DUP8 DUP14 DUP14 PUSH2 0x160B JUMP JUMPDEST PUSH2 0x1002 DUP7 DUP14 DUP13 PUSH2 0x160B JUMP JUMPDEST PUSH1 0x40 MLOAD PUSH4 0x70A08231 PUSH1 0xE0 SHL DUP2 MSTORE ADDRESS PUSH1 0x4 DUP3 ADD MSTORE PUSH1 0x1 PUSH1 0x1 PUSH1 0xA0 SHL SUB DUP9 AND SWAP1 PUSH4 0x70A08231 SWAP1 PUSH1 0x24 ADD PUSH1 0x20 PUSH1 0x40 MLOAD DUP1 DUP4 SUB DUP2 DUP7 DUP1 EXTCODESIZE ISZERO DUP1 ISZERO PUSH2 0x1041 JUMPI PUSH1 0x0 DUP1 REVERT JUMPDEST POP GAS STATICCALL ISZERO DUP1 ISZERO PUSH2 0x1055 JUMPI RETURNDATASIZE PUSH1 0x0 DUP1 RETURNDATACOPY RETURNDATASIZE PUSH1 0x0 REVERT JUMPDEST POP POP POP POP PUSH1 0x40 MLOAD RETURNDATASIZE PUSH1 0x1F NOT PUSH1 0x1F DUP3 ADD AND DUP3 ADD DUP1 PUSH1 0x40 MSTORE POP DUP2 ADD SWAP1 PUSH2 0x1079 SWAP2 SWAP1 PUSH2 0x1E6A JUMP JUMPDEST PUSH1 0x40 MLOAD PUSH4 0x70A08231 PUSH1 0xE0 SHL DUP2 MSTORE ADDRESS PUSH1 0x4 DUP3 ADD MSTORE SWAP1 SWAP6 POP PUSH1 0x1 PUSH1 0x1 PUSH1 0xA0 SHL SUB DUP8 AND SWAP1 PUSH4 0x70A08231 SWAP1 PUSH1 0x24 ADD PUSH1 0x20 PUSH1 0x40 MLOAD DUP1 DUP4 SUB DUP2 DUP7 DUP1 EXTCODESIZE ISZERO DUP1 ISZERO PUSH2 0x10BB JUMPI PUSH1 0x0 DUP1 REVERT JUMPDEST POP GAS STATICCALL ISZERO DUP1 ISZERO PUSH2 0x10CF JUMPI RETURNDATASIZE PUSH1 0x0 DUP1 RETURNDATACOPY RETURNDATASIZE PUSH1 0x0 REVERT JUMPDEST POP POP POP POP PUSH1 0x40 MLOAD RETURNDATASIZE PUSH1 0x1F NOT PUSH1 0x1F DUP3 ADD AND DUP3 ADD DUP1 PUSH1 0x40 MSTORE POP DUP2 ADD SWAP1 PUSH2 0x10F3 SWAP2 SWAP1 PUSH2 0x1E6A JUMP JUMPDEST SWAP4 POP PUSH2 0x1101 DUP6 DUP6 DUP12 DUP12 PUSH2 0x1726 JUMP JUMPDEST DUP2 ISZERO PUSH2 0x112A JUMPI PUSH1 0x8 SLOAD PUSH2 0x1126 SWAP1 PUSH1 0x1 PUSH1 0x1 PUSH1 0x70 SHL SUB PUSH1 0x1 PUSH1 0x70 SHL DUP3 DIV DUP2 AND SWAP2 AND PUSH2 0x205A JUMP JUMPDEST PUSH1 0xD SSTORE JUMPDEST PUSH1 0x40 DUP1 MLOAD DUP13 DUP2 MSTORE PUSH1 0x20 DUP2 ADD DUP13 SWAP1 MSTORE PUSH1 0x1 PUSH1 0x1 PUSH1 0xA0 SHL SUB DUP15 AND SWAP2 CALLER SWAP2 PUSH32 0xDCCD412F0B1252819CB1FD330B93224CA42612892BB3F4F789976E6D81936496 SWAP2 ADD PUSH1 0x40 MLOAD DUP1 SWAP2 SUB SWAP1 LOG3 POP POP POP POP POP POP POP POP POP PUSH1 0x1 PUSH1 0xE DUP2 SWAP1 SSTORE POP SWAP2 POP SWAP2 JUMP JUMPDEST PUSH1 0x0 PUSH2 0x9FA CALLER DUP5 DUP5 PUSH2 0x1940 JUMP JUMPDEST PUSH1 0xE SLOAD PUSH1 0x1 EQ PUSH2 0x11B5 JUMPI PUSH1 0x40 MLOAD PUSH3 0x461BCD PUSH1 0xE5 SHL DUP2 MSTORE PUSH1 0x4 ADD PUSH2 0x4A7 SWAP1 PUSH2 0x1FAE JUMP JUMPDEST PUSH1 0x0 PUSH1 0xE SSTORE PUSH1 0x6 SLOAD PUSH1 0x7 SLOAD PUSH1 0x8 SLOAD PUSH1 0x40 MLOAD PUSH4 0x70A08231 PUSH1 0xE0 SHL DUP2 MSTORE ADDRESS PUSH1 0x4 DUP3 ADD MSTORE PUSH1 0x1 PUSH1 0x1 PUSH1 0xA0 SHL SUB SWAP4 DUP5 AND SWAP4 SWAP1 SWAP3 AND SWAP2 PUSH2 0x1263 SWAP2 DUP5 SWAP2 DUP7 SWAP2 PUSH1 0x1 PUSH1 0x1 PUSH1 0x70 SHL SUB AND SWAP1 DUP4 SWAP1 PUSH4 0x70A08231 SWAP1 PUSH1 0x24 ADD JUMPDEST PUSH1 0x20 PUSH1 0x40 MLOAD DUP1 DUP4 SUB DUP2 DUP7 DUP1 EXTCODESIZE ISZERO DUP1 ISZERO PUSH2 0x121C JUMPI PUSH1 0x0 DUP1 REVERT JUMPDEST POP GAS STATICCALL ISZERO DUP1 ISZERO PUSH2 0x1230 JUMPI RETURNDATASIZE PUSH1 0x0 DUP1 RETURNDATACOPY RETURNDATASIZE PUSH1 0x0 REVERT JUMPDEST POP POP POP POP PUSH1 0x40 MLOAD RETURNDATASIZE PUSH1 0x1F NOT PUSH1 0x1F DUP3 ADD AND DUP3 ADD DUP1 PUSH1 0x40 MSTORE POP DUP2 ADD SWAP1 PUSH2 0x1254 SWAP2 SWAP1 PUSH2 0x1E6A JUMP JUMPDEST PUSH2 0x125E SWAP2 SWAP1 PUSH2 0x2079 JUMP JUMPDEST PUSH2 0x160B JUMP JUMPDEST PUSH1 0x8 SLOAD PUSH1 0x40 MLOAD PUSH4 0x70A08231 PUSH1 0xE0 SHL DUP2 MSTORE ADDRESS PUSH1 0x4 DUP3 ADD MSTORE PUSH2 0x12AB SWAP2 DUP4 SWAP2 DUP7 SWAP2 PUSH1 0x1 PUSH1 0x70 SHL SWAP1 DIV PUSH1 0x1 PUSH1 0x1 PUSH1 0x70 SHL SUB AND SWAP1 PUSH1 0x1 PUSH1 0x1 PUSH1 0xA0 SHL SUB DUP5 AND SWAP1 PUSH4 0x70A08231 SWAP1 PUSH1 0x24 ADD PUSH2 0x1204 JUMP JUMPDEST POP POP PUSH1 0x1 PUSH1 0xE SSTORE POP JUMP JUMPDEST TIMESTAMP DUP5 LT ISZERO PUSH2 0x12FA JUMPI PUSH1 0x40 MLOAD PUSH3 0x461BCD PUSH1 0xE5 SHL DUP2 MSTORE PUSH1 0x20 PUSH1 0x4 DUP3 ADD MSTORE PUSH1 0x12 PUSH1 0x24 DUP3 ADD MSTORE PUSH18 0x155B9A5CDDD85C158C8E8811561412549151 PUSH1 0x72 SHL PUSH1 0x44 DUP3 ADD MSTORE PUSH1 0x64 ADD PUSH2 0x4A7 JUMP JUMPDEST PUSH1 0x3 SLOAD PUSH1 0x1 PUSH1 0x1 PUSH1 0xA0 SHL SUB DUP9 AND PUSH1 0x0 SWAP1 DUP2 MSTORE PUSH1 0x4 PUSH1 0x20 MSTORE PUSH1 0x40 DUP2 KECCAK256 DUP1 SLOAD SWAP2 SWAP3 SWAP2 PUSH32 0x6E71EDAE12B1B97F4D1F60370FEF10105FA2FAAE0126114A169C64845D6126C9 SWAP2 DUP12 SWAP2 DUP12 SWAP2 DUP12 SWAP2 SWAP1 DUP8 PUSH2 0x134D DUP4 PUSH2 0x20C0 JUMP JUMPDEST SWAP1 SWAP2 SSTORE POP PUSH1 0x40 DUP1 MLOAD PUSH1 0x20 DUP2 ADD SWAP7 SWAP1 SWAP7 MSTORE PUSH1 0x1 PUSH1 0x1 PUSH1 0xA0 SHL SUB SWAP5 DUP6 AND SWAP1 DUP7 ADD MSTORE SWAP3 SWAP1 SWAP2 AND PUSH1 0x60 DUP5 ADD MSTORE PUSH1 0x80 DUP4 ADD MSTORE PUSH1 0xA0 DUP3 ADD MSTORE PUSH1 0xC0 DUP2 ADD DUP8 SWAP1 MSTORE PUSH1 0xE0 ADD PUSH1 0x40 MLOAD PUSH1 0x20 DUP2 DUP4 SUB SUB DUP2 MSTORE SWAP1 PUSH1 0x40 MSTORE DUP1 MLOAD SWAP1 PUSH1 0x20 ADD KECCAK256 PUSH1 0x40 MLOAD PUSH1 0x20 ADD PUSH2 0x13C6 SWAP3 SWAP2 SWAP1 PUSH2 0x1901 PUSH1 0xF0 SHL DUP2 MSTORE PUSH1 0x2 DUP2 ADD SWAP3 SWAP1 SWAP3 MSTORE PUSH1 0x22 DUP3 ADD MSTORE PUSH1 0x42 ADD SWAP1 JUMP JUMPDEST PUSH1 0x40 DUP1 MLOAD PUSH1 0x1F NOT DUP2 DUP5 SUB ADD DUP2 MSTORE DUP3 DUP3 MSTORE DUP1 MLOAD PUSH1 0x20 SWAP2 DUP3 ADD KECCAK256 PUSH1 0x0 DUP1 DUP6 MSTORE SWAP2 DUP5 ADD DUP1 DUP5 MSTORE DUP2 SWAP1 MSTORE PUSH1 0xFF DUP9 AND SWAP3 DUP5 ADD SWAP3 SWAP1 SWAP3 MSTORE PUSH1 0x60 DUP4 ADD DUP7 SWAP1 MSTORE PUSH1 0x80 DUP4 ADD DUP6 SWAP1 MSTORE SWAP1 SWAP3 POP SWAP1 PUSH1 0x1 SWAP1 PUSH1 0xA0 ADD PUSH1 0x20 PUSH1 0x40 MLOAD PUSH1 0x20 DUP2 SUB SWAP1 DUP1 DUP5 SUB SWAP1 DUP6 GAS STATICCALL ISZERO DUP1 ISZERO PUSH2 0x1431 JUMPI RETURNDATASIZE PUSH1 0x0 DUP1 RETURNDATACOPY RETURNDATASIZE PUSH1 0x0 REVERT JUMPDEST POP POP PUSH1 0x40 MLOAD PUSH1 0x1F NOT ADD MLOAD SWAP2 POP POP PUSH1 0x1 PUSH1 0x1 PUSH1 0xA0 SHL SUB DUP2 AND ISZERO DUP1 ISZERO SWAP1 PUSH2 0x1467 JUMPI POP DUP9 PUSH1 0x1 PUSH1 0x1 PUSH1 0xA0 SHL SUB AND DUP2 PUSH1 0x1 PUSH1 0x1 PUSH1 0xA0 SHL SUB AND EQ JUMPDEST PUSH2 0x14B3 JUMPI PUSH1 0x40 MLOAD PUSH3 0x461BCD PUSH1 0xE5 SHL DUP2 MSTORE PUSH1 0x20 PUSH1 0x4 DUP3 ADD MSTORE PUSH1 0x1C PUSH1 0x24 DUP3 ADD MSTORE PUSH32 0x556E697377617056323A20494E56414C49445F5349474E415455524500000000 PUSH1 0x44 DUP3 ADD MSTORE PUSH1 0x64 ADD PUSH2 0x4A7 JUMP JUMPDEST PUSH2 0x14BE DUP10 DUP10 DUP10 PUSH2 0x18DE JUMP JUMPDEST POP POP POP POP POP POP POP POP POP JUMP JUMPDEST PUSH1 0xE SLOAD PUSH1 0x1 EQ PUSH2 0x14EB JUMPI PUSH1 0x40 MLOAD PUSH3 0x461BCD PUSH1 0xE5 SHL DUP2 MSTORE PUSH1 0x4 ADD PUSH2 0x4A7 SWAP1 PUSH2 0x1FAE JUMP JUMPDEST PUSH1 0x0 PUSH1 0xE SSTORE PUSH1 0x6 SLOAD PUSH1 0x40 MLOAD PUSH4 0x70A08231 PUSH1 0xE0 SHL DUP2 MSTORE ADDRESS PUSH1 0x4 DUP3 ADD MSTORE PUSH2 0x1604 SWAP2 PUSH1 0x1 PUSH1 0x1 PUSH1 0xA0 SHL SUB AND SWAP1 PUSH4 0x70A08231 SWAP1 PUSH1 0x24 ADD PUSH1 0x20 PUSH1 0x40 MLOAD DUP1 DUP4 SUB DUP2 DUP7 DUP1 EXTCODESIZE ISZERO DUP1 ISZERO PUSH2 0x1535 JUMPI PUSH1 0x0 DUP1 REVERT JUMPDEST POP GAS STATICCALL ISZERO DUP1 ISZERO PUSH2 0x1549 JUMPI RETURNDATASIZE PUSH1 0x0 DUP1 RETURNDATACOPY RETURNDATASIZE PUSH1 0x0 REVERT JUMPDEST POP POP POP POP PUSH1 0x40 MLOAD RETURNDATASIZE PUSH1 0x1F NOT PUSH1 0x1F DUP3 ADD AND DUP3 ADD DUP1 PUSH1 0x40 MSTORE POP DUP2 ADD SWAP1 PUSH2 0x156D SWAP2 SWAP1 PUSH2 0x1E6A JUMP JUMPDEST PUSH1 0x7 SLOAD PUSH1 0x40 MLOAD PUSH4 0x70A08231 PUSH1 0xE0 SHL DUP2 MSTORE ADDRESS PUSH1 0x4 DUP3 ADD MSTORE PUSH1 0x1 PUSH1 0x1 PUSH1 0xA0 SHL SUB SWAP1 SWAP2 AND SWAP1 PUSH4 0x70A08231 SWAP1 PUSH1 0x24 ADD PUSH1 0x20 PUSH1 0x40 MLOAD DUP1 DUP4 SUB DUP2 DUP7 DUP1 EXTCODESIZE ISZERO DUP1 ISZERO PUSH2 0x15B0 JUMPI PUSH1 0x0 DUP1 REVERT JUMPDEST POP GAS STATICCALL ISZERO DUP1 ISZERO PUSH2 0x15C4 JUMPI RETURNDATASIZE PUSH1 0x0 DUP1 RETURNDATACOPY RETURNDATASIZE PUSH1 0x0 REVERT JUMPDEST POP POP POP POP PUSH1 0x40 MLOAD RETURNDATASIZE PUSH1 0x1F NOT PUSH1 0x1F DUP3 ADD AND DUP3 ADD DUP1 PUSH1 0x40 MSTORE POP DUP2 ADD SWAP1 PUSH2 0x15E8 SWAP2 SWAP1 PUSH2 0x1E6A JUMP JUMPDEST PUSH1 0x8 SLOAD PUSH1 0x1 PUSH1 0x1 PUSH1 0x70 SHL SUB DUP1 DUP3 AND SWAP2 PUSH1 0x1 PUSH1 0x70 SHL SWAP1 DIV AND PUSH2 0x1726 JUMP JUMPDEST PUSH1 0x1 PUSH1 0xE SSTORE JUMP JUMPDEST PUSH1 0x40 DUP1 MLOAD PUSH1 0x1 PUSH1 0x1 PUSH1 0xA0 SHL SUB DUP5 DUP2 AND PUSH1 0x24 DUP4 ADD MSTORE PUSH1 0x44 DUP1 DUP4 ADD DUP6 SWAP1 MSTORE DUP4 MLOAD DUP1 DUP5 SUB SWAP1 SWAP2 ADD DUP2 MSTORE PUSH1 0x64 SWAP1 SWAP3 ADD DUP4 MSTORE PUSH1 0x20 DUP3 ADD DUP1 MLOAD PUSH1 0x1 PUSH1 0x1 PUSH1 0xE0 SHL SUB AND PUSH4 0xA9059CBB PUSH1 0xE0 SHL OR SWAP1 MSTORE SWAP2 MLOAD PUSH1 0x0 SWAP3 DUP4 SWAP3 SWAP1 DUP8 AND SWAP2 PUSH2 0x1667 SWAP2 SWAP1 PUSH2 0x1F13 JUMP JUMPDEST PUSH1 0x0 PUSH1 0x40 MLOAD DUP1 DUP4 SUB DUP2 PUSH1 0x0 DUP7 GAS CALL SWAP2 POP POP RETURNDATASIZE DUP1 PUSH1 0x0 DUP2 EQ PUSH2 0x16A4 JUMPI PUSH1 0x40 MLOAD SWAP2 POP PUSH1 0x1F NOT PUSH1 0x3F RETURNDATASIZE ADD AND DUP3 ADD PUSH1 0x40 MSTORE RETURNDATASIZE DUP3 MSTORE RETURNDATASIZE PUSH1 0x0 PUSH1 0x20 DUP5 ADD RETURNDATACOPY PUSH2 0x16A9 JUMP JUMPDEST PUSH1 0x60 SWAP2 POP JUMPDEST POP SWAP2 POP SWAP2 POP DUP2 DUP1 ISZERO PUSH2 0x16D3 JUMPI POP DUP1 MLOAD ISZERO DUP1 PUSH2 0x16D3 JUMPI POP DUP1 DUP1 PUSH1 0x20 ADD SWAP1 MLOAD DUP2 ADD SWAP1 PUSH2 0x16D3 SWAP2 SWAP1 PUSH2 0x1E4A JUMP JUMPDEST PUSH2 0x171F JUMPI PUSH1 0x40 MLOAD PUSH3 0x461BCD PUSH1 0xE5 SHL DUP2 MSTORE PUSH1 0x20 PUSH1 0x4 DUP3 ADD MSTORE PUSH1 0x1A PUSH1 0x24 DUP3 ADD MSTORE PUSH32 0x556E697377617056323A205452414E534645525F4641494C4544000000000000 PUSH1 0x44 DUP3 ADD MSTORE PUSH1 0x64 ADD PUSH2 0x4A7 JUMP JUMPDEST POP POP POP POP POP JUMP JUMPDEST PUSH1 0x1 PUSH1 0x1 PUSH1 0x70 SHL SUB DUP5 GT DUP1 ISZERO SWAP1 PUSH2 0x1744 JUMPI POP PUSH1 0x1 PUSH1 0x1 PUSH1 0x70 SHL SUB DUP4 GT ISZERO JUMPDEST PUSH2 0x1786 JUMPI PUSH1 0x40 MLOAD PUSH3 0x461BCD PUSH1 0xE5 SHL DUP2 MSTORE PUSH1 0x20 PUSH1 0x4 DUP3 ADD MSTORE PUSH1 0x13 PUSH1 0x24 DUP3 ADD MSTORE PUSH19 0x556E697377617056323A204F564552464C4F57 PUSH1 0x68 SHL PUSH1 0x44 DUP3 ADD MSTORE PUSH1 0x64 ADD PUSH2 0x4A7 JUMP JUMPDEST PUSH1 0x0 PUSH2 0x1797 PUSH5 0x100000000 TIMESTAMP PUSH2 0x20DB JUMP JUMPDEST PUSH1 0x8 SLOAD SWAP1 SWAP2 POP PUSH4 0xFFFFFFFF PUSH1 0x1 PUSH1 0xE0 SHL SWAP1 SWAP2 DIV DUP2 AND DUP3 SUB SWAP1 DUP2 AND ISZERO DUP1 ISZERO SWAP1 PUSH2 0x17C7 JUMPI POP PUSH1 0x1 PUSH1 0x1 PUSH1 0x70 SHL SUB DUP5 AND ISZERO ISZERO JUMPDEST DUP1 ISZERO PUSH2 0x17DB JUMPI POP PUSH1 0x1 PUSH1 0x1 PUSH1 0x70 SHL SUB DUP4 AND ISZERO ISZERO JUMPDEST ISZERO PUSH2 0x1846 JUMPI DUP1 PUSH4 0xFFFFFFFF AND PUSH2 0x1803 DUP6 PUSH2 0x17F4 DUP7 PUSH2 0x1CC6 JUMP JUMPDEST PUSH1 0x1 PUSH1 0x1 PUSH1 0xE0 SHL SUB AND SWAP1 PUSH2 0x1CE5 JUMP JUMPDEST PUSH1 0xB DUP1 SLOAD PUSH1 0x1 PUSH1 0x1 PUSH1 0xE0 SHL SUB SWAP3 SWAP1 SWAP3 AND SWAP3 SWAP1 SWAP3 MUL ADD SWAP1 SSTORE PUSH4 0xFFFFFFFF DUP2 AND PUSH2 0x182E DUP5 PUSH2 0x17F4 DUP8 PUSH2 0x1CC6 JUMP JUMPDEST PUSH1 0xC DUP1 SLOAD PUSH1 0x1 PUSH1 0x1 PUSH1 0xE0 SHL SUB SWAP3 SWAP1 SWAP3 AND SWAP3 SWAP1 SWAP3 MUL ADD SWAP1 SSTORE JUMPDEST POP PUSH1 0x8 DUP1 SLOAD PUSH4 0xFFFFFFFF DUP4 AND PUSH1 0x1 PUSH1 0xE0 SHL MUL PUSH1 0x1 PUSH1 0x1 PUSH1 0xE0 SHL SUB PUSH1 0x1 PUSH1 0x1 PUSH1 0x70 SHL SUB DUP9 DUP2 AND PUSH1 0x1 PUSH1 0x70 SHL SWAP1 DUP2 MUL PUSH1 0x1 PUSH1 0x1 PUSH1 0xE0 SHL SUB NOT SWAP1 SWAP6 AND DUP12 DUP4 AND OR SWAP5 SWAP1 SWAP5 OR SWAP2 DUP3 AND DUP4 OR SWAP5 DUP6 SWAP1 SSTORE PUSH1 0x40 DUP1 MLOAD SWAP4 DUP3 AND SWAP3 DUP3 AND SWAP3 SWAP1 SWAP3 OR DUP4 MSTORE SWAP3 SWAP1 SWAP4 DIV SWAP1 SWAP2 AND PUSH1 0x20 DUP3 ADD MSTORE PUSH32 0x1C411E9A96E071241C2F21F7726B17AE89E3CAB4C78BE50E062B03A9FFFBBAD1 SWAP2 ADD PUSH1 0x40 MLOAD DUP1 SWAP2 SUB SWAP1 LOG1 POP POP POP POP POP JUMP JUMPDEST PUSH1 0x1 PUSH1 0x1 PUSH1 0xA0 SHL SUB DUP4 DUP2 AND PUSH1 0x0 DUP2 DUP2 MSTORE PUSH1 0x2 PUSH1 0x20 SWAP1 DUP2 MSTORE PUSH1 0x40 DUP1 DUP4 KECCAK256 SWAP5 DUP8 AND DUP1 DUP5 MSTORE SWAP5 DUP3 MSTORE SWAP2 DUP3 SWAP1 KECCAK256 DUP6 SWAP1 SSTORE SWAP1 MLOAD DUP5 DUP2 MSTORE PUSH32 0x8C5BE1E5EBEC7D5BD14F71427D1E84F3DD0314C0F7B2291E5B200AC8C7C3B925 SWAP2 ADD JUMPDEST PUSH1 0x40 MLOAD DUP1 SWAP2 SUB SWAP1 LOG3 POP POP POP JUMP JUMPDEST PUSH1 0x1 PUSH1 0x1 PUSH1 0xA0 SHL SUB DUP4 AND PUSH1 0x0 SWAP1 DUP2 MSTORE PUSH1 0x1 PUSH1 0x20 MSTORE PUSH1 0x40 DUP2 KECCAK256 DUP1 SLOAD DUP4 SWAP3 SWAP1 PUSH2 0x1968 SWAP1 DUP5 SWAP1 PUSH2 0x2079 JUMP JUMPDEST SWAP1 SWAP2 SSTORE POP POP PUSH1 0x1 PUSH1 0x1 PUSH1 0xA0 SHL SUB DUP3 AND PUSH1 0x0 SWAP1 DUP2 MSTORE PUSH1 0x1 PUSH1 0x20 MSTORE PUSH1 0x40 DUP2 KECCAK256 DUP1 SLOAD DUP4 SWAP3 SWAP1 PUSH2 0x1995 SWAP1 DUP5 SWAP1 PUSH2 0x1FD9 JUMP JUMPDEST SWAP3 POP POP DUP2 SWAP1 SSTORE POP DUP2 PUSH1 0x1 PUSH1 0x1 PUSH1 0xA0 SHL SUB AND DUP4 PUSH1 0x1 PUSH1 0x1 PUSH1 0xA0 SHL SUB AND PUSH32 0xDDF252AD1BE2C89B69C2B068FC378DAA952BA7F163C4A11628F55A4DF523B3EF DUP4 PUSH1 0x40 MLOAD PUSH2 0x1933 SWAP2 DUP2 MSTORE PUSH1 0x20 ADD SWAP1 JUMP JUMPDEST PUSH1 0x0 DUP1 PUSH1 0x5 PUSH1 0x0 SWAP1 SLOAD SWAP1 PUSH2 0x100 EXP SWAP1 DIV PUSH1 0x1 PUSH1 0x1 PUSH1 0xA0 SHL SUB AND PUSH1 0x1 PUSH1 0x1 PUSH1 0xA0 SHL SUB AND PUSH4 0x17E7E58 PUSH1 0x40 MLOAD DUP2 PUSH4 0xFFFFFFFF AND PUSH1 0xE0 SHL DUP2 MSTORE PUSH1 0x4 ADD PUSH1 0x20 PUSH1 0x40 MLOAD DUP1 DUP4 SUB DUP2 DUP7 DUP1 EXTCODESIZE ISZERO DUP1 ISZERO PUSH2 0x1A32 JUMPI PUSH1 0x0 DUP1 REVERT JUMPDEST POP GAS STATICCALL ISZERO DUP1 ISZERO PUSH2 0x1A46 JUMPI RETURNDATASIZE PUSH1 0x0 DUP1 RETURNDATACOPY RETURNDATASIZE PUSH1 0x0 REVERT JUMPDEST POP POP POP POP PUSH1 0x40 MLOAD RETURNDATASIZE PUSH1 0x1F NOT PUSH1 0x1F DUP3 ADD AND DUP3 ADD DUP1 PUSH1 0x40 MSTORE POP DUP2 ADD SWAP1 PUSH2 0x1A6A SWAP2 SWAP1 PUSH2 0x1D16 JUMP JUMPDEST PUSH1 0xD SLOAD PUSH1 0x1 PUSH1 0x1 PUSH1 0xA0 SHL SUB DUP3 AND ISZERO DUP1 ISZERO SWAP5 POP SWAP2 SWAP3 POP SWAP1 PUSH2 0x1B1E JUMPI DUP1 ISZERO PUSH2 0x1B19 JUMPI PUSH1 0x0 PUSH2 0x1AA5 PUSH2 0xC8D PUSH1 0x1 PUSH1 0x1 PUSH1 0x70 SHL SUB DUP1 DUP9 AND SWAP1 DUP10 AND PUSH2 0x205A JUMP JUMPDEST SWAP1 POP PUSH1 0x0 PUSH2 0x1AB2 DUP4 PUSH2 0x1B32 JUMP JUMPDEST SWAP1 POP DUP1 DUP3 GT ISZERO PUSH2 0x1B16 JUMPI PUSH1 0x0 PUSH2 0x1AC8 DUP3 DUP5 PUSH2 0x2079 JUMP JUMPDEST PUSH1 0x0 SLOAD PUSH2 0x1AD5 SWAP2 SWAP1 PUSH2 0x205A JUMP JUMPDEST SWAP1 POP PUSH1 0x0 DUP3 PUSH1 0xA SLOAD DUP6 PUSH2 0x1AE8 SWAP2 SWAP1 PUSH2 0x205A JUMP JUMPDEST PUSH2 0x1AF2 SWAP2 SWAP1 PUSH2 0x1FD9 JUMP JUMPDEST SWAP1 POP PUSH1 0x0 PUSH2 0x1B00 DUP3 DUP5 PUSH2 0x2017 JUMP JUMPDEST SWAP1 POP DUP1 ISZERO PUSH2 0x1B12 JUMPI PUSH2 0x1B12 DUP8 DUP3 PUSH2 0x1BA2 JUMP JUMPDEST POP POP POP JUMPDEST POP POP JUMPDEST PUSH2 0x1B2A JUMP JUMPDEST DUP1 ISZERO PUSH2 0x1B2A JUMPI PUSH1 0x0 PUSH1 0xD SSTORE JUMPDEST POP POP SWAP3 SWAP2 POP POP JUMP JUMPDEST PUSH1 0x0 PUSH1 0x3 DUP3 GT ISZERO PUSH2 0x1B93 JUMPI POP DUP1 PUSH1 0x0 PUSH2 0x1B4C PUSH1 0x2 DUP4 PUSH2 0x2017 JUMP JUMPDEST PUSH2 0x1B57 SWAP1 PUSH1 0x1 PUSH2 0x1FD9 JUMP JUMPDEST SWAP1 POP JUMPDEST DUP2 DUP2 LT ISZERO PUSH2 0x1B8D JUMPI SWAP1 POP DUP1 PUSH1 0x2 DUP2 PUSH2 0x1B72 DUP2 DUP7 PUSH2 0x2017 JUMP JUMPDEST PUSH2 0x1B7C SWAP2 SWAP1 PUSH2 0x1FD9 JUMP JUMPDEST PUSH2 0x1B86 SWAP2 SWAP1 PUSH2 0x2017 JUMP JUMPDEST SWAP1 POP PUSH2 0x1B5A JUMP JUMPDEST POP SWAP2 SWAP1 POP JUMP JUMPDEST DUP2 ISZERO PUSH2 0x1B9D JUMPI POP PUSH1 0x1 JUMPDEST SWAP2 SWAP1 POP JUMP JUMPDEST DUP1 PUSH1 0x0 DUP1 DUP3 DUP3 SLOAD PUSH2 0x1BB3 SWAP2 SWAP1 PUSH2 0x1FD9 JUMP JUMPDEST SWAP1 SWAP2 SSTORE POP POP PUSH1 0x1 PUSH1 0x1 PUSH1 0xA0 SHL SUB DUP3 AND PUSH1 0x0 SWAP1 DUP2 MSTORE PUSH1 0x1 PUSH1 0x20 MSTORE PUSH1 0x40 DUP2 KECCAK256 DUP1 SLOAD DUP4 SWAP3 SWAP1 PUSH2 0x1BE0 SWAP1 DUP5 SWAP1 PUSH2 0x1FD9 JUMP JUMPDEST SWAP1 SWAP2 SSTORE POP POP PUSH1 0x40 MLOAD DUP2 DUP2 MSTORE PUSH1 0x1 PUSH1 0x1 PUSH1 0xA0 SHL SUB DUP4 AND SWAP1 PUSH1 0x0 SWAP1 PUSH32 0xDDF252AD1BE2C89B69C2B068FC378DAA952BA7F163C4A11628F55A4DF523B3EF SWAP1 PUSH1 0x20 ADD JUMPDEST PUSH1 0x40 MLOAD DUP1 SWAP2 SUB SWAP1 LOG3 POP POP JUMP JUMPDEST PUSH1 0x0 DUP2 DUP4 LT PUSH2 0x1C3A JUMPI DUP2 PUSH2 0x1C3C JUMP JUMPDEST DUP3 JUMPDEST SWAP4 SWAP3 POP POP POP JUMP JUMPDEST PUSH1 0x1 PUSH1 0x1 PUSH1 0xA0 SHL SUB DUP3 AND PUSH1 0x0 SWAP1 DUP2 MSTORE PUSH1 0x1 PUSH1 0x20 MSTORE PUSH1 0x40 DUP2 KECCAK256 DUP1 SLOAD DUP4 SWAP3 SWAP1 PUSH2 0x1C6B SWAP1 DUP5 SWAP1 PUSH2 0x2079 JUMP JUMPDEST SWAP3 POP POP DUP2 SWAP1 SSTORE POP DUP1 PUSH1 0x0 DUP1 DUP3 DUP3 SLOAD PUSH2 0x1C83 SWAP2 SWAP1 PUSH2 0x2079 JUMP JUMPDEST SWAP1 SWAP2 SSTORE POP POP PUSH1 0x40 MLOAD DUP2 DUP2 MSTORE PUSH1 0x0 SWAP1 PUSH1 0x1 PUSH1 0x1 PUSH1 0xA0 SHL SUB DUP5 AND SWAP1 PUSH32 0xDDF252AD1BE2C89B69C2B068FC378DAA952BA7F163C4A11628F55A4DF523B3EF SWAP1 PUSH1 0x20 ADD PUSH2 0x1C1F JUMP JUMPDEST PUSH1 0x0 PUSH2 0x1CDF PUSH1 0x1 PUSH1 0x70 SHL PUSH1 0x1 PUSH1 0x1 PUSH1 0x70 SHL SUB DUP5 AND PUSH2 0x202B JUMP JUMPDEST SWAP3 SWAP2 POP POP JUMP JUMPDEST PUSH1 0x0 PUSH2 0x1C3C PUSH1 0x1 PUSH1 0x1 PUSH1 0x70 SHL SUB DUP4 AND DUP5 PUSH2 0x1FF1 JUMP JUMPDEST PUSH1 0x0 PUSH1 0x20 DUP3 DUP5 SUB SLT ISZERO PUSH2 0x1D0B JUMPI DUP1 DUP2 REVERT JUMPDEST DUP2 CALLDATALOAD PUSH2 0x1C3C DUP2 PUSH2 0x211B JUMP JUMPDEST PUSH1 0x0 PUSH1 0x20 DUP3 DUP5 SUB SLT ISZERO PUSH2 0x1D27 JUMPI DUP1 DUP2 REVERT JUMPDEST DUP2 MLOAD PUSH2 0x1C3C DUP2 PUSH2 0x211B JUMP JUMPDEST PUSH1 0x0 DUP1 PUSH1 0x40 DUP4 DUP6 SUB SLT ISZERO PUSH2 0x1D44 JUMPI DUP1 DUP2 REVERT JUMPDEST DUP3 CALLDATALOAD PUSH2 0x1D4F DUP2 PUSH2 0x211B JUMP JUMPDEST SWAP2 POP PUSH1 0x20 DUP4 ADD CALLDATALOAD PUSH2 0x1D5F DUP2 PUSH2 0x211B JUMP JUMPDEST DUP1 SWAP2 POP POP SWAP3 POP SWAP3 SWAP1 POP JUMP JUMPDEST PUSH1 0x0 DUP1 PUSH1 0x0 PUSH1 0x60 DUP5 DUP7 SUB SLT ISZERO PUSH2 0x1D7E JUMPI DUP1 DUP2 REVERT JUMPDEST DUP4 CALLDATALOAD PUSH2 0x1D89 DUP2 PUSH2 0x211B JUMP JUMPDEST SWAP3 POP PUSH1 0x20 DUP5 ADD CALLDATALOAD PUSH2 0x1D99 DUP2 PUSH2 0x211B JUMP JUMPDEST SWAP3 SWAP6 SWAP3 SWAP5 POP POP POP PUSH1 0x40 SWAP2 SWAP1 SWAP2 ADD CALLDATALOAD SWAP1 JUMP JUMPDEST PUSH1 0x0 DUP1 PUSH1 0x0 DUP1 PUSH1 0x0 DUP1 PUSH1 0x0 PUSH1 0xE0 DUP9 DUP11 SUB SLT ISZERO PUSH2 0x1DC4 JUMPI DUP3 DUP4 REVERT JUMPDEST DUP8 CALLDATALOAD PUSH2 0x1DCF DUP2 PUSH2 0x211B JUMP JUMPDEST SWAP7 POP PUSH1 0x20 DUP9 ADD CALLDATALOAD PUSH2 0x1DDF DUP2 PUSH2 0x211B JUMP JUMPDEST SWAP6 POP PUSH1 0x40 DUP9 ADD CALLDATALOAD SWAP5 POP PUSH1 0x60 DUP9 ADD CALLDATALOAD SWAP4 POP PUSH1 0x80 DUP9 ADD CALLDATALOAD PUSH1 0xFF DUP2 AND DUP2 EQ PUSH2 0x1E02 JUMPI DUP4 DUP5 REVERT JUMPDEST SWAP7 SWAP10 SWAP6 SWAP9 POP SWAP4 SWAP7 SWAP3 SWAP6 SWAP5 PUSH1 0xA0 DUP5 ADD CALLDATALOAD SWAP5 POP PUSH1 0xC0 SWAP1 SWAP4 ADD CALLDATALOAD SWAP3 SWAP2 POP POP JUMP JUMPDEST PUSH1 0x0 DUP1 PUSH1 0x40 DUP4 DUP6 SUB SLT ISZERO PUSH2 0x1E31 JUMPI DUP2 DUP3 REVERT JUMPDEST DUP3 CALLDATALOAD PUSH2 0x1E3C DUP2 PUSH2 0x211B JUMP JUMPDEST SWAP5 PUSH1 0x20 SWAP4 SWAP1 SWAP4 ADD CALLDATALOAD SWAP4 POP POP POP JUMP JUMPDEST PUSH1 0x0 PUSH1 0x20 DUP3 DUP5 SUB SLT ISZERO PUSH2 0x1E5B JUMPI DUP1 DUP2 REVERT JUMPDEST DUP2 MLOAD DUP1 ISZERO ISZERO DUP2 EQ PUSH2 0x1C3C JUMPI DUP2 DUP3 REVERT JUMPDEST PUSH1 0x0 PUSH1 0x20 DUP3 DUP5 SUB SLT ISZERO PUSH2 0x1E7B JUMPI DUP1 DUP2 REVERT JUMPDEST POP MLOAD SWAP2 SWAP1 POP JUMP JUMPDEST PUSH1 0x0 DUP1 PUSH1 0x0 DUP1 PUSH1 0x0 PUSH1 0x80 DUP7 DUP9 SUB SLT ISZERO PUSH2 0x1E99 JUMPI DUP1 DUP2 REVERT JUMPDEST DUP6 CALLDATALOAD SWAP5 POP PUSH1 0x20 DUP7 ADD CALLDATALOAD SWAP4 POP PUSH1 0x40 DUP7 ADD CALLDATALOAD PUSH2 0x1EB2 DUP2 PUSH2 0x211B JUMP JUMPDEST SWAP3 POP PUSH1 0x60 DUP7 ADD CALLDATALOAD PUSH8 0xFFFFFFFFFFFFFFFF DUP1 DUP3 GT ISZERO PUSH2 0x1ECE JUMPI DUP3 DUP4 REVERT JUMPDEST DUP2 DUP9 ADD SWAP2 POP DUP9 PUSH1 0x1F DUP4 ADD SLT PUSH2 0x1EE1 JUMPI DUP3 DUP4 REVERT JUMPDEST DUP2 CALLDATALOAD DUP2 DUP2 GT ISZERO PUSH2 0x1EEF JUMPI DUP4 DUP5 REVERT JUMPDEST DUP10 PUSH1 0x20 DUP3 DUP6 ADD ADD GT ISZERO PUSH2 0x1F00 JUMPI DUP4 DUP5 REVERT JUMPDEST SWAP7 SWAP10 SWAP6 SWAP9 POP SWAP4 SWAP7 POP PUSH1 0x20 ADD SWAP5 SWAP4 SWAP3 POP POP POP JUMP JUMPDEST PUSH1 0x0 DUP3 MLOAD PUSH2 0x1F25 DUP2 DUP5 PUSH1 0x20 DUP8 ADD PUSH2 0x2090 JUMP JUMPDEST SWAP2 SWAP1 SWAP2 ADD SWAP3 SWAP2 POP POP JUMP JUMPDEST PUSH1 0x1 DUP1 PUSH1 0xA0 SHL SUB DUP7 AND DUP2 MSTORE DUP5 PUSH1 0x20 DUP3 ADD MSTORE DUP4 PUSH1 0x40 DUP3 ADD MSTORE PUSH1 0x80 PUSH1 0x60 DUP3 ADD MSTORE DUP2 PUSH1 0x80 DUP3 ADD MSTORE DUP2 DUP4 PUSH1 0xA0 DUP4 ADD CALLDATACOPY PUSH1 0x0 DUP2 DUP4 ADD PUSH1 0xA0 SWAP1 DUP2 ADD SWAP2 SWAP1 SWAP2 MSTORE PUSH1 0x1F SWAP1 SWAP3 ADD PUSH1 0x1F NOT AND ADD ADD SWAP5 SWAP4 POP POP POP POP JUMP JUMPDEST PUSH1 0x20 DUP2 MSTORE PUSH1 0x0 DUP3 MLOAD DUP1 PUSH1 0x20 DUP5 ADD MSTORE PUSH2 0x1F9A DUP2 PUSH1 0x40 DUP6 ADD PUSH1 0x20 DUP8 ADD PUSH2 0x2090 JUMP JUMPDEST PUSH1 0x1F ADD PUSH1 0x1F NOT AND SWAP2 SWAP1 SWAP2 ADD PUSH1 0x40 ADD SWAP3 SWAP2 POP POP JUMP JUMPDEST PUSH1 0x20 DUP1 DUP3 MSTORE PUSH1 0x11 SWAP1 DUP3 ADD MSTORE PUSH17 0x155B9A5CDDD85C158C8E881313D0D2D151 PUSH1 0x7A SHL PUSH1 0x40 DUP3 ADD MSTORE PUSH1 0x60 ADD SWAP1 JUMP JUMPDEST PUSH1 0x0 DUP3 NOT DUP3 GT ISZERO PUSH2 0x1FEC JUMPI PUSH2 0x1FEC PUSH2 0x20EF JUMP JUMPDEST POP ADD SWAP1 JUMP JUMPDEST PUSH1 0x0 PUSH1 0x1 PUSH1 0x1 PUSH1 0xE0 SHL SUB DUP4 DUP2 AND DUP1 PUSH2 0x200B JUMPI PUSH2 0x200B PUSH2 0x2105 JUMP JUMPDEST SWAP3 AND SWAP2 SWAP1 SWAP2 DIV SWAP3 SWAP2 POP POP JUMP JUMPDEST PUSH1 0x0 DUP3 PUSH2 0x2026 JUMPI PUSH2 0x2026 PUSH2 0x2105 JUMP JUMPDEST POP DIV SWAP1 JUMP JUMPDEST PUSH1 0x0 PUSH1 0x1 PUSH1 0x1 PUSH1 0xE0 SHL SUB DUP3 DUP2 AND DUP5 DUP3 AND DUP2 ISZERO ISZERO DUP3 DUP5 DIV DUP3 GT AND ISZERO PUSH2 0x2051 JUMPI PUSH2 0x2051 PUSH2 0x20EF JUMP JUMPDEST MUL SWAP5 SWAP4 POP POP POP POP JUMP JUMPDEST PUSH1 0x0 DUP2 PUSH1 0x0 NOT DIV DUP4 GT DUP3 ISZERO ISZERO AND ISZERO PUSH2 0x2074 JUMPI PUSH2 0x2074 PUSH2 0x20EF JUMP JUMPDEST POP MUL SWAP1 JUMP JUMPDEST PUSH1 0x0 DUP3 DUP3 LT ISZERO PUSH2 0x208B JUMPI PUSH2 0x208B PUSH2 0x20EF JUMP JUMPDEST POP SUB SWAP1 JUMP JUMPDEST PUSH1 0x0 JUMPDEST DUP4 DUP2 LT ISZERO PUSH2 0x20AB JUMPI DUP2 DUP2 ADD MLOAD DUP4 DUP3 ADD MSTORE PUSH1 0x20 ADD PUSH2 0x2093 JUMP JUMPDEST DUP4 DUP2 GT ISZERO PUSH2 0x20BA JUMPI PUSH1 0x0 DUP5 DUP5 ADD MSTORE JUMPDEST POP POP POP POP JUMP JUMPDEST PUSH1 0x0 PUSH1 0x0 NOT DUP3 EQ ISZERO PUSH2 0x20D4 JUMPI PUSH2 0x20D4 PUSH2 0x20EF JUMP JUMPDEST POP PUSH1 0x1 ADD SWAP1 JUMP JUMPDEST PUSH1 0x0 DUP3 PUSH2 0x20EA JUMPI PUSH2 0x20EA PUSH2 0x2105 JUMP JUMPDEST POP MOD SWAP1 JUMP JUMPDEST PUSH4 0x4E487B71 PUSH1 0xE0 SHL PUSH1 0x0 MSTORE PUSH1 0x11 PUSH1 0x4 MSTORE PUSH1 0x24 PUSH1 0x0 REVERT JUMPDEST PUSH4 0x4E487B71 PUSH1 0xE0 SHL PUSH1 0x0 MSTORE PUSH1 0x12 PUSH1 0x4 MSTORE PUSH1 0x24 PUSH1 0x0 REVERT JUMPDEST PUSH1 0x1 PUSH1 0x1 PUSH1 0xA0 SHL SUB DUP2 AND DUP2 EQ PUSH2 0x2130 JUMPI PUSH1 0x0 DUP1 REVERT JUMPDEST POP JUMP INVALID LOG2 PUSH5 0x6970667358 0x22 SLT KECCAK256 0x2B PC 0xDB BALANCE PUSH22 0x1F55FADB992BE684C499382D07654EF6A49667EDAD11 EXP DUP7 SWAP2 PUSH8 0x9064736F6C634300 ADDMOD DIV STOP CALLER "
				},
				"gasEstimates": {
					"creation": {
						"codeDepositCost": "1710600",
						"executionCost": "infinite",
						"totalCost": "infinite"
					},
					"external": {
						"DOMAIN_SEPARATOR()": "1085",
						"MINIMUM_LIQUIDITY()": "240",
						"PERMIT_TYPEHASH()": "241",
						"TotalFee()": "1062",
						"allowance(address,address)": "infinite",
						"approve(address,uint256)": "22467",
						"balanceOf(address)": "1281",
						"burn(address)": "infinite",
						"decimals()": "272",
						"factory()": "1126",
						"getReserves()": "1249",
						"initialize(address,address)": "infinite",
						"kLast()": "1085",
						"mint(address)": "infinite",
						"name()": "infinite",
						"nonces(address)": "1258",
						"permit(address,address,uint256,uint256,uint8,bytes32,bytes32)": "infinite",
						"price0CumulativeLast()": "1084",
						"price1CumulativeLast()": "1106",
						"skim(address)": "infinite",
						"swap(uint256,uint256,address,bytes)": "infinite",
						"symbol()": "infinite",
						"sync()": "infinite",
						"token0()": "1105",
						"token1()": "1081",
						"totalSupply()": "1085",
						"transfer(address,uint256)": "44377",
						"transferFrom(address,address,uint256)": "infinite"
					},
					"internal": {
						"_mintFee(uint112,uint112)": "infinite",
						"_safeTransfer(address,address,uint256)": "infinite",
						"_update(uint256,uint256,uint112,uint112)": "infinite"
					}
				},
				"methodIdentifiers": {
					"DOMAIN_SEPARATOR()": "3644e515",
					"MINIMUM_LIQUIDITY()": "ba9a7a56",
					"PERMIT_TYPEHASH()": "30adf81f",
					"TotalFee()": "4d3314f4",
					"allowance(address,address)": "dd62ed3e",
					"approve(address,uint256)": "095ea7b3",
					"balanceOf(address)": "70a08231",
					"burn(address)": "89afcb44",
					"decimals()": "313ce567",
					"factory()": "c45a0155",
					"getReserves()": "0902f1ac",
					"initialize(address,address)": "485cc955",
					"kLast()": "7464fc3d",
					"mint(address)": "6a627842",
					"name()": "06fdde03",
					"nonces(address)": "7ecebe00",
					"permit(address,address,uint256,uint256,uint8,bytes32,bytes32)": "d505accf",
					"price0CumulativeLast()": "5909c0d5",
					"price1CumulativeLast()": "5a3d5493",
					"skim(address)": "bc25cf77",
					"swap(uint256,uint256,address,bytes)": "022c0d9f",
					"symbol()": "95d89b41",
					"sync()": "fff6cae9",
					"token0()": "0dfe1681",
					"token1()": "d21220a7",
					"totalSupply()": "18160ddd",
					"transfer(address,uint256)": "a9059cbb",
					"transferFrom(address,address,uint256)": "23b872dd"
				}
			},
			"storageLayout": {
				"storage": [
					{
						"astId": 263,
						"contract": "contracts/UniswapV2Pair_flattened.sol:UniswapV2Pair",
						"label": "totalSupply",
						"offset": 0,
						"slot": "0",
						"type": "t_uint256"
					},
					{
						"astId": 268,
						"contract": "contracts/UniswapV2Pair_flattened.sol:UniswapV2Pair",
						"label": "balanceOf",
						"offset": 0,
						"slot": "1",
						"type": "t_mapping(t_address,t_uint256)"
					},
					{
						"astId": 275,
						"contract": "contracts/UniswapV2Pair_flattened.sol:UniswapV2Pair",
						"label": "allowance",
						"offset": 0,
						"slot": "2",
						"type": "t_mapping(t_address,t_mapping(t_address,t_uint256))"
					},
					{
						"astId": 278,
						"contract": "contracts/UniswapV2Pair_flattened.sol:UniswapV2Pair",
						"label": "DOMAIN_SEPARATOR",
						"offset": 0,
						"slot": "3",
						"type": "t_bytes32"
					},
					{
						"astId": 287,
						"contract": "contracts/UniswapV2Pair_flattened.sol:UniswapV2Pair",
						"label": "nonces",
						"offset": 0,
						"slot": "4",
						"type": "t_mapping(t_address,t_uint256)"
					},
					{
						"astId": 888,
						"contract": "contracts/UniswapV2Pair_flattened.sol:UniswapV2Pair",
						"label": "factory",
						"offset": 0,
						"slot": "5",
						"type": "t_address"
					},
					{
						"astId": 891,
						"contract": "contracts/UniswapV2Pair_flattened.sol:UniswapV2Pair",
						"label": "token0",
						"offset": 0,
						"slot": "6",
						"type": "t_address"
					},
					{
						"astId": 894,
						"contract": "contracts/UniswapV2Pair_flattened.sol:UniswapV2Pair",
						"label": "token1",
						"offset": 0,
						"slot": "7",
						"type": "t_address"
					},
					{
						"astId": 896,
						"contract": "contracts/UniswapV2Pair_flattened.sol:UniswapV2Pair",
						"label": "reserve0",
						"offset": 0,
						"slot": "8",
						"type": "t_uint112"
					},
					{
						"astId": 898,
						"contract": "contracts/UniswapV2Pair_flattened.sol:UniswapV2Pair",
						"label": "reserve1",
						"offset": 14,
						"slot": "8",
						"type": "t_uint112"
					},
					{
						"astId": 900,
						"contract": "contracts/UniswapV2Pair_flattened.sol:UniswapV2Pair",
						"label": "blockTimestampLast",
						"offset": 28,
						"slot": "8",
						"type": "t_uint32"
					},
					{
						"astId": 902,
						"contract": "contracts/UniswapV2Pair_flattened.sol:UniswapV2Pair",
						"label": "TotalFee",
						"offset": 0,
						"slot": "9",
						"type": "t_uint256"
					},
					{
						"astId": 904,
						"contract": "contracts/UniswapV2Pair_flattened.sol:UniswapV2Pair",
						"label": "feeToSetter",
						"offset": 0,
						"slot": "10",
						"type": "t_uint256"
					},
					{
						"astId": 907,
						"contract": "contracts/UniswapV2Pair_flattened.sol:UniswapV2Pair",
						"label": "price0CumulativeLast",
						"offset": 0,
						"slot": "11",
						"type": "t_uint256"
					},
					{
						"astId": 910,
						"contract": "contracts/UniswapV2Pair_flattened.sol:UniswapV2Pair",
						"label": "price1CumulativeLast",
						"offset": 0,
						"slot": "12",
						"type": "t_uint256"
					},
					{
						"astId": 913,
						"contract": "contracts/UniswapV2Pair_flattened.sol:UniswapV2Pair",
						"label": "kLast",
						"offset": 0,
						"slot": "13",
						"type": "t_uint256"
					},
					{
						"astId": 916,
						"contract": "contracts/UniswapV2Pair_flattened.sol:UniswapV2Pair",
						"label": "unlocked",
						"offset": 0,
						"slot": "14",
						"type": "t_uint256"
					}
				],
				"types": {
					"t_address": {
						"encoding": "inplace",
						"label": "address",
						"numberOfBytes": "20"
					},
					"t_bytes32": {
						"encoding": "inplace",
						"label": "bytes32",
						"numberOfBytes": "32"
					},
					"t_mapping(t_address,t_mapping(t_address,t_uint256))": {
						"encoding": "mapping",
						"key": "t_address",
						"label": "mapping(address => mapping(address => uint256))",
						"numberOfBytes": "32",
						"value": "t_mapping(t_address,t_uint256)"
					},
					"t_mapping(t_address,t_uint256)": {
						"encoding": "mapping",
						"key": "t_address",
						"label": "mapping(address => uint256)",
						"numberOfBytes": "32",
						"value": "t_uint256"
					},
					"t_uint112": {
						"encoding": "inplace",
						"label": "uint112",
						"numberOfBytes": "14"
					},
					"t_uint256": {
						"encoding": "inplace",
						"label": "uint256",
						"numberOfBytes": "32"
					},
					"t_uint32": {
						"encoding": "inplace",
						"label": "uint32",
						"numberOfBytes": "4"
					}
				}
			},
			"userdoc": {
				"kind": "user",
				"methods": {},
				"version": 1
			}
		}
	}
}